{
  "_format": "hh-sol-artifact-1",
  "contractName": "CyrusPortal11",
  "sourceName": "contracts/CB11/CyrusPortal11.sol",
  "abi": [
    {
      "inputs": [
        {
          "internalType": "address",
          "name": "_feeCollector",
          "type": "address"
        },
        {
          "internalType": "bytes32",
          "name": "_salt",
          "type": "bytes32"
        },
        {
          "internalType": "address",
          "name": "_priceFeed",
          "type": "address"
        },
        {
          "internalType": "address",
          "name": "_usd1",
          "type": "address"
        }
      ],
      "stateMutability": "nonpayable",
      "type": "constructor"
    },
    {
      "anonymous": false,
      "inputs": [
        {
          "indexed": true,
          "internalType": "address",
          "name": "user",
          "type": "address"
        },
        {
          "indexed": false,
          "internalType": "uint256",
          "name": "tokenCount",
          "type": "uint256"
        }
      ],
      "name": "BatchOperation",
      "type": "event"
    },
    {
      "anonymous": false,
      "inputs": [
        {
          "indexed": true,
          "internalType": "address",
          "name": "user",
          "type": "address"
        },
        {
          "indexed": false,
          "internalType": "bytes32",
          "name": "commitment",
          "type": "bytes32"
        }
      ],
      "name": "CommitmentStorageCleared",
      "type": "event"
    },
    {
      "anonymous": false,
      "inputs": [
        {
          "indexed": true,
          "internalType": "address",
          "name": "token",
          "type": "address"
        },
        {
          "indexed": true,
          "internalType": "address",
          "name": "user",
          "type": "address"
        },
        {
          "indexed": false,
          "internalType": "uint256",
          "name": "amount",
          "type": "uint256"
        }
      ],
      "name": "Deposit",
      "type": "event"
    },
    {
      "anonymous": false,
      "inputs": [
        {
          "indexed": true,
          "internalType": "bytes32",
          "name": "hashedCommitment",
          "type": "bytes32"
        },
        {
          "indexed": true,
          "internalType": "address",
          "name": "user",
          "type": "address"
        }
      ],
      "name": "DepositCommitted",
      "type": "event"
    },
    {
      "anonymous": false,
      "inputs": [
        {
          "indexed": true,
          "internalType": "bytes32",
          "name": "commitment",
          "type": "bytes32"
        },
        {
          "indexed": false,
          "internalType": "uint256",
          "name": "amount",
          "type": "uint256"
        },
        {
          "indexed": false,
          "internalType": "uint256",
          "name": "rangeIndex",
          "type": "uint256"
        }
      ],
      "name": "DepositRevealed",
      "type": "event"
    },
    {
      "anonymous": false,
      "inputs": [
        {
          "indexed": false,
          "internalType": "uint256",
          "name": "timestamp",
          "type": "uint256"
        },
        {
          "indexed": false,
          "internalType": "uint256",
          "name": "currentPrice",
          "type": "uint256"
        }
      ],
      "name": "ETHAmountsUpdated",
      "type": "event"
    },
    {
      "anonymous": false,
      "inputs": [
        {
          "indexed": false,
          "internalType": "uint256",
          "name": "amount",
          "type": "uint256"
        }
      ],
      "name": "FeesCollected",
      "type": "event"
    },
    {
      "anonymous": false,
      "inputs": [
        {
          "indexed": true,
          "internalType": "address",
          "name": "token",
          "type": "address"
        },
        {
          "indexed": true,
          "internalType": "address",
          "name": "from",
          "type": "address"
        },
        {
          "indexed": true,
          "internalType": "address",
          "name": "to",
          "type": "address"
        },
        {
          "indexed": false,
          "internalType": "uint256",
          "name": "amount",
          "type": "uint256"
        }
      ],
      "name": "InternalTransfer",
      "type": "event"
    },
    {
      "anonymous": false,
      "inputs": [
        {
          "indexed": true,
          "internalType": "bytes32",
          "name": "oldCommitment",
          "type": "bytes32"
        },
        {
          "indexed": true,
          "internalType": "bytes32",
          "name": "newCommitment",
          "type": "bytes32"
        },
        {
          "indexed": false,
          "internalType": "uint256",
          "name": "round",
          "type": "uint256"
        }
      ],
      "name": "MixingRoundAdvanced",
      "type": "event"
    },
    {
      "anonymous": false,
      "inputs": [
        {
          "indexed": true,
          "internalType": "bytes32",
          "name": "commitment",
          "type": "bytes32"
        },
        {
          "indexed": false,
          "internalType": "bool",
          "name": "useMultiRound",
          "type": "bool"
        }
      ],
      "name": "PrivacySettingsSet",
      "type": "event"
    },
    {
      "anonymous": false,
      "inputs": [
        {
          "indexed": true,
          "internalType": "bytes32",
          "name": "commitment",
          "type": "bytes32"
        },
        {
          "indexed": false,
          "internalType": "uint256",
          "name": "delayMinutes",
          "type": "uint256"
        }
      ],
      "name": "RandomDelaySet",
      "type": "event"
    },
    {
      "anonymous": false,
      "inputs": [
        {
          "indexed": true,
          "internalType": "address",
          "name": "user",
          "type": "address"
        },
        {
          "indexed": false,
          "internalType": "uint256",
          "name": "count",
          "type": "uint256"
        }
      ],
      "name": "RateLimitExceeded",
      "type": "event"
    },
    {
      "anonymous": false,
      "inputs": [
        {
          "indexed": true,
          "internalType": "address",
          "name": "user",
          "type": "address"
        },
        {
          "indexed": true,
          "internalType": "address",
          "name": "token",
          "type": "address"
        }
      ],
      "name": "TokenPruned",
      "type": "event"
    },
    {
      "anonymous": false,
      "inputs": [
        {
          "indexed": true,
          "internalType": "address",
          "name": "token",
          "type": "address"
        },
        {
          "indexed": true,
          "internalType": "address",
          "name": "user",
          "type": "address"
        },
        {
          "indexed": false,
          "internalType": "uint256",
          "name": "amount",
          "type": "uint256"
        }
      ],
      "name": "Withdraw",
      "type": "event"
    },
    {
      "inputs": [],
      "name": "COMMIT_REVEAL_DELAY",
      "outputs": [
        {
          "internalType": "uint256",
          "name": "",
          "type": "uint256"
        }
      ],
      "stateMutability": "view",
      "type": "function"
    },
    {
      "inputs": [],
      "name": "MAX_BATCH_SIZE",
      "outputs": [
        {
          "internalType": "uint256",
          "name": "",
          "type": "uint256"
        }
      ],
      "stateMutability": "view",
      "type": "function"
    },
    {
      "inputs": [],
      "name": "MAX_DELAY_MINUTES",
      "outputs": [
        {
          "internalType": "uint256",
          "name": "",
          "type": "uint256"
        }
      ],
      "stateMutability": "view",
      "type": "function"
    },
    {
      "inputs": [],
      "name": "MAX_MIXING_ROUNDS",
      "outputs": [
        {
          "internalType": "uint256",
          "name": "",
          "type": "uint256"
        }
      ],
      "stateMutability": "view",
      "type": "function"
    },
    {
      "inputs": [],
      "name": "MAX_NEW_TOKENS_PER_TX",
      "outputs": [
        {
          "internalType": "uint256",
          "name": "",
          "type": "uint256"
        }
      ],
      "stateMutability": "view",
      "type": "function"
    },
    {
      "inputs": [],
      "name": "MAX_TOKENS_PER_USER",
      "outputs": [
        {
          "internalType": "uint256",
          "name": "",
          "type": "uint256"
        }
      ],
      "stateMutability": "view",
      "type": "function"
    },
    {
      "inputs": [],
      "name": "MAX_TRANSACTIONS_PER_MINUTE",
      "outputs": [
        {
          "internalType": "uint256",
          "name": "",
          "type": "uint256"
        }
      ],
      "stateMutability": "view",
      "type": "function"
    },
    {
      "inputs": [],
      "name": "MIN_DELAY_MINUTES",
      "outputs": [
        {
          "internalType": "uint256",
          "name": "",
          "type": "uint256"
        }
      ],
      "stateMutability": "view",
      "type": "function"
    },
    {
      "inputs": [],
      "name": "MIN_MIXING_ROUNDS",
      "outputs": [
        {
          "internalType": "uint256",
          "name": "",
          "type": "uint256"
        }
      ],
      "stateMutability": "view",
      "type": "function"
    },
    {
      "inputs": [],
      "name": "PRICE_UPDATE_INTERVAL",
      "outputs": [
        {
          "internalType": "uint256",
          "name": "",
          "type": "uint256"
        }
      ],
      "stateMutability": "view",
      "type": "function"
    },
    {
      "inputs": [],
      "name": "PRICE_VARIANCE_PERCENT",
      "outputs": [
        {
          "internalType": "uint256",
          "name": "",
          "type": "uint256"
        }
      ],
      "stateMutability": "view",
      "type": "function"
    },
    {
      "inputs": [],
      "name": "RATE_LIMIT_WINDOW_MINUTE",
      "outputs": [
        {
          "internalType": "uint256",
          "name": "",
          "type": "uint256"
        }
      ],
      "stateMutability": "view",
      "type": "function"
    },
    {
      "inputs": [],
      "name": "SLOT_1000_USD1",
      "outputs": [
        {
          "internalType": "uint256",
          "name": "",
          "type": "uint256"
        }
      ],
      "stateMutability": "view",
      "type": "function"
    },
    {
      "inputs": [],
      "name": "SLOT_100_USD1",
      "outputs": [
        {
          "internalType": "uint256",
          "name": "",
          "type": "uint256"
        }
      ],
      "stateMutability": "view",
      "type": "function"
    },
    {
      "inputs": [],
      "name": "SLOT_10_USD1",
      "outputs": [
        {
          "internalType": "uint256",
          "name": "",
          "type": "uint256"
        }
      ],
      "stateMutability": "view",
      "type": "function"
    },
    {
      "inputs": [],
      "name": "SLOT_200_USD1",
      "outputs": [
        {
          "internalType": "uint256",
          "name": "",
          "type": "uint256"
        }
      ],
      "stateMutability": "view",
      "type": "function"
    },
    {
      "inputs": [],
      "name": "SLOT_20_USD1",
      "outputs": [
        {
          "internalType": "uint256",
          "name": "",
          "type": "uint256"
        }
      ],
      "stateMutability": "view",
      "type": "function"
    },
    {
      "inputs": [],
      "name": "SLOT_500_USD1",
      "outputs": [
        {
          "internalType": "uint256",
          "name": "",
          "type": "uint256"
        }
      ],
      "stateMutability": "view",
      "type": "function"
    },
    {
      "inputs": [],
      "name": "SLOT_50_USD1",
      "outputs": [
        {
          "internalType": "uint256",
          "name": "",
          "type": "uint256"
        }
      ],
      "stateMutability": "view",
      "type": "function"
    },
    {
      "inputs": [],
      "name": "SLOT_5_USD1",
      "outputs": [
        {
          "internalType": "uint256",
          "name": "",
          "type": "uint256"
        }
      ],
      "stateMutability": "view",
      "type": "function"
    },
    {
      "inputs": [
        {
          "internalType": "uint256",
          "name": "amount",
          "type": "uint256"
        },
        {
          "internalType": "bool",
          "name": "isETH",
          "type": "bool"
        }
      ],
      "name": "_findAmountRange",
      "outputs": [
        {
          "internalType": "uint256",
          "name": "",
          "type": "uint256"
        }
      ],
      "stateMutability": "view",
      "type": "function"
    },
    {
      "inputs": [
        {
          "internalType": "bytes32",
          "name": "commitment",
          "type": "bytes32"
        }
      ],
      "name": "_generatePseudoRandomDelay",
      "outputs": [
        {
          "internalType": "uint256",
          "name": "",
          "type": "uint256"
        }
      ],
      "stateMutability": "view",
      "type": "function"
    },
    {
      "inputs": [],
      "name": "_getDynamicFeeInWei",
      "outputs": [
        {
          "internalType": "uint256",
          "name": "",
          "type": "uint256"
        }
      ],
      "stateMutability": "view",
      "type": "function"
    },
    {
      "inputs": [
        {
          "internalType": "bytes32",
          "name": "oldCommitment",
          "type": "bytes32"
        },
        {
          "internalType": "bytes32",
          "name": "newCommitment",
          "type": "bytes32"
        }
      ],
      "name": "advanceMixingRound",
      "outputs": [],
      "stateMutability": "payable",
      "type": "function"
    },
    {
      "inputs": [
        {
          "internalType": "uint256",
          "name": "",
          "type": "uint256"
        }
      ],
      "name": "amountSlots",
      "outputs": [
        {
          "internalType": "uint256",
          "name": "slotId",
          "type": "uint256"
        },
        {
          "internalType": "uint256",
          "name": "usd1Amount",
          "type": "uint256"
        },
        {
          "internalType": "uint256",
          "name": "ethAmount",
          "type": "uint256"
        },
        {
          "internalType": "uint256",
          "name": "totalBalance",
          "type": "uint256"
        },
        {
          "internalType": "bool",
          "name": "isActive",
          "type": "bool"
        },
        {
          "internalType": "uint256",
          "name": "lastPriceUpdate",
          "type": "uint256"
        }
      ],
      "stateMutability": "view",
      "type": "function"
    },
    {
      "inputs": [
        {
          "internalType": "bytes32",
          "name": "commitment",
          "type": "bytes32"
        }
      ],
      "name": "checkCommitmentStatus",
      "outputs": [
        {
          "internalType": "bool",
          "name": "exists",
          "type": "bool"
        },
        {
          "internalType": "uint256",
          "name": "round",
          "type": "uint256"
        },
        {
          "internalType": "bool",
          "name": "spent",
          "type": "bool"
        }
      ],
      "stateMutability": "view",
      "type": "function"
    },
    {
      "inputs": [],
      "name": "collectFees",
      "outputs": [],
      "stateMutability": "nonpayable",
      "type": "function"
    },
    {
      "inputs": [
        {
          "internalType": "bytes32",
          "name": "hashedCommitment",
          "type": "bytes32"
        }
      ],
      "name": "commitDeposit",
      "outputs": [],
      "stateMutability": "nonpayable",
      "type": "function"
    },
    {
      "inputs": [
        {
          "internalType": "bytes32",
          "name": "",
          "type": "bytes32"
        }
      ],
      "name": "commitmentAmounts",
      "outputs": [
        {
          "internalType": "uint256",
          "name": "",
          "type": "uint256"
        }
      ],
      "stateMutability": "view",
      "type": "function"
    },
    {
      "inputs": [
        {
          "internalType": "bytes32",
          "name": "",
          "type": "bytes32"
        }
      ],
      "name": "commitmentDelays",
      "outputs": [
        {
          "internalType": "uint256",
          "name": "",
          "type": "uint256"
        }
      ],
      "stateMutability": "view",
      "type": "function"
    },
    {
      "inputs": [
        {
          "internalType": "bytes32",
          "name": "",
          "type": "bytes32"
        }
      ],
      "name": "commitmentPrivacySettings",
      "outputs": [
        {
          "internalType": "bool",
          "name": "useMultiRound",
          "type": "bool"
        },
        {
          "internalType": "bool",
          "name": "isETH",
          "type": "bool"
        }
      ],
      "stateMutability": "view",
      "type": "function"
    },
    {
      "inputs": [
        {
          "internalType": "bytes32",
          "name": "",
          "type": "bytes32"
        }
      ],
      "name": "committedDeposits",
      "outputs": [
        {
          "internalType": "bool",
          "name": "",
          "type": "bool"
        }
      ],
      "stateMutability": "view",
      "type": "function"
    },
    {
      "inputs": [],
      "name": "depositETH",
      "outputs": [],
      "stateMutability": "payable",
      "type": "function"
    },
    {
      "inputs": [
        {
          "internalType": "address[]",
          "name": "tokens",
          "type": "address[]"
        },
        {
          "internalType": "uint256[]",
          "name": "amounts",
          "type": "uint256[]"
        }
      ],
      "name": "depositMultipleTokens",
      "outputs": [],
      "stateMutability": "payable",
      "type": "function"
    },
    {
      "inputs": [
        {
          "internalType": "bytes32",
          "name": "",
          "type": "bytes32"
        }
      ],
      "name": "depositRevealTimes",
      "outputs": [
        {
          "internalType": "uint256",
          "name": "",
          "type": "uint256"
        }
      ],
      "stateMutability": "view",
      "type": "function"
    },
    {
      "inputs": [
        {
          "internalType": "bytes32",
          "name": "",
          "type": "bytes32"
        }
      ],
      "name": "depositTimestamps",
      "outputs": [
        {
          "internalType": "uint256",
          "name": "",
          "type": "uint256"
        }
      ],
      "stateMutability": "view",
      "type": "function"
    },
    {
      "inputs": [
        {
          "internalType": "address",
          "name": "token",
          "type": "address"
        },
        {
          "internalType": "uint256",
          "name": "amount",
          "type": "uint256"
        }
      ],
      "name": "depositToken",
      "outputs": [],
      "stateMutability": "payable",
      "type": "function"
    },
    {
      "inputs": [],
      "name": "getAmountSlots",
      "outputs": [
        {
          "components": [
            {
              "internalType": "uint256",
              "name": "slotId",
              "type": "uint256"
            },
            {
              "internalType": "uint256",
              "name": "usd1Amount",
              "type": "uint256"
            },
            {
              "internalType": "uint256",
              "name": "ethAmount",
              "type": "uint256"
            },
            {
              "internalType": "uint256",
              "name": "totalBalance",
              "type": "uint256"
            },
            {
              "internalType": "bool",
              "name": "isActive",
              "type": "bool"
            },
            {
              "internalType": "uint256",
              "name": "lastPriceUpdate",
              "type": "uint256"
            }
          ],
          "internalType": "struct CyrusPortal11.AmountSlot[]",
          "name": "",
          "type": "tuple[]"
        }
      ],
      "stateMutability": "view",
      "type": "function"
    },
    {
      "inputs": [
        {
          "internalType": "address",
          "name": "user",
          "type": "address"
        },
        {
          "internalType": "address",
          "name": "token",
          "type": "address"
        }
      ],
      "name": "getBalance",
      "outputs": [
        {
          "internalType": "uint256",
          "name": "",
          "type": "uint256"
        }
      ],
      "stateMutability": "view",
      "type": "function"
    },
    {
      "inputs": [
        {
          "internalType": "bytes32",
          "name": "commitment",
          "type": "bytes32"
        }
      ],
      "name": "getCommitmentDelay",
      "outputs": [
        {
          "internalType": "uint256",
          "name": "",
          "type": "uint256"
        }
      ],
      "stateMutability": "view",
      "type": "function"
    },
    {
      "inputs": [],
      "name": "getCurrentFeeInWei",
      "outputs": [
        {
          "internalType": "uint256",
          "name": "",
          "type": "uint256"
        }
      ],
      "stateMutability": "view",
      "type": "function"
    },
    {
      "inputs": [],
      "name": "getCurrentSlotAmounts",
      "outputs": [
        {
          "internalType": "uint256[]",
          "name": "ethAmounts",
          "type": "uint256[]"
        },
        {
          "internalType": "uint256[]",
          "name": "usd1Amounts",
          "type": "uint256[]"
        }
      ],
      "stateMutability": "view",
      "type": "function"
    },
    {
      "inputs": [],
      "name": "getCurrentSlotAmountsWithPrice",
      "outputs": [
        {
          "internalType": "uint256[]",
          "name": "ethAmounts",
          "type": "uint256[]"
        },
        {
          "internalType": "uint256[]",
          "name": "usd1Amounts",
          "type": "uint256[]"
        },
        {
          "internalType": "uint256",
          "name": "currentETHPrice",
          "type": "uint256"
        }
      ],
      "stateMutability": "view",
      "type": "function"
    },
    {
      "inputs": [
        {
          "internalType": "bytes32",
          "name": "commitment",
          "type": "bytes32"
        }
      ],
      "name": "getMixingRound",
      "outputs": [
        {
          "internalType": "uint256",
          "name": "",
          "type": "uint256"
        }
      ],
      "stateMutability": "view",
      "type": "function"
    },
    {
      "inputs": [],
      "name": "getMyVaultedTokens",
      "outputs": [
        {
          "internalType": "address[]",
          "name": "tokens",
          "type": "address[]"
        },
        {
          "internalType": "uint256[]",
          "name": "balances",
          "type": "uint256[]"
        }
      ],
      "stateMutability": "view",
      "type": "function"
    },
    {
      "inputs": [
        {
          "internalType": "uint256",
          "name": "amount",
          "type": "uint256"
        },
        {
          "internalType": "bool",
          "name": "isETH",
          "type": "bool"
        }
      ],
      "name": "getSlotByAmount",
      "outputs": [
        {
          "internalType": "uint256",
          "name": "slotId",
          "type": "uint256"
        },
        {
          "internalType": "uint256",
          "name": "usd1Amount",
          "type": "uint256"
        },
        {
          "internalType": "uint256",
          "name": "ethAmount",
          "type": "uint256"
        }
      ],
      "stateMutability": "view",
      "type": "function"
    },
    {
      "inputs": [
        {
          "internalType": "address",
          "name": "user",
          "type": "address"
        }
      ],
      "name": "getUserCommitments",
      "outputs": [
        {
          "internalType": "bytes32[]",
          "name": "commitments",
          "type": "bytes32[]"
        },
        {
          "internalType": "uint256[]",
          "name": "amounts",
          "type": "uint256[]"
        },
        {
          "internalType": "uint256[]",
          "name": "rounds",
          "type": "uint256[]"
        }
      ],
      "stateMutability": "view",
      "type": "function"
    },
    {
      "inputs": [
        {
          "internalType": "bytes32",
          "name": "",
          "type": "bytes32"
        }
      ],
      "name": "mixingRounds",
      "outputs": [
        {
          "internalType": "uint256",
          "name": "",
          "type": "uint256"
        }
      ],
      "stateMutability": "view",
      "type": "function"
    },
    {
      "inputs": [],
      "name": "priceFeed",
      "outputs": [
        {
          "internalType": "contract AggregatorV3Interface",
          "name": "",
          "type": "address"
        }
      ],
      "stateMutability": "view",
      "type": "function"
    },
    {
      "inputs": [
        {
          "internalType": "uint256",
          "name": "amount",
          "type": "uint256"
        },
        {
          "internalType": "bytes32",
          "name": "commitment",
          "type": "bytes32"
        },
        {
          "internalType": "uint256",
          "name": "nonce",
          "type": "uint256"
        },
        {
          "internalType": "bytes32",
          "name": "encryptedCommitment",
          "type": "bytes32"
        },
        {
          "internalType": "bool",
          "name": "isETH",
          "type": "bool"
        },
        {
          "internalType": "bool",
          "name": "useMultiRound",
          "type": "bool"
        }
      ],
      "name": "revealDeposit",
      "outputs": [],
      "stateMutability": "payable",
      "type": "function"
    },
    {
      "inputs": [
        {
          "internalType": "bytes32",
          "name": "",
          "type": "bytes32"
        }
      ],
      "name": "roundCommitments",
      "outputs": [
        {
          "internalType": "bytes32",
          "name": "",
          "type": "bytes32"
        }
      ],
      "stateMutability": "view",
      "type": "function"
    },
    {
      "inputs": [
        {
          "internalType": "bytes32",
          "name": "",
          "type": "bytes32"
        }
      ],
      "name": "spentCommitments",
      "outputs": [
        {
          "internalType": "bool",
          "name": "",
          "type": "bool"
        }
      ],
      "stateMutability": "view",
      "type": "function"
    },
    {
      "inputs": [
        {
          "internalType": "address",
          "name": "recipient",
          "type": "address"
        },
        {
          "internalType": "bytes32",
          "name": "commitment",
          "type": "bytes32"
        }
      ],
      "name": "teleportBack",
      "outputs": [],
      "stateMutability": "nonpayable",
      "type": "function"
    },
    {
      "inputs": [
        {
          "internalType": "address",
          "name": "to",
          "type": "address"
        },
        {
          "internalType": "uint256",
          "name": "amount",
          "type": "uint256"
        }
      ],
      "name": "transferInternalETH",
      "outputs": [],
      "stateMutability": "payable",
      "type": "function"
    },
    {
      "inputs": [
        {
          "internalType": "address",
          "name": "token",
          "type": "address"
        },
        {
          "internalType": "address",
          "name": "to",
          "type": "address"
        },
        {
          "internalType": "uint256",
          "name": "amount",
          "type": "uint256"
        }
      ],
      "name": "transferInternalToken",
      "outputs": [],
      "stateMutability": "payable",
      "type": "function"
    },
    {
      "inputs": [
        {
          "internalType": "address[]",
          "name": "tokens",
          "type": "address[]"
        },
        {
          "internalType": "address",
          "name": "to",
          "type": "address"
        },
        {
          "internalType": "uint256[]",
          "name": "amounts",
          "type": "uint256[]"
        }
      ],
      "name": "transferMultipleTokensInternal",
      "outputs": [],
      "stateMutability": "payable",
      "type": "function"
    },
    {
      "inputs": [],
      "name": "updateETHAmounts",
      "outputs": [],
      "stateMutability": "nonpayable",
      "type": "function"
    },
    {
      "inputs": [],
      "name": "usd1",
      "outputs": [
        {
          "internalType": "contract IERC20",
          "name": "",
          "type": "address"
        }
      ],
      "stateMutability": "view",
      "type": "function"
    },
    {
      "inputs": [
        {
          "internalType": "address",
          "name": "",
          "type": "address"
        },
        {
          "internalType": "uint256",
          "name": "",
          "type": "uint256"
        }
      ],
      "name": "userCommitmentAmounts",
      "outputs": [
        {
          "internalType": "uint256",
          "name": "",
          "type": "uint256"
        }
      ],
      "stateMutability": "view",
      "type": "function"
    },
    {
      "inputs": [
        {
          "internalType": "address",
          "name": "",
          "type": "address"
        }
      ],
      "name": "userCommitmentCount",
      "outputs": [
        {
          "internalType": "uint256",
          "name": "",
          "type": "uint256"
        }
      ],
      "stateMutability": "view",
      "type": "function"
    },
    {
      "inputs": [
        {
          "internalType": "address",
          "name": "",
          "type": "address"
        },
        {
          "internalType": "uint256",
          "name": "",
          "type": "uint256"
        }
      ],
      "name": "userCommitmentTimes",
      "outputs": [
        {
          "internalType": "uint256",
          "name": "",
          "type": "uint256"
        }
      ],
      "stateMutability": "view",
      "type": "function"
    },
    {
      "inputs": [
        {
          "internalType": "address",
          "name": "",
          "type": "address"
        },
        {
          "internalType": "uint256",
          "name": "",
          "type": "uint256"
        }
      ],
      "name": "userEncryptedCommitments",
      "outputs": [
        {
          "internalType": "bytes32",
          "name": "",
          "type": "bytes32"
        }
      ],
      "stateMutability": "view",
      "type": "function"
    },
    {
      "inputs": [
        {
          "internalType": "uint256",
          "name": "amount",
          "type": "uint256"
        }
      ],
      "name": "withdrawETH",
      "outputs": [],
      "stateMutability": "payable",
      "type": "function"
    },
    {
      "inputs": [
        {
          "internalType": "address[]",
          "name": "tokens",
          "type": "address[]"
        },
        {
          "internalType": "uint256[]",
          "name": "amounts",
          "type": "uint256[]"
        }
      ],
      "name": "withdrawMultipleTokens",
      "outputs": [],
      "stateMutability": "payable",
      "type": "function"
    },
    {
      "inputs": [
        {
          "internalType": "address",
          "name": "token",
          "type": "address"
        },
        {
          "internalType": "uint256",
          "name": "amount",
          "type": "uint256"
        }
      ],
      "name": "withdrawToken",
      "outputs": [],
      "stateMutability": "payable",
      "type": "function"
    }
  ],
  "bytecode": "0x610200604052674563918244f4000061010052678ac7230489e80000610120526801158e460913d00000610140526802b5e3af16b18800006101605268056bc75e2d6310000061018052680ad78ebc5ac62000006101a052681b1ae4d6e2ef5000006101c052683635c9adc5dea000006101e0523480156200008057600080fd5b50604051620056f9380380620056f9833981016040819052620000a3916200058a565b60016000556001600160a01b038416620001045760405162461bcd60e51b815260206004820152601560248201527f496e76616c69642066656520636f6c6c6563746f72000000000000000000000060448201526064015b60405180910390fd5b6001600160a01b038216620001515760405162461bcd60e51b8152602060048201526012602482015271125b9d985b1a59081c1c9a58d9481999595960721b6044820152606401620000fb565b6001600160a01b038116620001a95760405162461bcd60e51b815260206004820152601460248201527f496e76616c6964205553443120616464726573730000000000000000000000006044820152606401620000fb565b6001600160a01b0380851660805260a084905282811660c052811660e052620001d1620001db565b50505050620007f0565b6040805160088082526101208201909252600091602082016101008036833701905050905061010051816000815181106200021a576200021a620005de565b6020026020010181815250506101205181600181518110620002405762000240620005de565b6020026020010181815250506101405181600281518110620002665762000266620005de565b60200260200101818152505061016051816003815181106200028c576200028c620005de565b6020026020010181815250506101805181600481518110620002b257620002b2620005de565b6020026020010181815250506101a05181600581518110620002d857620002d8620005de565b6020026020010181815250506101c05181600681518110620002fe57620002fe620005de565b6020026020010181815250506101e05181600781518110620003245762000324620005de565b60200260200101818152505060005b60088110156200041e5760006200036c838381518110620003585762000358620005de565b60200260200101516200042260201b60201c565b905060076040518060c00160405280848152602001858581518110620003965762000396620005de565b6020908102919091018101518252818101949094526000604080830182905260016060808501829052426080958601528654808301885596845292879020855160069097020195865595840151858701558301516002850155820151600384015581015160048301805460ff191691151591909117905560a001516005909101550162000333565b5050565b60008060c0516001600160a01b031663feaf968c6040518163ffffffff1660e01b815260040160a060405180830381865afa15801562000466573d6000803e3d6000fd5b505050506040513d601f19601f820116820180604052508101906200048c91906200060c565b50505091505060008113620004d45760405162461bcd60e51b815260206004820152600d60248201526c496e76616c696420707269636560981b6044820152606401620000fb565b600060c0516001600160a01b031663313ce5676040518163ffffffff1660e01b8152600401602060405180830381865afa15801562000517573d6000803e3d6000fd5b505050506040513d601f19601f820116820180604052508101906200053d919062000661565b9050816200054d82600a620007a2565b620005599086620007b3565b620005659190620007cd565b949350505050565b80516001600160a01b03811681146200058557600080fd5b919050565b60008060008060808587031215620005a157600080fd5b620005ac856200056d565b935060208501519250620005c3604086016200056d565b9150620005d3606086016200056d565b905092959194509250565b634e487b7160e01b600052603260045260246000fd5b80516001600160501b03811681146200058557600080fd5b600080600080600060a086880312156200062557600080fd5b6200063086620005f4565b94506020860151935060408601519250606086015191506200065560808701620005f4565b90509295509295909350565b6000602082840312156200067457600080fd5b815160ff811681146200068657600080fd5b9392505050565b634e487b7160e01b600052601160045260246000fd5b600181815b80851115620006e4578160001904821115620006c857620006c86200068d565b80851615620006d657918102915b93841c9390800290620006a8565b509250929050565b600082620006fd575060016200079c565b816200070c575060006200079c565b8160018114620007255760028114620007305762000750565b60019150506200079c565b60ff8411156200074457620007446200068d565b50506001821b6200079c565b5060208310610133831016604e8410600b841016171562000775575081810a6200079c565b620007818383620006a3565b80600019048211156200079857620007986200068d565b0290505b92915050565b60006200068660ff841683620006ec565b80820281158282048414176200079c576200079c6200068d565b600082620007eb57634e487b7160e01b600052601260045260246000fd5b500490565b60805160a05160c05160e05161010051610120516101405161016051610180516101a0516101c0516101e051614e15620008e460003960006103e501526000610b3f015260006108c001526000610ca5015260006107ef01526000610bd00152600061046e01526000610a1b0152600081816105f101528181611a2801528181611ae10152613011015260008181610783015281816129fb01528181612a85015281816132f6015281816133c001528181613fc3015261408d015260006139180152600081816123cd01528181612bbf01528181612c2401528181612ca80152818161366a01526137ba0152614e156000f3fe6080604052600436106103ce5760003560e01c80639000cb0e116101fd578063c0640ebc11610118578063d8f1f85e116100ab578063ee937e821161007a578063ee937e8214610c32578063f14210a614610c48578063f23a0c6314610c5b578063f6326fb314610c8b578063f6ab902914610c9357600080fd5b8063d8f1f85e14610b96578063db46a79014610ba9578063e1d5396914610bbe578063e51a9e3f14610bf257600080fd5b8063cd6b7e07116100e7578063cd6b7e0714610447578063cf529ccc14610b2d578063cfdbf25414610b61578063d4fac45d14610b7657600080fd5b8063c0640ebc14610569578063c5a8dff014610aa5578063c7f0182114610af4578063c879657214610b1857600080fd5b8063a86da99911610190578063bac082ac1161015f578063bac082ac146109f6578063bb566e3314610a09578063bc7422ec14610a3d578063bca4492214610a7857600080fd5b8063a86da9991461062b578063a9110e17146109ad578063b069ffd3146109cd578063b1b0dba5146109e057600080fd5b80639e281a98116101cc5780639e281a981461093a5780639f7e9c291461094d578063a0501e121461097a578063a3bd47361461098d57600080fd5b80639000cb0e146108ae5780639018ae80146108e2578063942b1364146108f5578063977c79011461091857600080fd5b80635a25a82b116102ed5780637224860d11610280578063823671e41161024f578063823671e4146107dd578063867cf31f146108115780638a5a9742146108615780638dfd1fc41461088157600080fd5b80637224860d14610744578063741bef1a1461077157806375aabdcf146107a55780637e5fc02c146107c857600080fd5b8063682b420e116102bc578063682b420e146106d557806369c5dfd8146107025780636d4de23f146107175780636df233ff1461056957600080fd5b80635a25a82b146106605780635d7205f61461067357806361d4e6ae14610688578063633ba3e6146106a857600080fd5b806334f730b1116103655780633dc55971116103345780633dc559711461057e5780634504ffb1146105df5780634623fdd11461062b5780634ee541e51461064057600080fd5b806334f730b11461051657806335f340751461053657806336edf14d146105495780633ca0c98f1461056957600080fd5b80632eac6360116103a15780632eac636014610490578063308bc441146104bd57806331091d7a146104d2578063338b5dea1461050157600080fd5b806306723389146103d35780630a9a910f1461041a57806315a604f4146104475780632db6cdcd1461045c575b600080fd5b3480156103df57600080fd5b506104077f000000000000000000000000000000000000000000000000000000000000000081565b6040519081526020015b60405180910390f35b34801561042657600080fd5b506104076104353660046144ec565b60096020526000908152604090205481565b34801561045357600080fd5b50610407600181565b34801561046857600080fd5b506104077f000000000000000000000000000000000000000000000000000000000000000081565b34801561049c57600080fd5b506104076104ab3660046144ec565b6000908152600a602052604090205490565b3480156104c957600080fd5b50610407610cc7565b3480156104de57600080fd5b506104f26104ed366004614521565b610cd6565b60405161041193929190614578565b61051461050f3660046145e5565b610f6b565b005b34801561052257600080fd5b5061040761053136600461461d565b6110b5565b6105146105443660046145e5565b6111fd565b34801561055557600080fd5b506104076105643660046145e5565b61131c565b34801561057557600080fd5b50610407600581565b34801561058a57600080fd5b506105c06105993660046144ec565b6000908152600c60209081526040808320546013909252909120548115159260ff90911690565b6040805193151584526020840192909252151590820152606001610411565b3480156105eb57600080fd5b506106137f000000000000000000000000000000000000000000000000000000000000000081565b6040516001600160a01b039091168152602001610411565b34801561063757600080fd5b50610407600281565b34801561064c57600080fd5b5061040761065b3660046145e5565b61134d565b61051461066e366004614699565b611369565b34801561067f57600080fd5b50610407603c81565b34801561069457600080fd5b506105146106a33660046144ec565b6115b3565b3480156106b457600080fd5b506104076106c3366004614521565b60126020526000908152604090205481565b3480156106e157600080fd5b506104076106f03660046144ec565b6000908152600c602052604090205490565b34801561070e57600080fd5b5061040760c881565b34801561072357600080fd5b506104076107323660046144ec565b600c6020526000908152604090205481565b34801561075057600080fd5b5061040761075f3660046144ec565b600a6020526000908152604090205481565b34801561077d57600080fd5b506106137f000000000000000000000000000000000000000000000000000000000000000081565b3480156107b157600080fd5b506107ba61166a565b604051610411929190614705565b3480156107d457600080fd5b5061051461179d565b3480156107e957600080fd5b506104077f000000000000000000000000000000000000000000000000000000000000000081565b34801561081d57600080fd5b5061084a61082c3660046144ec565b600e6020526000908152604090205460ff8082169161010090041682565b604080519215158352901515602083015201610411565b34801561086d57600080fd5b5061051461087c3660046145e5565b6118a0565b34801561088d57600080fd5b5061040761089c3660046144ec565b600b6020526000908152604090205481565b3480156108ba57600080fd5b506104077f000000000000000000000000000000000000000000000000000000000000000081565b6105146108f0366004614733565b611b54565b34801561090157600080fd5b5061090a611d9e565b6040516104119291906147b7565b34801561092457600080fd5b5061092d611f8d565b604051610411919061480e565b6105146109483660046145e5565b612027565b34801561095957600080fd5b506104076109683660046144ec565b600d6020526000908152604090205481565b610514610988366004614888565b6120f8565b34801561099957600080fd5b506104076109a83660046144ec565b612253565b3480156109b957600080fd5b506104076109c83660046145e5565b6122bb565b6105146109db366004614699565b6122d7565b3480156109ec57600080fd5b506104076103e881565b610514610a043660046148c4565b61263a565b348015610a1557600080fd5b506104077f000000000000000000000000000000000000000000000000000000000000000081565b348015610a4957600080fd5b50610a5d610a5836600461461d565b61287d565b60408051938452602084019290925290820152606001610411565b348015610a8457600080fd5b50610407610a933660046144ec565b60146020526000908152604090205481565b348015610ab157600080fd5b50610ac5610ac03660046144ec565b612914565b6040805196875260208701959095529385019290925260608401521515608083015260a082015260c001610411565b348015610b0057600080fd5b50610b09612960565b604051610411939291906148e6565b348015610b2457600080fd5b50610514612bac565b348015610b3957600080fd5b506104077f000000000000000000000000000000000000000000000000000000000000000081565b348015610b6d57600080fd5b50610407601981565b348015610b8257600080fd5b50610407610b9136600461491c565b612d99565b610514610ba436600461494f565b612dc0565b348015610bb557600080fd5b506104076132f1565b348015610bca57600080fd5b506104077f000000000000000000000000000000000000000000000000000000000000000081565b348015610bfe57600080fd5b50610c22610c0d3660046144ec565b60136020526000908152604090205460ff1681565b6040519015158152602001610411565b348015610c3e57600080fd5b50610407610e1081565b610514610c563660046144ec565b613485565b348015610c6757600080fd5b50610c22610c763660046144ec565b60086020526000908152604090205460ff1681565b61051461358c565b348015610c9f57600080fd5b506104077f000000000000000000000000000000000000000000000000000000000000000081565b6000610cd16132f1565b905090565b60608060606000600f6000866001600160a01b03166001600160a01b03168152602001908152602001600020805480602002602001604051908101604052809291908181526020018280548015610d4c57602002820191906000526020600020905b815481526020019060010190808311610d38575b505050506001600160a01b03871660009081526010602090815260408083208054825181850281018501909352808352959650929490935090830182828015610db457602002820191906000526020600020905b815481526020019060010190808311610da0575b50505050509050815167ffffffffffffffff811115610dd557610dd56149ad565b604051908082528060200260200182016040528015610dfe578160200160208202803683370190505b509450815167ffffffffffffffff811115610e1b57610e1b6149ad565b604051908082528060200260200182016040528015610e44578160200160208202803683370190505b509350815167ffffffffffffffff811115610e6157610e616149ad565b604051908082528060200260200182016040528015610e8a578160200160208202803683370190505b50925060005b8251811015610f6157828181518110610eab57610eab6149c3565b6020026020010151868281518110610ec557610ec56149c3565b602002602001018181525050818181518110610ee357610ee36149c3565b6020026020010151858281518110610efd57610efd6149c3565b6020026020010181815250506000838281518110610f1d57610f1d6149c3565b60200260200101519050600c600082815260200190815260200160002054858381518110610f4d57610f4d6149c3565b602090810291909101015250600101610e90565b5050509193909250565b610f73613703565b6001600160a01b038216610fa25760405162461bcd60e51b8152600401610f99906149d9565b60405180910390fd5b60008111610fe15760405162461bcd60e51b815260206004820152600c60248201526b16995c9bc819195c1bdcda5d60a21b6044820152606401610f99565b610fe961375c565b50610fff6001600160a01b038316333084613885565b806001600061100e33866138f0565b8152602080820192909252604090810160009081208054909401909355338352600482528083206001600160a01b038616845290915281205415611053576000611056565b60015b60ff1690506110658382613960565b60405182815233906001600160a01b038516907f5548c837ab068cf56a2c2479df0882a4922fd203edb7517321831d95078c5f62906020015b60405180910390a3506110b16001600055565b5050565b6000805b6007548110156111ae57600781815481106110d6576110d66149c3565b600091825260209091206004600690920201015460ff16156111a65782156111745760006007828154811061110d5761110d6149c3565b600091825260208220600260069092020101549150606461112f600184614a16565b6111399190614a43565b90506111458183614a57565b861015801561115d57506111598183614a6a565b8611155b1561116d578293505050506111f7565b50506111a6565b60078181548110611187576111876149c3565b90600052602060002090600602016001015484036111a65790506111f7565b6001016110b9565b5060405162461bcd60e51b815260206004820152601c60248201527f416d6f756e74206e6f7420666f756e6420696e20616e7920736c6f74000000006044820152606401610f99565b92915050565b611205613703565b6001600160a01b0382161580159061122657506001600160a01b0382163314155b6112425760405162461bcd60e51b8152600401610f9990614a7d565b600061124f3360006138f0565b9050600061125e8460006138f0565b60008381526001602052604090205490915083111561128f5760405162461bcd60e51b8152600401610f9990614aa8565b61129761375c565b506000828152600160205260408082208054869003905582825281208054850190556112c290613a84565b6112cd846000613c4c565b6040518381526001600160a01b0385169033906000907f77178bcf8f3c991d39734824771477a42787fe19b60d5a29c0ec72de167699b39060200160405180910390a450506110b16001600055565b6011602052816000526040600020818154811061133857600080fd5b90600052602060002001600091509150505481565b600f602052816000526040600020818154811061133857600080fd5b611371613703565b61137d84848484613d3d565b611385613e8d565b61138d61375c565b5060005b838110156114595760008585838181106113ad576113ad6149c3565b90506020020160208101906113c29190614521565b905060008484848181106113d8576113d86149c3565b90506020020135905060006113ed33846138f0565b60008181526001602052604090205490915082111561144e5760405162461bcd60e51b815260206004820152601e60248201527f496e73756666696369656e742062616c616e636520666f7220746f6b656e00006044820152606401610f99565b505050600101611391565b5060005b838110156115a2576000858583818110611479576114796149c3565b905060200201602081019061148e9190614521565b905060008484848181106114a4576114a46149c3565b90506020020135905060006114b933846138f0565b60008181526001602052604090208054849003905590506114d983613a84565b6001600160a01b03831661155557604051600090339084908381818185875af1925050503d8060008114611529576040519150601f19603f3d011682016040523d82523d6000602084013e61152e565b606091505b505090508061154f5760405162461bcd60e51b8152600401610f9990614ad6565b50611569565b6115696001600160a01b0384163384613f8e565b60405182815233906001600160a01b03851690600080516020614dc08339815191529060200160405180910390a350505060010161145d565b506115ad6001600055565b50505050565b60008181526008602052604090205460ff16156116065760405162461bcd60e51b8152602060048201526011602482015270105b1c9958591e4818dbdb5b5a5d1d1959607a1b6044820152606401610f99565b6000818152600860205260409020805460ff1916600117905561162a600243614a6a565b600082815260096020526040808220929092559051339183917f4a4b522792d78d2ce017124d38d5ffe252d55babb1975fe6d8af673a0c37258d9190a350565b600754606090819067ffffffffffffffff81111561168a5761168a6149ad565b6040519080825280602002602001820160405280156116b3578160200160208202803683370190505b5060075490925067ffffffffffffffff8111156116d2576116d26149ad565b6040519080825280602002602001820160405280156116fb578160200160208202803683370190505b50905060005b600754811015611798576007818154811061171e5761171e6149c3565b906000526020600020906006020160020154838281518110611742576117426149c3565b60200260200101818152505060078181548110611761576117616149c3565b906000526020600020906006020160010154828281518110611785576117856149c3565b6020908102919091010152600101611701565b509091565b60005b60075481101561189d57600781815481106117bd576117bd6149c3565b600091825260209091206004600690920201015460ff1680156118115750610e10600782815481106117f1576117f16149c3565b90600052602060002090600602016005015461180d9190614a6a565b4210155b15611895576118436007828154811061182c5761182c6149c3565b906000526020600020906006020160010154613fbe565b60078281548110611856576118566149c3565b906000526020600020906006020160020181905550426007828154811061187f5761187f6149c3565b9060005260206000209060060201600501819055505b6001016117a0565b50565b6000818152600c6020526040902054600211156118ff5760405162461bcd60e51b815260206004820152601a60248201527f496e73756666696369656e74206d6978696e6720726f756e64730000000000006044820152606401610f99565b60008181526013602052604090205460ff16156119595760405162461bcd60e51b815260206004820152601860248201527710dbdb5b5a5d1b595b9d08185b1c9958591e481cdc195b9d60421b6044820152606401610f99565b6000818152600a602052604090205461197390603c614a16565b6000828152600b602052604090205461198c9190614a6a565b4210156119cb5760405162461bcd60e51b815260206004820152600d60248201526c11195b185e481b9bdd081b595d609a1b6044820152606401610f99565b6000818152601360205260408120805460ff191660011790556119ed82614137565b6000838152600e6020908152604080832081518083019092525460ff80821615158352610100909104161515918101829052929350611a4c577f0000000000000000000000000000000000000000000000000000000000000000611a4f565b60005b9050816020015115611ad4576000856001600160a01b03168460405160006040518083038185875af1925050503d8060008114611aa8576040519150601f19603f3d011682016040523d82523d6000602084013e611aad565b606091505b5050905080611ace5760405162461bcd60e51b8152600401610f9990614ad6565b50611b08565b611b086001600160a01b037f0000000000000000000000000000000000000000000000000000000000000000168685613f8e565b611b12338561420a565b846001600160a01b0316816001600160a01b0316600080516020614dc083398151915285604051611b4591815260200190565b60405180910390a35050505050565b611b5c613703565b6001600160a01b03831615801590611b7d57506001600160a01b0383163314155b611b995760405162461bcd60e51b8152600401610f9990614a7d565b611ba585858484613d3d565b611bad613e8d565b611bb561375c565b5060005b84811015611c81576000868683818110611bd557611bd56149c3565b9050602002016020810190611bea9190614521565b90506000848484818110611c0057611c006149c3565b9050602002013590506000611c1533846138f0565b600081815260016020526040902054909150821115611c765760405162461bcd60e51b815260206004820152601e60248201527f496e73756666696369656e742062616c616e636520666f7220746f6b656e00006044820152606401610f99565b505050600101611bb9565b5060005b84811015611d8c576000868683818110611ca157611ca16149c3565b9050602002016020810190611cb69190614521565b90506000848484818110611ccc57611ccc6149c3565b9050602002013590506000611ce133846138f0565b90506000611cef88856138f0565b6000838152600160205260408082208054879003905582825290208054850190559050611d1b84613a84565b611d258885613c4c565b876001600160a01b0316336001600160a01b0316856001600160a01b03167f77178bcf8f3c991d39734824771477a42787fe19b60d5a29c0ec72de167699b386604051611d7491815260200190565b60405180910390a4505060019092019150611c859050565b50611d976001600055565b5050505050565b336000908152600360205260408120606091829190805b8254811015611e1d57600060016000611df433878681548110611dda57611dda6149c3565b6000918252602090912001546001600160a01b03166138f0565b8152602001908152602001600020541115611e1557611e1282614b03565b91505b600101611db5565b508067ffffffffffffffff811115611e3757611e376149ad565b604051908082528060200260200182016040528015611e60578160200160208202803683370190505b5093508067ffffffffffffffff811115611e7c57611e7c6149ad565b604051908082528060200260200182016040528015611ea5578160200160208202803683370190505b5092506000805b8354811015611f8557600060016000611ed133888681548110611dda57611dda6149c3565b815260200190815260200160002054905080600003611ef05750611f7d565b848281548110611f0257611f026149c3565b9060005260206000200160009054906101000a90046001600160a01b0316878481518110611f3257611f326149c3565b60200260200101906001600160a01b031690816001600160a01b03168152505080868481518110611f6557611f656149c3565b6020908102919091010152611f7983614b03565b9250505b600101611eac565b505050509091565b60606007805480602002602001604051908101604052809291908181526020016000905b8282101561201e5760008481526020908190206040805160c08101825260068602909201805483526001808201548486015260028201549284019290925260038101546060840152600481015460ff16151560808401526005015460a08301529083529092019101611fb1565b50505050905090565b61202f613703565b6001600160a01b0382166120555760405162461bcd60e51b8152600401610f99906149d9565b600061206133846138f0565b6000818152600160205260409020549091508211156120925760405162461bcd60e51b8152600401610f9990614aa8565b61209a61375c565b506000818152600160205260409020805483900390556120b983613a84565b6120cd6001600160a01b0384163384613f8e565b60405182815233906001600160a01b03851690600080516020614dc08339815191529060200161109e565b612100613703565b6001600160a01b0383166121265760405162461bcd60e51b8152600401610f99906149d9565b6001600160a01b0382161580159061214757506001600160a01b0382163314155b6121635760405162461bcd60e51b8152600401610f9990614a7d565b600061216f33856138f0565b9050600061217d84866138f0565b6000838152600160205260409020549091508311156121ae5760405162461bcd60e51b8152600401610f9990614aa8565b6121b661375c565b506000828152600160205260408082208054869003905582825290208054840190556121e185613a84565b6121eb8486613c4c565b836001600160a01b0316336001600160a01b0316866001600160a01b03167f77178bcf8f3c991d39734824771477a42787fe19b60d5a29c0ec72de167699b38660405161223a91815260200190565b60405180910390a4505061224e6001600055565b505050565b60408051602080820184905242828401524460608084019190915283518084039091018152608090920190925280519101206000906001612295816005614a57565b6122a0906001614a6a565b6122aa9083614b1c565b6122b49190614a6a565b9392505050565b6010602052816000526040600020818154811061133857600080fd5b6122df613703565b6122eb84848484613d3d565b6122f3613e8d565b60006122fd6132f1565b90506000805b8581101561237157600087878381811061231f5761231f6149c3565b90506020020160208101906123349190614521565b6001600160a01b03160361236957848482818110612354576123546149c3565b90506020020135826123669190614a6a565b91505b600101612303565b5061237c8183614a6a565b3410156123c35760405162461bcd60e51b8152602060048201526015602482015274125b9cdd59999a58da595b9d08115512081cd95b9d605a1b6044820152606401610f99565b81600260006123f37f000000000000000000000000000000000000000000000000000000000000000060006138f0565b815260200190815260200160002060008282546124109190614a6a565b90915550600090506124228284614a6a565b61242c9034614a57565b9050801561249e57604051600090339083908381818185875af1925050503d8060008114612476576040519150601f19603f3d011682016040523d82523d6000602084013e61247b565b606091505b505090508061249c5760405162461bcd60e51b8152600401610f9990614b30565b505b6000805b8781101561262b5760008989838181106124be576124be6149c3565b90506020020160208101906124d39190614521565b905060008888848181106124e9576124e96149c3565b60200291909101359150506001600160a01b0382166125665780600160006125123360006138f0565b8152602080820192909252604090810160009081208054909401909355338352600482528083208380529091528120549003612556578361255281614b03565b9450505b612561600085613960565b6125e1565b61257b6001600160a01b038316333084613885565b806001600061258a33866138f0565b8152602080820192909252604090810160009081208054909401909355338352600482528083206001600160a01b038616845290915281205490036125d757836125d381614b03565b9450505b6125e18285613960565b60405181815233906001600160a01b038416907f5548c837ab068cf56a2c2479df0882a4922fd203edb7517321831d95078c5f629060200160405180910390a350506001016124a2565b50505050506115ad6001600055565b61264261375c565b506000828152600c6020526040902054600111156126995760405162461bcd60e51b815260206004820152601460248201527310dbdb5b5a5d1b595b9d081b9bdd08199bdd5b9960621b6044820152606401610f99565b6000828152600c60205260409020546005116126ec5760405162461bcd60e51b815260206004820152601260248201527113585e081c9bdd5b991cc81c995858da195960721b6044820152606401610f99565b60008281526013602052604090205460ff16156127465760405162461bcd60e51b815260206004820152601860248201527710dbdb5b5a5d1b595b9d08185b1c9958591e481cdc195b9d60421b6044820152606401610f99565b6000828152600c6020526040902054612760906001614a6a565b6000828152600c60208181526040808420948555868452600d8252808420869055601482528084205486855281852055868452600e80835281852082518084018452905460ff808216151583526101009182900416151582860190815284518086018652835115158152905115158187019081528a895293865284882090518154945161ffff1990951690151561ff0019161793151590910292909217909155878552600b83528185205487865282862055878552600a8352818520548786528286205587855260138352818520805460ff1916600117905593869052918152925490519081529091839185917f025289aa41dfa55d8866dc70acdc7ad0e6f119776123794b55e4533c9571bd93910160405180910390a3505050565b60008060008061288d86866110b5565b90506000600782815481106128a4576128a46149c3565b60009182526020918290206040805160c08101825260069390930290910180548084526001820154948401859052600282015492840183905260038201546060850152600482015460ff161515608085015260059091015460a09093019290925290999198509650945050505050565b6007818154811061292457600080fd5b60009182526020909120600690910201805460018201546002830154600384015460048501546005909501549395509193909260ff9091169086565b606080600060078054905067ffffffffffffffff811115612983576129836149ad565b6040519080825280602002602001820160405280156129ac578160200160208202803683370190505b5060075490935067ffffffffffffffff8111156129cb576129cb6149ad565b6040519080825280602002602001820160405280156129f4578160200160208202803683370190505b50915060007f00000000000000000000000000000000000000000000000000000000000000006001600160a01b031663feaf968c6040518163ffffffff1660e01b815260040160a060405180830381865afa158015612a57573d6000803e3d6000fd5b505050506040513d601f19601f82011682018060405250810190612a7b9190614b81565b50505091505060007f00000000000000000000000000000000000000000000000000000000000000006001600160a01b031663313ce5676040518163ffffffff1660e01b8152600401602060405180830381865afa158015612ae1573d6000803e3d6000fd5b505050506040513d601f19601f82011682018060405250810190612b059190614bd1565b905081925060005b600754811015612ba45760078181548110612b2a57612b2a6149c3565b906000526020600020906006020160020154868281518110612b4e57612b4e6149c3565b60200260200101818152505060078181548110612b6d57612b6d6149c3565b906000526020600020906006020160010154858281518110612b9157612b916149c3565b6020908102919091010152600101612b0d565b505050909192565b612bb4613703565b336001600160a01b037f00000000000000000000000000000000000000000000000000000000000000001614612c1d5760405162461bcd60e51b815260206004820152600e60248201526d139bdd08185d5d1a1bdc9a5e995960921b6044820152606401610f99565b6000612c4a7f000000000000000000000000000000000000000000000000000000000000000060006138f0565b60008181526002602052604090205490915080612c935760405162461bcd60e51b81526020600482015260076024820152664e6f206665657360c81b6044820152606401610f99565b600082815260026020526040808220829055517f00000000000000000000000000000000000000000000000000000000000000006001600160a01b03169083908381818185875af1925050503d8060008114612d0b576040519150601f19603f3d011682016040523d82523d6000602084013e612d10565b606091505b5050905080612d575760405162461bcd60e51b8152602060048201526013602482015272119959481d1c985b9cd9995c8819985a5b1959606a1b6044820152606401610f99565b6040518281527f860c0aa5520013080c2f65981705fcdea474d9f7c3daf954656ed5e65d692d1f9060200160405180910390a1505050612d976001600055565b565b600060016000612da985856138f0565b815260200190815260200160002054905092915050565b60408051602081018890529081018690526060810185905260009060800160408051601f1981840301815291815281516020928301206000818152600890935291205490915060ff16612e4d5760405162461bcd60e51b815260206004820152601560248201527411195c1bdcda5d081b9bdd0818dbdb5b5a5d1d1959605a1b6044820152606401610f99565b600081815260096020526040902054431015612ea25760405162461bcd60e51b815260206004820152601460248201527314995d99585b0819195b185e481b9bdd081b595d60621b6044820152606401610f99565b6000612eae88856110b5565b6007549091508110612ef85760405162461bcd60e51b8152602060048201526013602482015272416d6f756e74206f7574206f662072616e676560681b6044820152606401610f99565b83156130045787341015612f465760405162461bcd60e51b8152602060048201526015602482015274125b9cdd59999a58da595b9d08115512081cd95b9d605a1b6044820152606401610f99565b8760078281548110612f5a57612f5a6149c3565b90600052602060002090600602016003016000828254612f7a9190614a6a565b9091555060009050612f8c8934614a57565b90508015612ffe57604051600090339083908381818185875af1925050503d8060008114612fd6576040519150601f19603f3d011682016040523d82523d6000602084013e612fdb565b606091505b5050905080612ffc5760405162461bcd60e51b8152600401610f9990614b30565b505b50613112565b6130396001600160a01b037f00000000000000000000000000000000000000000000000000000000000000001633308b613885565b876007828154811061304d5761304d6149c3565b9060005260206000209060060201600301600082825461306d9190614a6a565b9091555050341561311257604051600090339034908381818185875af1925050503d80600081146130ba576040519150601f19603f3d011682016040523d82523d6000602084013e6130bf565b606091505b50509050806131105760405162461bcd60e51b815260206004820152601c60248201527f556e65787065637465642045544820726566756e64206661696c6564000000006044820152606401610f99565b505b841561318e57336000818152600f60209081526040808320805460018181018355918552838520018a90558484526010835281842080548083018255908552838520018d905584845260118352818420805491820181558452828420429101559282526012905290812080549161318883614b03565b91905055505b60008781526014602052604081208990556131a888612253565b6000898152600a60209081526040808320849055600b90915290204290559050836131d45760006131d7565b60015b6000898152600c6020908152604080832060ff949094169093558251808401845287151581528815158183019081528c8452600e83529284902090518154935161ffff1990941690151561ff00191617610100931515939093029290921790915581518b815290810184905289917f1fcf7f46dba396b83b4a9c469d76647f8b7a57f7505ecbc33f3c8a890e0ac11f910160405180910390a2877f3d39167f7c070be30407071904a00c9f2646f3d4103f0f0090518e6752c806d2826040516132a291815260200190565b60405180910390a2877f77236f317b1df79b4973432772e02eb4adc90d82fb3a8bebdd5b92f386886179856040516132de911515815260200190565b60405180910390a2505050505050505050565b6000807f00000000000000000000000000000000000000000000000000000000000000006001600160a01b031663feaf968c6040518163ffffffff1660e01b815260040160a060405180830381865afa158015613352573d6000803e3d6000fd5b505050506040513d601f19601f820116820180604052508101906133769190614b81565b505050915050600081136133bc5760405162461bcd60e51b815260206004820152600d60248201526c496e76616c696420707269636560981b6044820152606401610f99565b60007f00000000000000000000000000000000000000000000000000000000000000006001600160a01b031663313ce5676040518163ffffffff1660e01b8152600401602060405180830381865afa15801561341c573d6000803e3d6000fd5b505050506040513d601f19601f820116820180604052508101906134409190614bd1565b905060006002613451836012614bf4565b61345b9190614c0d565b61346690600a614d0a565b61347190600a614a16565b905061347d8382614a43565b935050505090565b61348d613703565b600061349a3360006138f0565b6000818152600160205260409020549091508211156134cb5760405162461bcd60e51b8152600401610f9990614aa8565b6134d361375c565b506000818152600160205260408120805484900390556134f290613a84565b604051600090339084908381818185875af1925050503d8060008114613534576040519150601f19603f3d011682016040523d82523d6000602084013e613539565b606091505b505090508061355a5760405162461bcd60e51b8152600401610f9990614ad6565b6040518381523390600090600080516020614dc08339815191529060200160405180910390a3505061189d6001600055565b613594613703565b600034116135d35760405162461bcd60e51b815260206004820152600c60248201526b16995c9bc819195c1bdcda5d60a21b6044820152606401610f99565b60006135dd6132f1565b90508034116136275760405162461bcd60e51b8152602060048201526016602482015275416d6f756e74206d757374206578636565642066656560501b6044820152606401610f99565b60006136338234614a57565b905080600160006136453360006138f0565b81526020019081526020016000206000828254019250508190555081600260006136907f000000000000000000000000000000000000000000000000000000000000000060006138f0565b815260200190815260200160002060008282546136ad9190614a6a565b909155506136bf905060006001613960565b60405181815233906000907f5548c837ab068cf56a2c2479df0882a4922fd203edb7517321831d95078c5f629060200160405180910390a35050612d976001600055565b6002600054036137555760405162461bcd60e51b815260206004820152601f60248201527f5265656e7472616e637947756172643a207265656e7472616e742063616c6c006044820152606401610f99565b6002600055565b60006137666132f1565b9050803410156137b05760405162461bcd60e51b8152602060048201526015602482015274125b9cdd59999a58da595b9d08199959481cd95b9d605a1b6044820152606401610f99565b80600260006137e07f000000000000000000000000000000000000000000000000000000000000000060006138f0565b815260200190815260200160002060008282546137fd9190614a6a565b909155506000905061380f8234614a57565b9050801561388157604051600090339083908381818185875af1925050503d8060008114613859576040519150601f19603f3d011682016040523d82523d6000602084013e61385e565b606091505b505090508061387f5760405162461bcd60e51b8152600401610f9990614b30565b505b5090565b6040516001600160a01b03808516602483015283166044820152606481018290526115ad9085906323b872dd60e01b906084015b60408051601f198184030181529190526020810180516001600160e01b03166001600160e01b0319909316929092179091526142c6565b6040516bffffffffffffffffffffffff19606084811b8216602084015283901b1660348201527f0000000000000000000000000000000000000000000000000000000000000000604882015260009060680160405160208183030381529060405280519060200120905092915050565b3360009081526004602090815260408083206001600160a01b03861684529091529020541561398d575050565b60058111156139de5760405162461bcd60e51b815260206004820152601960248201527f546f6f206d616e79206e657720746f6b656e7320696e207478000000000000006044820152606401610f99565b3360009081526003602052604090205460c811613a2f5760405162461bcd60e51b815260206004820152600f60248201526e151bdad95b881b1a5cdd08199d5b1b608a1b6044820152606401610f99565b5033600081815260036020908152604080832080546001810182558185528385200180546001600160a01b0319166001600160a01b039790971696871790559383529254600482528383209483529390522055565b6000613a9033836138f0565b60008181526001602052604090205490915015613aab575050565b6000818152600160209081526040808320839055338352600482528083206001600160a01b038616845290915281205490819003613ae857505050565b6000613af5600183614a57565b336000908152600360205260408120805492935091613b1690600190614a57565b9050808314613bc3576000828281548110613b3357613b336149c3565b9060005260206000200160009054906101000a90046001600160a01b0316905080838581548110613b6657613b666149c3565b600091825260209091200180546001600160a01b0319166001600160a01b0392909216919091179055613b9a846001614a6a565b3360009081526004602090815260408083206001600160a01b0395909516835293905291909120555b81805480613bd357613bd3614d19565b60008281526020808220830160001990810180546001600160a01b0319169055909201909255338083526004825260408084206001600160a01b038b16808652935280842084905551919290917fc22c253b62e9da4c0305122d8496f21c2563c5a88882c1f4b0ac0ce41e1fc3c39190a3505050505050565b6001600160a01b0380831660009081526004602090815260408083209385168352929052205415613c7b575050565b6001600160a01b03821660009081526003602052604090205460c811613ce35760405162461bcd60e51b815260206004820152601960248201527f526563697069656e7420746f6b656e206c6973742066756c6c000000000000006044820152606401610f99565b6001600160a01b03918216600081815260036020908152604080832080546001810182558185528385200180546001600160a01b031916969097169586179096559282529354600485528282209382529290935290912055565b8215801590613d4d575060198311155b613d8f5760405162461bcd60e51b8152602060048201526013602482015272125b9d985b1a59081d1bdad95b8818dbdd5b9d606a1b6044820152606401610f99565b828114613dd65760405162461bcd60e51b8152602060048201526015602482015274082e4e4c2f240d8cadccee8d040dad2e6dac2e8c6d605b1b6044820152606401610f99565b60005b81811015613e51576000838383818110613df557613df56149c3565b9050602002013511613e495760405162461bcd60e51b815260206004820152601760248201527f5a65726f20616d6f756e74206e6f7420616c6c6f7765640000000000000000006044820152606401610f99565b600101613dd9565b5060405183815233907fc4df2a04c73f2781174ba40c1f910e682e25b95ce168688240cb7eb984b790149060200160405180910390a250505050565b336000908152600660205260409020544290613eab90603c90614a6a565b8110613ed157336000908152600560209081526040808320839055600690915290208190555b336000908152600560205260409020546103e811613f6b57336000818152600560209081526040918290205491519182527fa7382e9b0f37a34b8c7659176b27a0e82d2fb18f6eb6472b63d78ec4b498c4e5910160405180910390a260405162461bcd60e51b815260206004820152601360248201527214985d19481b1a5b5a5d08195e18d959591959606a1b6044820152606401610f99565b336000908152600560205260408120805491613f8683614b03565b919050555050565b6040516001600160a01b03831660248201526044810182905261224e90849063a9059cbb60e01b906064016138b9565b6000807f00000000000000000000000000000000000000000000000000000000000000006001600160a01b031663feaf968c6040518163ffffffff1660e01b815260040160a060405180830381865afa15801561401f573d6000803e3d6000fd5b505050506040513d601f19601f820116820180604052508101906140439190614b81565b505050915050600081136140895760405162461bcd60e51b815260206004820152600d60248201526c496e76616c696420707269636560981b6044820152606401610f99565b60007f00000000000000000000000000000000000000000000000000000000000000006001600160a01b031663313ce5676040518163ffffffff1660e01b8152600401602060405180830381865afa1580156140e9573d6000803e3d6000fd5b505050506040513d601f19601f8201168201806040525081019061410d9190614bd1565b90508161411b82600a614d0a565b6141259086614a16565b61412f9190614a43565b949350505050565b60008181526014602052604081205480156141525792915050565b336000908152600f602090815260408083206010909252822090915b82548110156141ca578583828154811061418a5761418a6149c3565b9060005260206000200154036141c2578181815481106141ac576141ac6149c3565b9060005260206000200154945050505050919050565b60010161416e565b5060405162461bcd60e51b815260206004820152601460248201527310dbdb5b5a5d1b595b9d081b9bdd08199bdd5b9960621b6044820152606401610f99565b6001600160a01b0382166000908152600f6020526040812061422b916144be565b6001600160a01b038216600090815260106020526040812061424c916144be565b6001600160a01b038216600090815260116020526040812061426d916144be565b6001600160a01b03821660008181526012602052604080822091909155517f076c3c473bce28c0787e8e9de61fb7a62e8e828ffbab62269181d1b4cbac718e906142ba9084815260200190565b60405180910390a25050565b600061431b826040518060400160405280602081526020017f5361666545524332303a206c6f772d6c6576656c2063616c6c206661696c6564815250856001600160a01b031661439b9092919063ffffffff16565b905080516000148061433c57508080602001905181019061433c9190614d2f565b61224e5760405162461bcd60e51b815260206004820152602a60248201527f5361666545524332303a204552433230206f7065726174696f6e20646964206e6044820152691bdd081cdd58d8d9595960b21b6064820152608401610f99565b606061412f848460008585600080866001600160a01b031685876040516143c29190614d70565b60006040518083038185875af1925050503d80600081146143ff576040519150601f19603f3d011682016040523d82523d6000602084013e614404565b606091505b509150915061441587838387614420565b979650505050505050565b6060831561448f578251600003614488576001600160a01b0385163b6144885760405162461bcd60e51b815260206004820152601d60248201527f416464726573733a2063616c6c20746f206e6f6e2d636f6e74726163740000006044820152606401610f99565b508161412f565b61412f83838151156144a45781518083602001fd5b8060405162461bcd60e51b8152600401610f999190614d8c565b508054600082559060005260206000209081019061189d91905b8082111561388157600081556001016144d8565b6000602082840312156144fe57600080fd5b5035919050565b80356001600160a01b038116811461451c57600080fd5b919050565b60006020828403121561453357600080fd5b6122b482614505565b60008151808452602080850194506020840160005b8381101561456d57815187529582019590820190600101614551565b509495945050505050565b606080825284519082018190526000906020906080840190828801845b828110156145b157815184529284019290840190600101614595565b50505083810360208501526145c6818761453c565b91505082810360408401526145db818561453c565b9695505050505050565b600080604083850312156145f857600080fd5b61460183614505565b946020939093013593505050565b801515811461189d57600080fd5b6000806040838503121561463057600080fd5b8235915060208301356146428161460f565b809150509250929050565b60008083601f84011261465f57600080fd5b50813567ffffffffffffffff81111561467757600080fd5b6020830191508360208260051b850101111561469257600080fd5b9250929050565b600080600080604085870312156146af57600080fd5b843567ffffffffffffffff808211156146c757600080fd5b6146d38883890161464d565b909650945060208701359150808211156146ec57600080fd5b506146f98782880161464d565b95989497509550505050565b604081526000614718604083018561453c565b828103602084015261472a818561453c565b95945050505050565b60008060008060006060868803121561474b57600080fd5b853567ffffffffffffffff8082111561476357600080fd5b61476f89838a0161464d565b909750955085915061478360208901614505565b9450604088013591508082111561479957600080fd5b506147a68882890161464d565b969995985093965092949392505050565b604080825283519082018190526000906020906060840190828701845b828110156147f95781516001600160a01b0316845292840192908401906001016147d4565b50505083810360208501526145db818661453c565b602080825282518282018190526000919060409081850190868401855b8281101561487b57815180518552868101518786015285810151868601526060808201519086015260808082015115159086015260a0908101519085015260c0909301929085019060010161482b565b5091979650505050505050565b60008060006060848603121561489d57600080fd5b6148a684614505565b92506148b460208501614505565b9150604084013590509250925092565b600080604083850312156148d757600080fd5b50508035926020909101359150565b6060815260006148f9606083018661453c565b828103602084015261490b818661453c565b915050826040830152949350505050565b6000806040838503121561492f57600080fd5b61493883614505565b915061494660208401614505565b90509250929050565b60008060008060008060c0878903121561496857600080fd5b86359550602087013594506040870135935060608701359250608087013561498f8161460f565b915060a087013561499f8161460f565b809150509295509295509295565b634e487b7160e01b600052604160045260246000fd5b634e487b7160e01b600052603260045260246000fd5b6020808252600d908201526c24b73b30b634b2103a37b5b2b760991b604082015260600190565b634e487b7160e01b600052601160045260246000fd5b80820281158282048414176111f7576111f7614a00565b634e487b7160e01b600052601260045260246000fd5b600082614a5257614a52614a2d565b500490565b818103818111156111f7576111f7614a00565b808201808211156111f7576111f7614a00565b602080825260119082015270125b9d985b1a59081c9958da5c1a595b9d607a1b604082015260600190565b602080825260149082015273496e73756666696369656e742062616c616e636560601b604082015260600190565b602080825260139082015272115512081d1c985b9cd9995c8819985a5b1959606a1b604082015260600190565b600060018201614b1557614b15614a00565b5060010190565b600082614b2b57614b2b614a2d565b500690565b60208082526018908201527f4578636573732045544820726566756e64206661696c65640000000000000000604082015260600190565b805169ffffffffffffffffffff8116811461451c57600080fd5b600080600080600060a08688031215614b9957600080fd5b614ba286614b67565b9450602086015193506040860151925060608601519150614bc560808701614b67565b90509295509295909350565b600060208284031215614be357600080fd5b815160ff811681146122b457600080fd5b60ff81811683821601908111156111f7576111f7614a00565b60ff82811682821603908111156111f7576111f7614a00565b600181815b80851115614c61578160001904821115614c4757614c47614a00565b80851615614c5457918102915b93841c9390800290614c2b565b509250929050565b600082614c78575060016111f7565b81614c85575060006111f7565b8160018114614c9b5760028114614ca557614cc1565b60019150506111f7565b60ff841115614cb657614cb6614a00565b50506001821b6111f7565b5060208310610133831016604e8410600b8410161715614ce4575081810a6111f7565b614cee8383614c26565b8060001904821115614d0257614d02614a00565b029392505050565b60006122b460ff841683614c69565b634e487b7160e01b600052603160045260246000fd5b600060208284031215614d4157600080fd5b81516122b48161460f565b60005b83811015614d67578181015183820152602001614d4f565b50506000910152565b60008251614d82818460208701614d4c565b9190910192915050565b6020815260008251806020840152614dab816040850160208701614d4c565b601f01601f1916919091016040019291505056fe9b1bfa7fa9ee420a16e124f794c35ac9f90472acc99140eb2f6447c714cad8eba26469706673582212209ef8535e9fcce8c1bc107f01e80a5d688ab22bdba5b0e6f23e61f9c88c211d0464736f6c63430008170033",
  "linkReferences": {},
  "deployedLinkReferences": {}
}