{
  "_format": "hh-sol-artifact-1",
  "contractName": "CrossChainBank8",
  "sourceName": "contracts/CrossChainBank8.sol",
  "abi": [
    {
      "inputs": [
        {
          "internalType": "address",
          "name": "_feeCollector",
          "type": "address"
        },
        {
          "internalType": "bytes32",
          "name": "_salt",
          "type": "bytes32"
        },
        {
          "internalType": "address",
          "name": "_priceFeed",
          "type": "address"
        }
      ],
      "stateMutability": "nonpayable",
      "type": "constructor"
    },
    {
      "anonymous": false,
      "inputs": [
        {
          "indexed": true,
          "internalType": "address",
          "name": "user",
          "type": "address"
        },
        {
          "indexed": false,
          "internalType": "uint256",
          "name": "tokenCount",
          "type": "uint256"
        }
      ],
      "name": "BatchOperation",
      "type": "event"
    },
    {
      "anonymous": false,
      "inputs": [
        {
          "indexed": true,
          "internalType": "address",
          "name": "token",
          "type": "address"
        },
        {
          "indexed": true,
          "internalType": "address",
          "name": "user",
          "type": "address"
        },
        {
          "indexed": false,
          "internalType": "uint256",
          "name": "amount",
          "type": "uint256"
        }
      ],
      "name": "Deposit",
      "type": "event"
    },
    {
      "anonymous": false,
      "inputs": [
        {
          "indexed": false,
          "internalType": "uint256",
          "name": "amount",
          "type": "uint256"
        }
      ],
      "name": "FeesCollected",
      "type": "event"
    },
    {
      "anonymous": false,
      "inputs": [
        {
          "indexed": true,
          "internalType": "address",
          "name": "token",
          "type": "address"
        },
        {
          "indexed": true,
          "internalType": "address",
          "name": "from",
          "type": "address"
        },
        {
          "indexed": true,
          "internalType": "address",
          "name": "to",
          "type": "address"
        },
        {
          "indexed": false,
          "internalType": "uint256",
          "name": "amount",
          "type": "uint256"
        }
      ],
      "name": "InternalTransfer",
      "type": "event"
    },
    {
      "anonymous": false,
      "inputs": [
        {
          "indexed": true,
          "internalType": "address",
          "name": "user",
          "type": "address"
        },
        {
          "indexed": false,
          "internalType": "uint256",
          "name": "count",
          "type": "uint256"
        }
      ],
      "name": "RateLimitExceeded",
      "type": "event"
    },
    {
      "anonymous": false,
      "inputs": [
        {
          "indexed": true,
          "internalType": "address",
          "name": "user",
          "type": "address"
        },
        {
          "indexed": true,
          "internalType": "address",
          "name": "token",
          "type": "address"
        }
      ],
      "name": "TokenPruned",
      "type": "event"
    },
    {
      "anonymous": false,
      "inputs": [
        {
          "indexed": true,
          "internalType": "address",
          "name": "token",
          "type": "address"
        },
        {
          "indexed": true,
          "internalType": "address",
          "name": "user",
          "type": "address"
        },
        {
          "indexed": false,
          "internalType": "uint256",
          "name": "amount",
          "type": "uint256"
        }
      ],
      "name": "Withdraw",
      "type": "event"
    },
    {
      "inputs": [],
      "name": "MAX_BATCH_SIZE",
      "outputs": [
        {
          "internalType": "uint256",
          "name": "",
          "type": "uint256"
        }
      ],
      "stateMutability": "view",
      "type": "function"
    },
    {
      "inputs": [],
      "name": "MAX_NEW_TOKENS_PER_TX",
      "outputs": [
        {
          "internalType": "uint256",
          "name": "",
          "type": "uint256"
        }
      ],
      "stateMutability": "view",
      "type": "function"
    },
    {
      "inputs": [],
      "name": "MAX_TOKENS_PER_USER",
      "outputs": [
        {
          "internalType": "uint256",
          "name": "",
          "type": "uint256"
        }
      ],
      "stateMutability": "view",
      "type": "function"
    },
    {
      "inputs": [],
      "name": "MAX_TRANSACTIONS_PER_MINUTE",
      "outputs": [
        {
          "internalType": "uint256",
          "name": "",
          "type": "uint256"
        }
      ],
      "stateMutability": "view",
      "type": "function"
    },
    {
      "inputs": [],
      "name": "RATE_LIMIT_WINDOW_MINUTE",
      "outputs": [
        {
          "internalType": "uint256",
          "name": "",
          "type": "uint256"
        }
      ],
      "stateMutability": "view",
      "type": "function"
    },
    {
      "inputs": [],
      "name": "_getDynamicFeeInWei",
      "outputs": [
        {
          "internalType": "uint256",
          "name": "",
          "type": "uint256"
        }
      ],
      "stateMutability": "view",
      "type": "function"
    },
    {
      "inputs": [],
      "name": "collectFees",
      "outputs": [],
      "stateMutability": "nonpayable",
      "type": "function"
    },
    {
      "inputs": [],
      "name": "depositETH",
      "outputs": [],
      "stateMutability": "payable",
      "type": "function"
    },
    {
      "inputs": [
        {
          "internalType": "address[]",
          "name": "tokens",
          "type": "address[]"
        },
        {
          "internalType": "uint256[]",
          "name": "amounts",
          "type": "uint256[]"
        }
      ],
      "name": "depositMultipleTokens",
      "outputs": [],
      "stateMutability": "payable",
      "type": "function"
    },
    {
      "inputs": [
        {
          "internalType": "address",
          "name": "token",
          "type": "address"
        },
        {
          "internalType": "uint256",
          "name": "amount",
          "type": "uint256"
        }
      ],
      "name": "depositToken",
      "outputs": [],
      "stateMutability": "payable",
      "type": "function"
    },
    {
      "inputs": [
        {
          "internalType": "address",
          "name": "user",
          "type": "address"
        },
        {
          "internalType": "address",
          "name": "token",
          "type": "address"
        }
      ],
      "name": "getBalance",
      "outputs": [
        {
          "internalType": "uint256",
          "name": "",
          "type": "uint256"
        }
      ],
      "stateMutability": "view",
      "type": "function"
    },
    {
      "inputs": [],
      "name": "getCurrentFeeInWei",
      "outputs": [
        {
          "internalType": "uint256",
          "name": "",
          "type": "uint256"
        }
      ],
      "stateMutability": "view",
      "type": "function"
    },
    {
      "inputs": [],
      "name": "getMyVaultedTokens",
      "outputs": [
        {
          "internalType": "address[]",
          "name": "tokens",
          "type": "address[]"
        },
        {
          "internalType": "uint256[]",
          "name": "balances",
          "type": "uint256[]"
        }
      ],
      "stateMutability": "view",
      "type": "function"
    },
    {
      "inputs": [],
      "name": "priceFeed",
      "outputs": [
        {
          "internalType": "contract AggregatorV3Interface",
          "name": "",
          "type": "address"
        }
      ],
      "stateMutability": "view",
      "type": "function"
    },
    {
      "inputs": [
        {
          "internalType": "address",
          "name": "to",
          "type": "address"
        },
        {
          "internalType": "uint256",
          "name": "amount",
          "type": "uint256"
        }
      ],
      "name": "transferInternalETH",
      "outputs": [],
      "stateMutability": "payable",
      "type": "function"
    },
    {
      "inputs": [
        {
          "internalType": "address",
          "name": "token",
          "type": "address"
        },
        {
          "internalType": "address",
          "name": "to",
          "type": "address"
        },
        {
          "internalType": "uint256",
          "name": "amount",
          "type": "uint256"
        }
      ],
      "name": "transferInternalToken",
      "outputs": [],
      "stateMutability": "payable",
      "type": "function"
    },
    {
      "inputs": [
        {
          "internalType": "address[]",
          "name": "tokens",
          "type": "address[]"
        },
        {
          "internalType": "address",
          "name": "to",
          "type": "address"
        },
        {
          "internalType": "uint256[]",
          "name": "amounts",
          "type": "uint256[]"
        }
      ],
      "name": "transferMultipleTokensInternal",
      "outputs": [],
      "stateMutability": "payable",
      "type": "function"
    },
    {
      "inputs": [
        {
          "internalType": "uint256",
          "name": "amount",
          "type": "uint256"
        }
      ],
      "name": "withdrawETH",
      "outputs": [],
      "stateMutability": "payable",
      "type": "function"
    },
    {
      "inputs": [
        {
          "internalType": "address[]",
          "name": "tokens",
          "type": "address[]"
        },
        {
          "internalType": "uint256[]",
          "name": "amounts",
          "type": "uint256[]"
        }
      ],
      "name": "withdrawMultipleTokens",
      "outputs": [],
      "stateMutability": "payable",
      "type": "function"
    },
    {
      "inputs": [
        {
          "internalType": "address",
          "name": "token",
          "type": "address"
        },
        {
          "internalType": "uint256",
          "name": "amount",
          "type": "uint256"
        }
      ],
      "name": "withdrawToken",
      "outputs": [],
      "stateMutability": "payable",
      "type": "function"
    }
  ],
  "bytecode": "0x60e06040523480156200001157600080fd5b5060405162004fad38038062004fad833981810160405281019062000037919062000241565b6001600081905550600073ffffffffffffffffffffffffffffffffffffffff168373ffffffffffffffffffffffffffffffffffffffff1603620000b1576040517f08c379a0000000000000000000000000000000000000000000000000000000008152600401620000a890620002fe565b60405180910390fd5b600073ffffffffffffffffffffffffffffffffffffffff168173ffffffffffffffffffffffffffffffffffffffff160362000123576040517f08c379a00000000000000000000000000000000000000000000000000000000081526004016200011a9062000370565b60405180910390fd5b8273ffffffffffffffffffffffffffffffffffffffff1660808173ffffffffffffffffffffffffffffffffffffffff16815250508160a081815250508073ffffffffffffffffffffffffffffffffffffffff1660c08173ffffffffffffffffffffffffffffffffffffffff168152505050505062000392565b600080fd5b600073ffffffffffffffffffffffffffffffffffffffff82169050919050565b6000620001ce82620001a1565b9050919050565b620001e081620001c1565b8114620001ec57600080fd5b50565b6000815190506200020081620001d5565b92915050565b6000819050919050565b6200021b8162000206565b81146200022757600080fd5b50565b6000815190506200023b8162000210565b92915050565b6000806000606084860312156200025d576200025c6200019c565b5b60006200026d86828701620001ef565b935050602062000280868287016200022a565b92505060406200029386828701620001ef565b9150509250925092565b600082825260208201905092915050565b7f496e76616c69642066656520636f6c6c6563746f720000000000000000000000600082015250565b6000620002e66015836200029d565b9150620002f382620002ae565b602082019050919050565b600060208201905081810360008301526200031981620002d7565b9050919050565b7f496e76616c696420707269636520666565640000000000000000000000000000600082015250565b6000620003586012836200029d565b9150620003658262000320565b602082019050919050565b600060208201905081810360008301526200038b8162000349565b9050919050565b60805160a05160c051614bba620003f360003960008181610b6001528181611bcf0152611ca90152600061226a0152600081816116e20152818161195f015281816119f201528181611a920152818161201e015261218e0152614bba6000f3fe60806040526004361061011f5760003560e01c80639e281a98116100a0578063cfdbf25411610064578063cfdbf2541461032d578063d4fac45d14610358578063db46a79014610395578063f14210a6146103c0578063f6326fb3146103dc5761011f565b80639e281a9814610297578063a0501e12146102b3578063b069ffd3146102cf578063b1b0dba5146102eb578063c8796572146103165761011f565b806369c5dfd8116100e757806369c5dfd8146101ce5780636df233ff146101f9578063741bef1a146102245780639018ae801461024f578063942b13641461026b5761011f565b8063308bc44114610124578063338b5dea1461014f57806335f340751461016b5780635a25a82b146101875780635d7205f6146101a3575b600080fd5b34801561013057600080fd5b506101396103e6565b604051610146919061330b565b60405180910390f35b610169600480360381019061016491906133ba565b6103f5565b005b610185600480360381019061018091906133ba565b61061e565b005b6101a1600480360381019061019c91906134b5565b61082c565b005b3480156101af57600080fd5b506101b8610b4f565b6040516101c5919061330b565b60405180910390f35b3480156101da57600080fd5b506101e3610b54565b6040516101f0919061330b565b60405180910390f35b34801561020557600080fd5b5061020e610b59565b60405161021b919061330b565b60405180910390f35b34801561023057600080fd5b50610239610b5e565b6040516102469190613595565b60405180910390f35b610269600480360381019061026491906135b0565b610b82565b005b34801561027757600080fd5b50610280610e8d565b60405161028e9291906137c1565b60405180910390f35b6102b160048036038101906102ac91906133ba565b611148565b005b6102cd60048036038101906102c891906137f8565b6112f2565b005b6102e960048036038101906102e491906134b5565b61156b565b005b3480156102f757600080fd5b5061030061194f565b60405161030d919061330b565b60405180910390f35b34801561032257600080fd5b5061032b611955565b005b34801561033957600080fd5b50610342611b9e565b60405161034f919061330b565b60405180910390f35b34801561036457600080fd5b5061037f600480360381019061037a919061384b565b611ba3565b60405161038c919061330b565b60405180910390f35b3480156103a157600080fd5b506103aa611bca565b6040516103b7919061330b565b60405180910390f35b6103da60048036038101906103d5919061388b565b611d81565b005b6103e4611f40565b005b60006103f0611bca565b905090565b6103fd6120e6565b600073ffffffffffffffffffffffffffffffffffffffff168273ffffffffffffffffffffffffffffffffffffffff160361046c576040517f08c379a000000000000000000000000000000000000000000000000000000000815260040161046390613915565b60405180910390fd5b600081116104af576040517f08c379a00000000000000000000000000000000000000000000000000000000081526004016104a690613981565b60405180910390fd5b6104b7612135565b6104e43330838573ffffffffffffffffffffffffffffffffffffffff166121db909392919063ffffffff16565b80600160006104f33386612264565b815260200190815260200160002060008282540192505081905550600080600460003373ffffffffffffffffffffffffffffffffffffffff1673ffffffffffffffffffffffffffffffffffffffff16815260200190815260200160002060008573ffffffffffffffffffffffffffffffffffffffff1673ffffffffffffffffffffffffffffffffffffffff168152602001908152602001600020541461059a57600061059d565b60015b60ff1690506105ac83826122b9565b3373ffffffffffffffffffffffffffffffffffffffff168373ffffffffffffffffffffffffffffffffffffffff167f5548c837ab068cf56a2c2479df0882a4922fd203edb7517321831d95078c5f6284604051610609919061330b565b60405180910390a35061061a61256e565b5050565b6106266120e6565b600073ffffffffffffffffffffffffffffffffffffffff168273ffffffffffffffffffffffffffffffffffffffff161415801561068f57503373ffffffffffffffffffffffffffffffffffffffff168273ffffffffffffffffffffffffffffffffffffffff1614155b6106ce576040517f08c379a00000000000000000000000000000000000000000000000000000000081526004016106c5906139ed565b60405180910390fd5b60006106db336000612264565b905060006106ea846000612264565b90508260016000848152602001908152602001600020541015610742576040517f08c379a000000000000000000000000000000000000000000000000000000000815260040161073990613a59565b60405180910390fd5b61074a612135565b8260016000848152602001908152602001600020600082825403925050819055508260016000838152602001908152602001600020600082825401925050819055506107966000612578565b6107a1846000612914565b8373ffffffffffffffffffffffffffffffffffffffff163373ffffffffffffffffffffffffffffffffffffffff16600073ffffffffffffffffffffffffffffffffffffffff167f77178bcf8f3c991d39734824771477a42787fe19b60d5a29c0ec72de167699b386604051610816919061330b565b60405180910390a4505061082861256e565b5050565b6108346120e6565b61084084848484612b85565b610848612d8e565b610850612135565b60005b8484905081101561092257600085858381811061087357610872613a79565b5b90506020020160208101906108889190613aa8565b9050600084848481811061089f5761089e613a79565b5b90506020020135905060006108b43384612264565b9050816001600083815260200190815260200160002054101561090c576040517f08c379a000000000000000000000000000000000000000000000000000000000815260040161090390613b21565b60405180910390fd5b505050808061091a90613b70565b915050610853565b5060005b84849050811015610b4057600085858381811061094657610945613a79565b5b905060200201602081019061095b9190613aa8565b9050600084848481811061097257610971613a79565b5b90506020020135905060006109873384612264565b90508160016000838152602001908152602001600020600082825403925050819055506109b383612578565b600073ffffffffffffffffffffffffffffffffffffffff168373ffffffffffffffffffffffffffffffffffffffff1603610a995760003373ffffffffffffffffffffffffffffffffffffffff1683604051610a0d90613be9565b60006040518083038185875af1925050503d8060008114610a4a576040519150601f19603f3d011682016040523d82523d6000602084013e610a4f565b606091505b5050905080610a93576040517f08c379a0000000000000000000000000000000000000000000000000000000008152600401610a8a90613c4a565b60405180910390fd5b50610ac5565b610ac433838573ffffffffffffffffffffffffffffffffffffffff16612fd79092919063ffffffff16565b5b3373ffffffffffffffffffffffffffffffffffffffff168373ffffffffffffffffffffffffffffffffffffffff167f9b1bfa7fa9ee420a16e124f794c35ac9f90472acc99140eb2f6447c714cad8eb84604051610b22919061330b565b60405180910390a35050508080610b3890613b70565b915050610926565b50610b4961256e565b50505050565b603c81565b60c881565b600581565b7f000000000000000000000000000000000000000000000000000000000000000081565b610b8a6120e6565b600073ffffffffffffffffffffffffffffffffffffffff168373ffffffffffffffffffffffffffffffffffffffff1614158015610bf357503373ffffffffffffffffffffffffffffffffffffffff168373ffffffffffffffffffffffffffffffffffffffff1614155b610c32576040517f08c379a0000000000000000000000000000000000000000000000000000000008152600401610c29906139ed565b60405180910390fd5b610c3e85858484612b85565b610c46612d8e565b610c4e612135565b60005b85859050811015610d20576000868683818110610c7157610c70613a79565b5b9050602002016020810190610c869190613aa8565b90506000848484818110610c9d57610c9c613a79565b5b9050602002013590506000610cb23384612264565b90508160016000838152602001908152602001600020541015610d0a576040517f08c379a0000000000000000000000000000000000000000000000000000000008152600401610d0190613b21565b60405180910390fd5b5050508080610d1890613b70565b915050610c51565b5060005b85859050811015610e7d576000868683818110610d4457610d43613a79565b5b9050602002016020810190610d599190613aa8565b90506000848484818110610d7057610d6f613a79565b5b9050602002013590506000610d853384612264565b90506000610d938885612264565b9050826001600084815260200190815260200160002060008282540392505081905550826001600083815260200190815260200160002060008282540192505081905550610de084612578565b610dea8885612914565b8773ffffffffffffffffffffffffffffffffffffffff163373ffffffffffffffffffffffffffffffffffffffff168573ffffffffffffffffffffffffffffffffffffffff167f77178bcf8f3c991d39734824771477a42787fe19b60d5a29c0ec72de167699b386604051610e5e919061330b565b60405180910390a4505050508080610e7590613b70565b915050610d24565b50610e8661256e565b5050505050565b6060806000600360003373ffffffffffffffffffffffffffffffffffffffff1673ffffffffffffffffffffffffffffffffffffffff16815260200190815260200160002090506000805b8280549050811015610f6357600060016000610f3033878681548110610f0057610eff613a79565b5b9060005260206000200160009054906101000a900473ffffffffffffffffffffffffffffffffffffffff16612264565b8152602001908152602001600020541115610f525781610f4f90613b70565b91505b80610f5c90613b70565b9050610ed7565b508067ffffffffffffffff811115610f7e57610f7d613c6a565b5b604051908082528060200260200182016040528015610fac5781602001602082028036833780820191505090505b5093508067ffffffffffffffff811115610fc957610fc8613c6a565b5b604051908082528060200260200182016040528015610ff75781602001602082028036833780820191505090505b5092506000805b8380549050811015611140576000600160006110573388868154811061102757611026613a79565b5b9060005260206000200160009054906101000a900473ffffffffffffffffffffffffffffffffffffffff16612264565b815260200190815260200160002054905060008103611076575061112f565b84828154811061108957611088613a79565b5b9060005260206000200160009054906101000a900473ffffffffffffffffffffffffffffffffffffffff168784815181106110c7576110c6613a79565b5b602002602001019073ffffffffffffffffffffffffffffffffffffffff16908173ffffffffffffffffffffffffffffffffffffffff16815250508086848151811061111557611114613a79565b5b6020026020010181815250508261112b90613b70565b9250505b8061113990613b70565b9050610ffe565b505050509091565b6111506120e6565b600073ffffffffffffffffffffffffffffffffffffffff168273ffffffffffffffffffffffffffffffffffffffff16036111bf576040517f08c379a00000000000000000000000000000000000000000000000000000000081526004016111b690613915565b60405180910390fd5b60006111cb3384612264565b90508160016000838152602001908152602001600020541015611223576040517f08c379a000000000000000000000000000000000000000000000000000000000815260040161121a90613a59565b60405180910390fd5b61122b612135565b81600160008381526020019081526020016000206000828254039250508190555061125583612578565b61128033838573ffffffffffffffffffffffffffffffffffffffff16612fd79092919063ffffffff16565b3373ffffffffffffffffffffffffffffffffffffffff168373ffffffffffffffffffffffffffffffffffffffff167f9b1bfa7fa9ee420a16e124f794c35ac9f90472acc99140eb2f6447c714cad8eb846040516112dd919061330b565b60405180910390a3506112ee61256e565b5050565b6112fa6120e6565b600073ffffffffffffffffffffffffffffffffffffffff168373ffffffffffffffffffffffffffffffffffffffff1603611369576040517f08c379a000000000000000000000000000000000000000000000000000000000815260040161136090613915565b60405180910390fd5b600073ffffffffffffffffffffffffffffffffffffffff168273ffffffffffffffffffffffffffffffffffffffff16141580156113d257503373ffffffffffffffffffffffffffffffffffffffff168273ffffffffffffffffffffffffffffffffffffffff1614155b611411576040517f08c379a0000000000000000000000000000000000000000000000000000000008152600401611408906139ed565b60405180910390fd5b600061141d3385612264565b9050600061142b8486612264565b90508260016000848152602001908152602001600020541015611483576040517f08c379a000000000000000000000000000000000000000000000000000000000815260040161147a90613a59565b60405180910390fd5b61148b612135565b8260016000848152602001908152602001600020600082825403925050819055508260016000838152602001908152602001600020600082825401925050819055506114d685612578565b6114e08486612914565b8373ffffffffffffffffffffffffffffffffffffffff163373ffffffffffffffffffffffffffffffffffffffff168673ffffffffffffffffffffffffffffffffffffffff167f77178bcf8f3c991d39734824771477a42787fe19b60d5a29c0ec72de167699b386604051611554919061330b565b60405180910390a4505061156661256e565b505050565b6115736120e6565b61157f84848484612b85565b611587612d8e565b61158f612135565b6000805b8585905081101561193f5760008686838181106115b3576115b2613a79565b5b90506020020160208101906115c89190613aa8565b905060008585848181106115df576115de613a79565b5b905060200201359050600073ffffffffffffffffffffffffffffffffffffffff168273ffffffffffffffffffffffffffffffffffffffff16036117d0576000611626611bca565b90508034101561166b576040517f08c379a000000000000000000000000000000000000000000000000000000000815260040161166290613ce5565b60405180910390fd5b8082116116ad576040517f08c379a00000000000000000000000000000000000000000000000000000000081526004016116a490613d51565b60405180910390fd5b81600160006116bd336000612264565b81526020019081526020016000206000828254019250508190555080600260006117087f00000000000000000000000000000000000000000000000000000000000000006000612264565b815260200190815260200160002060008282546117259190613d71565b925050819055506000600460003373ffffffffffffffffffffffffffffffffffffffff1673ffffffffffffffffffffffffffffffffffffffff16815260200190815260200160002060008073ffffffffffffffffffffffffffffffffffffffff1673ffffffffffffffffffffffffffffffffffffffff16815260200190815260200160002054036117bf5784806117bb90613b70565b9550505b6117ca6000866122b9565b506118c5565b6117fd3330838573ffffffffffffffffffffffffffffffffffffffff166121db909392919063ffffffff16565b806001600061180c3386612264565b8152602001908152602001600020600082825401925050819055506000600460003373ffffffffffffffffffffffffffffffffffffffff1673ffffffffffffffffffffffffffffffffffffffff16815260200190815260200160002060008473ffffffffffffffffffffffffffffffffffffffff1673ffffffffffffffffffffffffffffffffffffffff16815260200190815260200160002054036118ba5783806118b690613b70565b9450505b6118c482856122b9565b5b3373ffffffffffffffffffffffffffffffffffffffff168273ffffffffffffffffffffffffffffffffffffffff167f5548c837ab068cf56a2c2479df0882a4922fd203edb7517321831d95078c5f6283604051611922919061330b565b60405180910390a35050808061193790613b70565b915050611593565b505061194961256e565b50505050565b6103e881565b61195d6120e6565b7f000000000000000000000000000000000000000000000000000000000000000073ffffffffffffffffffffffffffffffffffffffff163373ffffffffffffffffffffffffffffffffffffffff16146119eb576040517f08c379a00000000000000000000000000000000000000000000000000000000081526004016119e290613df1565b60405180910390fd5b6000611a187f00000000000000000000000000000000000000000000000000000000000000006000612264565b905060006002600083815260200190815260200160002054905060008111611a75576040517f08c379a0000000000000000000000000000000000000000000000000000000008152600401611a6c90613e5d565b60405180910390fd5b6000600260008481526020019081526020016000208190555060007f000000000000000000000000000000000000000000000000000000000000000073ffffffffffffffffffffffffffffffffffffffff1682604051611ad490613be9565b60006040518083038185875af1925050503d8060008114611b11576040519150601f19603f3d011682016040523d82523d6000602084013e611b16565b606091505b5050905080611b5a576040517f08c379a0000000000000000000000000000000000000000000000000000000008152600401611b5190613ec9565b60405180910390fd5b7f860c0aa5520013080c2f65981705fcdea474d9f7c3daf954656ed5e65d692d1f82604051611b89919061330b565b60405180910390a1505050611b9c61256e565b565b601981565b600060016000611bb38585612264565b815260200190815260200160002054905092915050565b6000807f000000000000000000000000000000000000000000000000000000000000000073ffffffffffffffffffffffffffffffffffffffff1663feaf968c6040518163ffffffff1660e01b815260040160a060405180830381865afa158015611c38573d6000803e3d6000fd5b505050506040513d601f19601f82011682018060405250810190611c5c9190613f76565b50505091505060008113611ca5576040517f08c379a0000000000000000000000000000000000000000000000000000000008152600401611c9c9061403d565b60405180910390fd5b60007f000000000000000000000000000000000000000000000000000000000000000073ffffffffffffffffffffffffffffffffffffffff1663313ce5676040518163ffffffff1660e01b8152600401602060405180830381865afa158015611d12573d6000803e3d6000fd5b505050506040513d601f19601f82011682018060405250810190611d369190614096565b905060006002826012611d4991906140c3565b611d5391906140f8565b600a611d5f9190614260565b600a611d6b91906142ab565b90508281611d79919061431c565b935050505090565b611d896120e6565b6000611d96336000612264565b90508160016000838152602001908152602001600020541015611dee576040517f08c379a0000000000000000000000000000000000000000000000000000000008152600401611de590613a59565b60405180910390fd5b611df6612135565b816001600083815260200190815260200160002060008282540392505081905550611e216000612578565b60003373ffffffffffffffffffffffffffffffffffffffff1683604051611e4790613be9565b60006040518083038185875af1925050503d8060008114611e84576040519150601f19603f3d011682016040523d82523d6000602084013e611e89565b606091505b5050905080611ecd576040517f08c379a0000000000000000000000000000000000000000000000000000000008152600401611ec490613c4a565b60405180910390fd5b3373ffffffffffffffffffffffffffffffffffffffff16600073ffffffffffffffffffffffffffffffffffffffff167f9b1bfa7fa9ee420a16e124f794c35ac9f90472acc99140eb2f6447c714cad8eb85604051611f2b919061330b565b60405180910390a35050611f3d61256e565b50565b611f486120e6565b60003411611f8b576040517f08c379a0000000000000000000000000000000000000000000000000000000008152600401611f8290613981565b60405180910390fd5b6000611f95611bca565b9050803411611fd9576040517f08c379a0000000000000000000000000000000000000000000000000000000008152600401611fd090613d51565b60405180910390fd5b60008134611fe7919061434d565b90508060016000611ff9336000612264565b81526020019081526020016000206000828254019250508190555081600260006120447f00000000000000000000000000000000000000000000000000000000000000006000612264565b815260200190815260200160002060008282546120619190613d71565b92505081905550612074600060016122b9565b3373ffffffffffffffffffffffffffffffffffffffff16600073ffffffffffffffffffffffffffffffffffffffff167f5548c837ab068cf56a2c2479df0882a4922fd203edb7517321831d95078c5f62836040516120d2919061330b565b60405180910390a350506120e461256e565b565b60026000540361212b576040517f08c379a0000000000000000000000000000000000000000000000000000000008152600401612122906143cd565b60405180910390fd5b6002600081905550565b600061213f611bca565b905080341015612184576040517f08c379a000000000000000000000000000000000000000000000000000000000815260040161217b90613ce5565b60405180910390fd5b80600260006121b47f00000000000000000000000000000000000000000000000000000000000000006000612264565b815260200190815260200160002060008282546121d19190613d71565b9250508190555050565b61225e846323b872dd60e01b8585856040516024016121fc939291906143fc565b604051602081830303815290604052907bffffffffffffffffffffffffffffffffffffffffffffffffffffffff19166020820180517bffffffffffffffffffffffffffffffffffffffffffffffffffffffff838183161783525050505061305d565b50505050565b600082827f000000000000000000000000000000000000000000000000000000000000000060405160200161229b939291906144a6565b60405160208183030381529060405280519060200120905092915050565b6000600460003373ffffffffffffffffffffffffffffffffffffffff1673ffffffffffffffffffffffffffffffffffffffff16815260200190815260200160002060008473ffffffffffffffffffffffffffffffffffffffff1673ffffffffffffffffffffffffffffffffffffffff168152602001908152602001600020540361256a576005811115612381576040517f08c379a00000000000000000000000000000000000000000000000000000000081526004016123789061452f565b60405180910390fd5b60c8600360003373ffffffffffffffffffffffffffffffffffffffff1673ffffffffffffffffffffffffffffffffffffffff1681526020019081526020016000208054905010612406576040517f08c379a00000000000000000000000000000000000000000000000000000000081526004016123fd9061459b565b60405180910390fd5b600360003373ffffffffffffffffffffffffffffffffffffffff1673ffffffffffffffffffffffffffffffffffffffff168152602001908152602001600020829080600181540180825580915050600190039060005260206000200160009091909190916101000a81548173ffffffffffffffffffffffffffffffffffffffff021916908373ffffffffffffffffffffffffffffffffffffffff160217905550600360003373ffffffffffffffffffffffffffffffffffffffff1673ffffffffffffffffffffffffffffffffffffffff16815260200190815260200160002080549050600460003373ffffffffffffffffffffffffffffffffffffffff1673ffffffffffffffffffffffffffffffffffffffff16815260200190815260200160002060008473ffffffffffffffffffffffffffffffffffffffff1673ffffffffffffffffffffffffffffffffffffffff168152602001908152602001600020819055505b5050565b6001600081905550565b60006125843383612264565b905060006001600083815260200190815260200160002054146125a75750612911565b60016000828152602001908152602001600020600090556000600460003373ffffffffffffffffffffffffffffffffffffffff1673ffffffffffffffffffffffffffffffffffffffff16815260200190815260200160002060008473ffffffffffffffffffffffffffffffffffffffff1673ffffffffffffffffffffffffffffffffffffffff1681526020019081526020016000205490506000810361264e575050612911565b600060018261265d919061434d565b90506000600360003373ffffffffffffffffffffffffffffffffffffffff1673ffffffffffffffffffffffffffffffffffffffff16815260200190815260200160002090506000600182805490506126b5919061434d565b90508083146127eb5760008282815481106126d3576126d2613a79565b5b9060005260206000200160009054906101000a900473ffffffffffffffffffffffffffffffffffffffff1690508083858154811061271457612713613a79565b5b9060005260206000200160006101000a81548173ffffffffffffffffffffffffffffffffffffffff021916908373ffffffffffffffffffffffffffffffffffffffff1602179055506001846127699190613d71565b600460003373ffffffffffffffffffffffffffffffffffffffff1673ffffffffffffffffffffffffffffffffffffffff16815260200190815260200160002060008373ffffffffffffffffffffffffffffffffffffffff1673ffffffffffffffffffffffffffffffffffffffff16815260200190815260200160002081905550505b818054806127fc576127fb6145bb565b5b6001900381819060005260206000200160006101000a81549073ffffffffffffffffffffffffffffffffffffffff02191690559055600460003373ffffffffffffffffffffffffffffffffffffffff1673ffffffffffffffffffffffffffffffffffffffff16815260200190815260200160002060008773ffffffffffffffffffffffffffffffffffffffff1673ffffffffffffffffffffffffffffffffffffffff168152602001908152602001600020600090558573ffffffffffffffffffffffffffffffffffffffff163373ffffffffffffffffffffffffffffffffffffffff167fc22c253b62e9da4c0305122d8496f21c2563c5a88882c1f4b0ac0ce41e1fc3c360405160405180910390a350505050505b50565b6000600460008473ffffffffffffffffffffffffffffffffffffffff1673ffffffffffffffffffffffffffffffffffffffff16815260200190815260200160002060008373ffffffffffffffffffffffffffffffffffffffff1673ffffffffffffffffffffffffffffffffffffffff1681526020019081526020016000205403612b815760c8600360008473ffffffffffffffffffffffffffffffffffffffff1673ffffffffffffffffffffffffffffffffffffffff1681526020019081526020016000208054905010612a1d576040517f08c379a0000000000000000000000000000000000000000000000000000000008152600401612a1490614636565b60405180910390fd5b600360008373ffffffffffffffffffffffffffffffffffffffff1673ffffffffffffffffffffffffffffffffffffffff168152602001908152602001600020819080600181540180825580915050600190039060005260206000200160009091909190916101000a81548173ffffffffffffffffffffffffffffffffffffffff021916908373ffffffffffffffffffffffffffffffffffffffff160217905550600360008373ffffffffffffffffffffffffffffffffffffffff1673ffffffffffffffffffffffffffffffffffffffff16815260200190815260200160002080549050600460008473ffffffffffffffffffffffffffffffffffffffff1673ffffffffffffffffffffffffffffffffffffffff16815260200190815260200160002060008373ffffffffffffffffffffffffffffffffffffffff1673ffffffffffffffffffffffffffffffffffffffff168152602001908152602001600020819055505b5050565b600084849050118015612b9c575060198484905011155b612bdb576040517f08c379a0000000000000000000000000000000000000000000000000000000008152600401612bd2906146a2565b60405180910390fd5b818190508484905014612c23576040517f08c379a0000000000000000000000000000000000000000000000000000000008152600401612c1a9061470e565b60405180910390fd5b60005b82829050811015612d36576000838383818110612c4657612c45613a79565b5b9050602002013511612c8d576040517f08c379a0000000000000000000000000000000000000000000000000000000008152600401612c849061477a565b60405180910390fd5b600073ffffffffffffffffffffffffffffffffffffffff16858583818110612cb857612cb7613a79565b5b9050602002016020810190612ccd9190613aa8565b73ffffffffffffffffffffffffffffffffffffffff1603612d23576040517f08c379a0000000000000000000000000000000000000000000000000000000008152600401612d1a906147e6565b60405180910390fd5b8080612d2e90613b70565b915050612c26565b503373ffffffffffffffffffffffffffffffffffffffff167fc4df2a04c73f2781174ba40c1f910e682e25b95ce168688240cb7eb984b7901485859050604051612d80919061330b565b60405180910390a250505050565b6000429050603c600660003373ffffffffffffffffffffffffffffffffffffffff1673ffffffffffffffffffffffffffffffffffffffff16815260200190815260200160002054612ddf9190613d71565b8110612e6f576000600560003373ffffffffffffffffffffffffffffffffffffffff1673ffffffffffffffffffffffffffffffffffffffff1681526020019081526020016000208190555080600660003373ffffffffffffffffffffffffffffffffffffffff1673ffffffffffffffffffffffffffffffffffffffff168152602001908152602001600020819055505b6103e8600560003373ffffffffffffffffffffffffffffffffffffffff1673ffffffffffffffffffffffffffffffffffffffff1681526020019081526020016000205410612f7f573373ffffffffffffffffffffffffffffffffffffffff167fa7382e9b0f37a34b8c7659176b27a0e82d2fb18f6eb6472b63d78ec4b498c4e5600560003373ffffffffffffffffffffffffffffffffffffffff1673ffffffffffffffffffffffffffffffffffffffff16815260200190815260200160002054604051612f3c919061330b565b60405180910390a26040517f08c379a0000000000000000000000000000000000000000000000000000000008152600401612f7690614852565b60405180910390fd5b600560003373ffffffffffffffffffffffffffffffffffffffff1673ffffffffffffffffffffffffffffffffffffffff1681526020019081526020016000206000815480929190612fcf90613b70565b919050555050565b6130588363a9059cbb60e01b8484604051602401612ff6929190614872565b604051602081830303815290604052907bffffffffffffffffffffffffffffffffffffffffffffffffffffffff19166020820180517bffffffffffffffffffffffffffffffffffffffffffffffffffffffff838183161783525050505061305d565b505050565b60006130bf826040518060400160405280602081526020017f5361666545524332303a206c6f772d6c6576656c2063616c6c206661696c65648152508573ffffffffffffffffffffffffffffffffffffffff166131259092919063ffffffff16565b90506000815114806130e15750808060200190518101906130e091906148d3565b5b613120576040517f08c379a000000000000000000000000000000000000000000000000000000000815260040161311790614972565b60405180910390fd5b505050565b6060613134848460008561313d565b90509392505050565b606082471015613182576040517f08c379a000000000000000000000000000000000000000000000000000000000815260040161317990614a04565b60405180910390fd5b6000808673ffffffffffffffffffffffffffffffffffffffff1685876040516131ab9190614a8a565b60006040518083038185875af1925050503d80600081146131e8576040519150601f19603f3d011682016040523d82523d6000602084013e6131ed565b606091505b50915091506131fe8783838761320a565b92505050949350505050565b6060831561326c576000835103613264576132248561327f565b613263576040517f08c379a000000000000000000000000000000000000000000000000000000000815260040161325a90614aed565b60405180910390fd5b5b829050613277565b61327683836132a2565b5b949350505050565b6000808273ffffffffffffffffffffffffffffffffffffffff163b119050919050565b6000825111156132b55781518083602001fd5b806040517f08c379a00000000000000000000000000000000000000000000000000000000081526004016132e99190614b62565b60405180910390fd5b6000819050919050565b613305816132f2565b82525050565b600060208201905061332060008301846132fc565b92915050565b600080fd5b600080fd5b600073ffffffffffffffffffffffffffffffffffffffff82169050919050565b600061335b82613330565b9050919050565b61336b81613350565b811461337657600080fd5b50565b60008135905061338881613362565b92915050565b613397816132f2565b81146133a257600080fd5b50565b6000813590506133b48161338e565b92915050565b600080604083850312156133d1576133d0613326565b5b60006133df85828601613379565b92505060206133f0858286016133a5565b9150509250929050565b600080fd5b600080fd5b600080fd5b60008083601f84011261341f5761341e6133fa565b5b8235905067ffffffffffffffff81111561343c5761343b6133ff565b5b60208301915083602082028301111561345857613457613404565b5b9250929050565b60008083601f840112613475576134746133fa565b5b8235905067ffffffffffffffff811115613492576134916133ff565b5b6020830191508360208202830111156134ae576134ad613404565b5b9250929050565b600080600080604085870312156134cf576134ce613326565b5b600085013567ffffffffffffffff8111156134ed576134ec61332b565b5b6134f987828801613409565b9450945050602085013567ffffffffffffffff81111561351c5761351b61332b565b5b6135288782880161345f565b925092505092959194509250565b6000819050919050565b600061355b61355661355184613330565b613536565b613330565b9050919050565b600061356d82613540565b9050919050565b600061357f82613562565b9050919050565b61358f81613574565b82525050565b60006020820190506135aa6000830184613586565b92915050565b6000806000806000606086880312156135cc576135cb613326565b5b600086013567ffffffffffffffff8111156135ea576135e961332b565b5b6135f688828901613409565b9550955050602061360988828901613379565b935050604086013567ffffffffffffffff81111561362a5761362961332b565b5b6136368882890161345f565b92509250509295509295909350565b600081519050919050565b600082825260208201905092915050565b6000819050602082019050919050565b61367a81613350565b82525050565b600061368c8383613671565b60208301905092915050565b6000602082019050919050565b60006136b082613645565b6136ba8185613650565b93506136c583613661565b8060005b838110156136f65781516136dd8882613680565b97506136e883613698565b9250506001810190506136c9565b5085935050505092915050565b600081519050919050565b600082825260208201905092915050565b6000819050602082019050919050565b613738816132f2565b82525050565b600061374a838361372f565b60208301905092915050565b6000602082019050919050565b600061376e82613703565b613778818561370e565b93506137838361371f565b8060005b838110156137b457815161379b888261373e565b97506137a683613756565b925050600181019050613787565b5085935050505092915050565b600060408201905081810360008301526137db81856136a5565b905081810360208301526137ef8184613763565b90509392505050565b60008060006060848603121561381157613810613326565b5b600061381f86828701613379565b935050602061383086828701613379565b9250506040613841868287016133a5565b9150509250925092565b6000806040838503121561386257613861613326565b5b600061387085828601613379565b925050602061388185828601613379565b9150509250929050565b6000602082840312156138a1576138a0613326565b5b60006138af848285016133a5565b91505092915050565b600082825260208201905092915050565b7f496e76616c696420746f6b656e00000000000000000000000000000000000000600082015250565b60006138ff600d836138b8565b915061390a826138c9565b602082019050919050565b6000602082019050818103600083015261392e816138f2565b9050919050565b7f5a65726f206465706f7369740000000000000000000000000000000000000000600082015250565b600061396b600c836138b8565b915061397682613935565b602082019050919050565b6000602082019050818103600083015261399a8161395e565b9050919050565b7f496e76616c696420726563697069656e74000000000000000000000000000000600082015250565b60006139d76011836138b8565b91506139e2826139a1565b602082019050919050565b60006020820190508181036000830152613a06816139ca565b9050919050565b7f496e73756666696369656e742062616c616e6365000000000000000000000000600082015250565b6000613a436014836138b8565b9150613a4e82613a0d565b602082019050919050565b60006020820190508181036000830152613a7281613a36565b9050919050565b7f4e487b7100000000000000000000000000000000000000000000000000000000600052603260045260246000fd5b600060208284031215613abe57613abd613326565b5b6000613acc84828501613379565b91505092915050565b7f496e73756666696369656e742062616c616e636520666f7220746f6b656e0000600082015250565b6000613b0b601e836138b8565b9150613b1682613ad5565b602082019050919050565b60006020820190508181036000830152613b3a81613afe565b9050919050565b7f4e487b7100000000000000000000000000000000000000000000000000000000600052601160045260246000fd5b6000613b7b826132f2565b91507fffffffffffffffffffffffffffffffffffffffffffffffffffffffffffffffff8203613bad57613bac613b41565b5b600182019050919050565b600081905092915050565b50565b6000613bd3600083613bb8565b9150613bde82613bc3565b600082019050919050565b6000613bf482613bc6565b9150819050919050565b7f455448207472616e73666572206661696c656400000000000000000000000000600082015250565b6000613c346013836138b8565b9150613c3f82613bfe565b602082019050919050565b60006020820190508181036000830152613c6381613c27565b9050919050565b7f4e487b7100000000000000000000000000000000000000000000000000000000600052604160045260246000fd5b7f496e73756666696369656e74206665652073656e740000000000000000000000600082015250565b6000613ccf6015836138b8565b9150613cda82613c99565b602082019050919050565b60006020820190508181036000830152613cfe81613cc2565b9050919050565b7f416d6f756e74206d757374206578636565642066656500000000000000000000600082015250565b6000613d3b6016836138b8565b9150613d4682613d05565b602082019050919050565b60006020820190508181036000830152613d6a81613d2e565b9050919050565b6000613d7c826132f2565b9150613d87836132f2565b9250828201905080821115613d9f57613d9e613b41565b5b92915050565b7f4e6f7420617574686f72697a6564000000000000000000000000000000000000600082015250565b6000613ddb600e836138b8565b9150613de682613da5565b602082019050919050565b60006020820190508181036000830152613e0a81613dce565b9050919050565b7f4e6f206665657300000000000000000000000000000000000000000000000000600082015250565b6000613e476007836138b8565b9150613e5282613e11565b602082019050919050565b60006020820190508181036000830152613e7681613e3a565b9050919050565b7f466565207472616e73666572206661696c656400000000000000000000000000600082015250565b6000613eb36013836138b8565b9150613ebe82613e7d565b602082019050919050565b60006020820190508181036000830152613ee281613ea6565b9050919050565b600069ffffffffffffffffffff82169050919050565b613f0881613ee9565b8114613f1357600080fd5b50565b600081519050613f2581613eff565b92915050565b6000819050919050565b613f3e81613f2b565b8114613f4957600080fd5b50565b600081519050613f5b81613f35565b92915050565b600081519050613f708161338e565b92915050565b600080600080600060a08688031215613f9257613f91613326565b5b6000613fa088828901613f16565b9550506020613fb188828901613f4c565b9450506040613fc288828901613f61565b9350506060613fd388828901613f61565b9250506080613fe488828901613f16565b9150509295509295909350565b7f496e76616c696420707269636500000000000000000000000000000000000000600082015250565b6000614027600d836138b8565b915061403282613ff1565b602082019050919050565b600060208201905081810360008301526140568161401a565b9050919050565b600060ff82169050919050565b6140738161405d565b811461407e57600080fd5b50565b6000815190506140908161406a565b92915050565b6000602082840312156140ac576140ab613326565b5b60006140ba84828501614081565b91505092915050565b60006140ce8261405d565b91506140d98361405d565b9250828201905060ff8111156140f2576140f1613b41565b5b92915050565b60006141038261405d565b915061410e8361405d565b9250828203905060ff81111561412757614126613b41565b5b92915050565b60008160011c9050919050565b6000808291508390505b6001851115614184578086048111156141605761415f613b41565b5b600185161561416f5780820291505b808102905061417d8561412d565b9450614144565b94509492505050565b60008261419d5760019050614259565b816141ab5760009050614259565b81600181146141c157600281146141cb576141fa565b6001915050614259565b60ff8411156141dd576141dc613b41565b5b8360020a9150848211156141f4576141f3613b41565b5b50614259565b5060208310610133831016604e8410600b841016171561422f5782820a90508381111561422a57614229613b41565b5b614259565b61423c848484600161413a565b9250905081840481111561425357614252613b41565b5b81810290505b9392505050565b600061426b826132f2565b91506142768361405d565b92506142a37fffffffffffffffffffffffffffffffffffffffffffffffffffffffffffffffff848461418d565b905092915050565b60006142b6826132f2565b91506142c1836132f2565b92508282026142cf816132f2565b915082820484148315176142e6576142e5613b41565b5b5092915050565b7f4e487b7100000000000000000000000000000000000000000000000000000000600052601260045260246000fd5b6000614327826132f2565b9150614332836132f2565b925082614342576143416142ed565b5b828204905092915050565b6000614358826132f2565b9150614363836132f2565b925082820390508181111561437b5761437a613b41565b5b92915050565b7f5265656e7472616e637947756172643a207265656e7472616e742063616c6c00600082015250565b60006143b7601f836138b8565b91506143c282614381565b602082019050919050565b600060208201905081810360008301526143e6816143aa565b9050919050565b6143f681613350565b82525050565b600060608201905061441160008301866143ed565b61441e60208301856143ed565b61442b60408301846132fc565b949350505050565b60008160601b9050919050565b600061444b82614433565b9050919050565b600061445d82614440565b9050919050565b61447561447082613350565b614452565b82525050565b6000819050919050565b6000819050919050565b6144a061449b8261447b565b614485565b82525050565b60006144b28286614464565b6014820191506144c28285614464565b6014820191506144d2828461448f565b602082019150819050949350505050565b7f546f6f206d616e79206e657720746f6b656e7320696e20747800000000000000600082015250565b60006145196019836138b8565b9150614524826144e3565b602082019050919050565b600060208201905081810360008301526145488161450c565b9050919050565b7f546f6b656e206c6973742066756c6c0000000000000000000000000000000000600082015250565b6000614585600f836138b8565b91506145908261454f565b602082019050919050565b600060208201905081810360008301526145b481614578565b9050919050565b7f4e487b7100000000000000000000000000000000000000000000000000000000600052603160045260246000fd5b7f526563697069656e7420746f6b656e206c6973742066756c6c00000000000000600082015250565b60006146206019836138b8565b915061462b826145ea565b602082019050919050565b6000602082019050818103600083015261464f81614613565b9050919050565b7f496e76616c696420746f6b656e20636f756e7400000000000000000000000000600082015250565b600061468c6013836138b8565b915061469782614656565b602082019050919050565b600060208201905081810360008301526146bb8161467f565b9050919050565b7f4172726179206c656e677468206d69736d617463680000000000000000000000600082015250565b60006146f86015836138b8565b9150614703826146c2565b602082019050919050565b60006020820190508181036000830152614727816146eb565b9050919050565b7f5a65726f20616d6f756e74206e6f7420616c6c6f776564000000000000000000600082015250565b60006147646017836138b8565b915061476f8261472e565b602082019050919050565b6000602082019050818103600083015261479381614757565b9050919050565b7f496e76616c696420746f6b656e20616464726573730000000000000000000000600082015250565b60006147d06015836138b8565b91506147db8261479a565b602082019050919050565b600060208201905081810360008301526147ff816147c3565b9050919050565b7f52617465206c696d697420657863656564656400000000000000000000000000600082015250565b600061483c6013836138b8565b915061484782614806565b602082019050919050565b6000602082019050818103600083015261486b8161482f565b9050919050565b600060408201905061488760008301856143ed565b61489460208301846132fc565b9392505050565b60008115159050919050565b6148b08161489b565b81146148bb57600080fd5b50565b6000815190506148cd816148a7565b92915050565b6000602082840312156148e9576148e8613326565b5b60006148f7848285016148be565b91505092915050565b7f5361666545524332303a204552433230206f7065726174696f6e20646964206e60008201527f6f74207375636365656400000000000000000000000000000000000000000000602082015250565b600061495c602a836138b8565b915061496782614900565b604082019050919050565b6000602082019050818103600083015261498b8161494f565b9050919050565b7f416464726573733a20696e73756666696369656e742062616c616e636520666f60008201527f722063616c6c0000000000000000000000000000000000000000000000000000602082015250565b60006149ee6026836138b8565b91506149f982614992565b604082019050919050565b60006020820190508181036000830152614a1d816149e1565b9050919050565b600081519050919050565b60005b83811015614a4d578082015181840152602081019050614a32565b60008484015250505050565b6000614a6482614a24565b614a6e8185613bb8565b9350614a7e818560208601614a2f565b80840191505092915050565b6000614a968284614a59565b915081905092915050565b7f416464726573733a2063616c6c20746f206e6f6e2d636f6e7472616374000000600082015250565b6000614ad7601d836138b8565b9150614ae282614aa1565b602082019050919050565b60006020820190508181036000830152614b0681614aca565b9050919050565b600081519050919050565b6000601f19601f8301169050919050565b6000614b3482614b0d565b614b3e81856138b8565b9350614b4e818560208601614a2f565b614b5781614b18565b840191505092915050565b60006020820190508181036000830152614b7c8184614b29565b90509291505056fea264697066735822122029e199200fd874d462a18f5ec8bf242ee4745ef25026b55bd33d930fb66ff51c64736f6c63430008140033",
  "linkReferences": {},
  "deployedLinkReferences": {}
}