{
  "_format": "hh-sol-artifact-1",
  "contractName": "CyrusTresor1",
  "sourceName": "contracts/evm/CyrusTresor1.sol",
  "abi": [
    {
      "inputs": [
        {
          "internalType": "address",
          "name": "_feeCollector",
          "type": "address"
        },
        {
          "internalType": "bytes32",
          "name": "_salt",
          "type": "bytes32"
        },
        {
          "internalType": "address",
          "name": "_priceFeed",
          "type": "address"
        },
        {
          "internalType": "address[]",
          "name": "_poolTokens",
          "type": "address[]"
        },
        {
          "internalType": "uint256[][]",
          "name": "_bucketSchedules",
          "type": "uint256[][]"
        },
        {
          "internalType": "address",
          "name": "_zkVerifier",
          "type": "address"
        }
      ],
      "stateMutability": "nonpayable",
      "type": "constructor"
    },
    {
      "anonymous": false,
      "inputs": [
        {
          "indexed": true,
          "internalType": "address",
          "name": "user",
          "type": "address"
        },
        {
          "indexed": false,
          "internalType": "uint256",
          "name": "tokenCount",
          "type": "uint256"
        }
      ],
      "name": "BatchOperation",
      "type": "event"
    },
    {
      "anonymous": false,
      "inputs": [
        {
          "indexed": true,
          "internalType": "address",
          "name": "token",
          "type": "address"
        },
        {
          "indexed": true,
          "internalType": "address",
          "name": "user",
          "type": "address"
        },
        {
          "indexed": false,
          "internalType": "uint256",
          "name": "amount",
          "type": "uint256"
        }
      ],
      "name": "Deposit",
      "type": "event"
    },
    {
      "anonymous": false,
      "inputs": [
        {
          "indexed": false,
          "internalType": "uint256",
          "name": "amount",
          "type": "uint256"
        }
      ],
      "name": "FeesCollected",
      "type": "event"
    },
    {
      "anonymous": false,
      "inputs": [
        {
          "indexed": true,
          "internalType": "address",
          "name": "token",
          "type": "address"
        },
        {
          "indexed": true,
          "internalType": "address",
          "name": "from",
          "type": "address"
        },
        {
          "indexed": true,
          "internalType": "address",
          "name": "to",
          "type": "address"
        },
        {
          "indexed": false,
          "internalType": "uint256",
          "name": "amount",
          "type": "uint256"
        }
      ],
      "name": "InternalTransfer",
      "type": "event"
    },
    {
      "anonymous": false,
      "inputs": [
        {
          "indexed": true,
          "internalType": "bytes32",
          "name": "commitment",
          "type": "bytes32"
        },
        {
          "indexed": true,
          "internalType": "address",
          "name": "token",
          "type": "address"
        },
        {
          "indexed": false,
          "internalType": "uint8",
          "name": "bucketIdx",
          "type": "uint8"
        },
        {
          "indexed": false,
          "internalType": "uint256",
          "name": "depositEpoch",
          "type": "uint256"
        }
      ],
      "name": "PoolDeposit",
      "type": "event"
    },
    {
      "anonymous": false,
      "inputs": [
        {
          "indexed": true,
          "internalType": "bytes32",
          "name": "commitment",
          "type": "bytes32"
        },
        {
          "indexed": true,
          "internalType": "address",
          "name": "token",
          "type": "address"
        },
        {
          "indexed": false,
          "internalType": "uint8",
          "name": "bucketIdx",
          "type": "uint8"
        },
        {
          "indexed": true,
          "internalType": "address",
          "name": "withdrawTo",
          "type": "address"
        }
      ],
      "name": "PoolReveal",
      "type": "event"
    },
    {
      "anonymous": false,
      "inputs": [
        {
          "indexed": true,
          "internalType": "address",
          "name": "user",
          "type": "address"
        },
        {
          "indexed": false,
          "internalType": "uint256",
          "name": "count",
          "type": "uint256"
        }
      ],
      "name": "RateLimitExceeded",
      "type": "event"
    },
    {
      "anonymous": false,
      "inputs": [
        {
          "indexed": true,
          "internalType": "address",
          "name": "user",
          "type": "address"
        },
        {
          "indexed": true,
          "internalType": "address",
          "name": "token",
          "type": "address"
        }
      ],
      "name": "TokenPruned",
      "type": "event"
    },
    {
      "anonymous": false,
      "inputs": [
        {
          "indexed": true,
          "internalType": "address",
          "name": "token",
          "type": "address"
        },
        {
          "indexed": true,
          "internalType": "address",
          "name": "user",
          "type": "address"
        },
        {
          "indexed": false,
          "internalType": "uint256",
          "name": "amount",
          "type": "uint256"
        }
      ],
      "name": "Withdraw",
      "type": "event"
    },
    {
      "inputs": [],
      "name": "EPOCH_LENGTH",
      "outputs": [
        {
          "internalType": "uint256",
          "name": "",
          "type": "uint256"
        }
      ],
      "stateMutability": "view",
      "type": "function"
    },
    {
      "inputs": [],
      "name": "MAX_BATCH_SIZE",
      "outputs": [
        {
          "internalType": "uint256",
          "name": "",
          "type": "uint256"
        }
      ],
      "stateMutability": "view",
      "type": "function"
    },
    {
      "inputs": [],
      "name": "MAX_NEW_TOKENS_PER_TX",
      "outputs": [
        {
          "internalType": "uint256",
          "name": "",
          "type": "uint256"
        }
      ],
      "stateMutability": "view",
      "type": "function"
    },
    {
      "inputs": [],
      "name": "MAX_TOKENS_PER_USER",
      "outputs": [
        {
          "internalType": "uint256",
          "name": "",
          "type": "uint256"
        }
      ],
      "stateMutability": "view",
      "type": "function"
    },
    {
      "inputs": [],
      "name": "MAX_TRANSACTIONS_PER_MINUTE",
      "outputs": [
        {
          "internalType": "uint256",
          "name": "",
          "type": "uint256"
        }
      ],
      "stateMutability": "view",
      "type": "function"
    },
    {
      "inputs": [],
      "name": "RATE_LIMIT_WINDOW_MINUTE",
      "outputs": [
        {
          "internalType": "uint256",
          "name": "",
          "type": "uint256"
        }
      ],
      "stateMutability": "view",
      "type": "function"
    },
    {
      "inputs": [],
      "name": "_getDynamicFeeInWei",
      "outputs": [
        {
          "internalType": "uint256",
          "name": "",
          "type": "uint256"
        }
      ],
      "stateMutability": "view",
      "type": "function"
    },
    {
      "inputs": [],
      "name": "collectFees",
      "outputs": [],
      "stateMutability": "nonpayable",
      "type": "function"
    },
    {
      "inputs": [
        {
          "internalType": "bytes32",
          "name": "commitment",
          "type": "bytes32"
        },
        {
          "internalType": "address",
          "name": "token",
          "type": "address"
        },
        {
          "internalType": "uint8",
          "name": "bucketIdx",
          "type": "uint8"
        }
      ],
      "name": "commitToPool",
      "outputs": [],
      "stateMutability": "payable",
      "type": "function"
    },
    {
      "inputs": [
        {
          "internalType": "bytes32",
          "name": "",
          "type": "bytes32"
        }
      ],
      "name": "commitments",
      "outputs": [
        {
          "internalType": "uint64",
          "name": "depositEpoch",
          "type": "uint64"
        },
        {
          "internalType": "bool",
          "name": "spent",
          "type": "bool"
        }
      ],
      "stateMutability": "view",
      "type": "function"
    },
    {
      "inputs": [],
      "name": "currentEpoch",
      "outputs": [
        {
          "internalType": "uint256",
          "name": "",
          "type": "uint256"
        }
      ],
      "stateMutability": "view",
      "type": "function"
    },
    {
      "inputs": [],
      "name": "depositETH",
      "outputs": [],
      "stateMutability": "payable",
      "type": "function"
    },
    {
      "inputs": [
        {
          "internalType": "address[]",
          "name": "tokens",
          "type": "address[]"
        },
        {
          "internalType": "uint256[]",
          "name": "amounts",
          "type": "uint256[]"
        }
      ],
      "name": "depositMultipleTokens",
      "outputs": [],
      "stateMutability": "payable",
      "type": "function"
    },
    {
      "inputs": [
        {
          "internalType": "address",
          "name": "token",
          "type": "address"
        },
        {
          "internalType": "uint256",
          "name": "amount",
          "type": "uint256"
        }
      ],
      "name": "depositToken",
      "outputs": [],
      "stateMutability": "payable",
      "type": "function"
    },
    {
      "inputs": [
        {
          "internalType": "address",
          "name": "user",
          "type": "address"
        },
        {
          "internalType": "address",
          "name": "token",
          "type": "address"
        }
      ],
      "name": "getBalance",
      "outputs": [
        {
          "internalType": "uint256",
          "name": "",
          "type": "uint256"
        }
      ],
      "stateMutability": "view",
      "type": "function"
    },
    {
      "inputs": [],
      "name": "getCurrentFeeInWei",
      "outputs": [
        {
          "internalType": "uint256",
          "name": "",
          "type": "uint256"
        }
      ],
      "stateMutability": "view",
      "type": "function"
    },
    {
      "inputs": [],
      "name": "getMyVaultedTokens",
      "outputs": [
        {
          "internalType": "address[]",
          "name": "tokens",
          "type": "address[]"
        },
        {
          "internalType": "uint256[]",
          "name": "balances",
          "type": "uint256[]"
        }
      ],
      "stateMutability": "view",
      "type": "function"
    },
    {
      "inputs": [
        {
          "internalType": "address",
          "name": "token",
          "type": "address"
        },
        {
          "internalType": "uint8",
          "name": "bucketIdx",
          "type": "uint8"
        }
      ],
      "name": "getPoolBucketSize",
      "outputs": [
        {
          "internalType": "uint256",
          "name": "",
          "type": "uint256"
        }
      ],
      "stateMutability": "view",
      "type": "function"
    },
    {
      "inputs": [
        {
          "internalType": "address",
          "name": "",
          "type": "address"
        },
        {
          "internalType": "uint256",
          "name": "",
          "type": "uint256"
        }
      ],
      "name": "poolBucketSizes",
      "outputs": [
        {
          "internalType": "uint256",
          "name": "",
          "type": "uint256"
        }
      ],
      "stateMutability": "view",
      "type": "function"
    },
    {
      "inputs": [],
      "name": "priceFeed",
      "outputs": [
        {
          "internalType": "contract AggregatorV3Interface",
          "name": "",
          "type": "address"
        }
      ],
      "stateMutability": "view",
      "type": "function"
    },
    {
      "inputs": [
        {
          "internalType": "bytes32",
          "name": "secret",
          "type": "bytes32"
        },
        {
          "internalType": "bytes32",
          "name": "userSalt",
          "type": "bytes32"
        },
        {
          "internalType": "address",
          "name": "withdrawTo",
          "type": "address"
        },
        {
          "internalType": "address",
          "name": "token",
          "type": "address"
        },
        {
          "internalType": "uint8",
          "name": "bucketIdx",
          "type": "uint8"
        },
        {
          "internalType": "bytes",
          "name": "zkProof",
          "type": "bytes"
        }
      ],
      "name": "revealFromPool",
      "outputs": [],
      "stateMutability": "nonpayable",
      "type": "function"
    },
    {
      "inputs": [
        {
          "internalType": "address",
          "name": "to",
          "type": "address"
        },
        {
          "internalType": "uint256",
          "name": "amount",
          "type": "uint256"
        }
      ],
      "name": "transferInternalETH",
      "outputs": [],
      "stateMutability": "payable",
      "type": "function"
    },
    {
      "inputs": [
        {
          "internalType": "address",
          "name": "token",
          "type": "address"
        },
        {
          "internalType": "address",
          "name": "to",
          "type": "address"
        },
        {
          "internalType": "uint256",
          "name": "amount",
          "type": "uint256"
        }
      ],
      "name": "transferInternalToken",
      "outputs": [],
      "stateMutability": "payable",
      "type": "function"
    },
    {
      "inputs": [
        {
          "internalType": "address[]",
          "name": "tokens",
          "type": "address[]"
        },
        {
          "internalType": "address",
          "name": "to",
          "type": "address"
        },
        {
          "internalType": "uint256[]",
          "name": "amounts",
          "type": "uint256[]"
        }
      ],
      "name": "transferMultipleTokensInternal",
      "outputs": [],
      "stateMutability": "payable",
      "type": "function"
    },
    {
      "inputs": [
        {
          "internalType": "uint256",
          "name": "amount",
          "type": "uint256"
        }
      ],
      "name": "withdrawETH",
      "outputs": [],
      "stateMutability": "payable",
      "type": "function"
    },
    {
      "inputs": [
        {
          "internalType": "address[]",
          "name": "tokens",
          "type": "address[]"
        },
        {
          "internalType": "uint256[]",
          "name": "amounts",
          "type": "uint256[]"
        }
      ],
      "name": "withdrawMultipleTokens",
      "outputs": [],
      "stateMutability": "payable",
      "type": "function"
    },
    {
      "inputs": [
        {
          "internalType": "address",
          "name": "token",
          "type": "address"
        },
        {
          "internalType": "uint256",
          "name": "amount",
          "type": "uint256"
        }
      ],
      "name": "withdrawToken",
      "outputs": [],
      "stateMutability": "payable",
      "type": "function"
    },
    {
      "inputs": [],
      "name": "zkVerifier",
      "outputs": [
        {
          "internalType": "address",
          "name": "",
          "type": "address"
        }
      ],
      "stateMutability": "view",
      "type": "function"
    }
  ],
  "bytecode": "0x61010060405234801561001157600080fd5b506040516139ce3803806139ce833981016040819052610030916104d1565b60016000556001600160a01b0386166100905760405162461bcd60e51b815260206004820152601560248201527f496e76616c69642066656520636f6c6c6563746f72000000000000000000000060448201526064015b60405180910390fd5b6001600160a01b0384166100db5760405162461bcd60e51b8152602060048201526012602482015271125b9d985b1a59081c1c9a58d9481999595960721b6044820152606401610087565b81518351146101385760405162461bcd60e51b8152602060048201526024808201527f706f6f6c3a20746f6b656e732f6275636b657473206c656e677468206d69736d6044820152630c2e8c6d60e31b6064820152608401610087565b6001600160a01b0380871660805260a086905284811660c052811660e05260005b83518110156102f0576000838281518110610176576101766105d5565b602002602001015151116101cc5760405162461bcd60e51b815260206004820152601b60248201527f706f6f6c3a20656d707479206275636b6574207363686564756c6500000000006044820152606401610087565b60005b8382815181106101e1576101e16105d5565b60200260200101515181101561027b576000848381518110610205576102056105d5565b6020026020010151828151811061021e5761021e6105d5565b6020026020010151116102735760405162461bcd60e51b815260206004820152601660248201527f706f6f6c3a207a65726f206275636b65742073697a65000000000000000000006044820152606401610087565b6001016101cf565b5082818151811061028e5761028e6105d5565b6020026020010151600860008684815181106102ac576102ac6105d5565b60200260200101516001600160a01b03166001600160a01b0316815260200190815260200160002090805190602001906102e79291906102fc565b50600101610159565b505050505050506105eb565b828054828255906000526020600020908101928215610337579160200282015b8281111561033757825182559160200191906001019061031c565b50610343929150610347565b5090565b5b808211156103435760008155600101610348565b80516001600160a01b038116811461037357600080fd5b919050565b634e487b7160e01b600052604160045260246000fd5b604051601f8201601f191681016001600160401b03811182821017156103b6576103b6610378565b604052919050565b60006001600160401b038211156103d7576103d7610378565b5060051b60200190565b600082601f8301126103f257600080fd5b8151610405610400826103be565b61038e565b8082825260208201915060208360051b86010192508583111561042757600080fd5b602085015b838110156104c75780516001600160401b0381111561044a57600080fd5b8601603f8101881361045b57600080fd5b602081015161046c610400826103be565b808282526020820191506020808460051b8601010192508a83111561049057600080fd5b6040840193505b828410156104b2578351825260209384019390910190610497565b8652505060209384019391909101905061042c565b5095945050505050565b60008060008060008060c087890312156104ea57600080fd5b6104f38761035c565b9550602087015194506105086040880161035c565b60608801519094506001600160401b0381111561052457600080fd5b8701601f8101891361053557600080fd5b8051610543610400826103be565b8082825260208201915060208360051b85010192508b83111561056557600080fd5b6020840193505b8284101561058e5761057d8461035c565b82526020938401939091019061056c565b60808b0151909650925050506001600160401b038111156105ae57600080fd5b6105ba89828a016103e1565b9250506105c960a0880161035c565b90509295509295509295565b634e487b7160e01b600052603260045260246000fd5b60805160a05160c05160e05161336b6106636000396000818161048a015261138401526000818161029001528181611c450152611d0f01526000612221015260008181610c01015281816118a201528181611a0e01528181611a7301528181611af701528181611ff30152612143015261336b6000f3fe6080604052600436106101b75760003560e01c80639e281a98116100ec578063cbf75b061161008a578063d6df096d11610064578063d6df096d14610478578063db46a790146104ac578063f14210a6146104c1578063f6326fb3146104d457600080fd5b8063cbf75b0614610423578063cfdbf25414610443578063d4fac45d1461045857600080fd5b8063ac4746ab116100c6578063ac4746ab146103cf578063b069ffd3146103e5578063b1b0dba5146103f8578063c87965721461040e57600080fd5b80639e281a9814610389578063a0501e121461039c578063a394286e146103af57600080fd5b80636df233ff11610159578063839df94511610133578063839df945146102df57806389503ea2146103405780639018ae8014610353578063942b13641461036657600080fd5b80636df233ff14610269578063741bef1a1461027e57806376671808146102ca57600080fd5b806335f340751161019557806335f34075146102195780635a25a82b1461022c5780635d7205f61461023f57806369c5dfd81461025457600080fd5b80631238ee60146101bc578063308bc441146101ef578063338b5dea14610204575b600080fd5b3480156101c857600080fd5b506101dc6101d7366004612bce565b6104dc565b6040519081526020015b60405180910390f35b3480156101fb57600080fd5b506101dc610576565b610217610212366004612c05565b610585565b005b610217610227366004612c05565b6106c5565b61021761023a366004612c7a565b6107e3565b34801561024b57600080fd5b506101dc603c81565b34801561026057600080fd5b506101dc60c881565b34801561027557600080fd5b506101dc600581565b34801561028a57600080fd5b506102b27f000000000000000000000000000000000000000000000000000000000000000081565b6040516001600160a01b0390911681526020016101e6565b3480156102d657600080fd5b506101dc610a64565b3480156102eb57600080fd5b506103216102fa366004612ce9565b6007602052600090815260409020546001600160401b03811690600160401b900460ff1682565b604080516001600160401b0390931683529015156020830152016101e6565b61021761034e366004612d02565b610a72565b610217610361366004612d42565b610d0d565b34801561037257600080fd5b5061037b610f56565b6040516101e6929190612dc7565b610217610397366004612c05565b611143565b6102176103aa366004612e52565b611225565b3480156103bb57600080fd5b506102176103ca366004612e8f565b61137a565b3480156103db57600080fd5b506101dc610e1081565b6102176103f3366004612c7a565b611749565b34801561040457600080fd5b506101dc6103e881565b34801561041a57600080fd5b506102176119fb565b34801561042f57600080fd5b506101dc61043e366004612c05565b611be8565b34801561044f57600080fd5b506101dc601981565b34801561046457600080fd5b506101dc610473366004612f4a565b611c19565b34801561048457600080fd5b506102b27f000000000000000000000000000000000000000000000000000000000000000081565b3480156104b857600080fd5b506101dc611c40565b6102176104cf366004612ce9565b611dd4565b610217611f15565b6001600160a01b0382166000908152600860205260408120805460ff84161061054c5760405162461bcd60e51b815260206004820152601f60248201527f706f6f6c3a206275636b657420696e646578206f7574206f662072616e67650060448201526064015b60405180910390fd5b808360ff168154811061056157610561612f7d565b90600052602060002001549150505b92915050565b6000610580611c40565b905090565b61058d61208c565b6001600160a01b0382166105b35760405162461bcd60e51b815260040161054390612f93565b600081116105f25760405162461bcd60e51b815260206004820152600c60248201526b16995c9bc819195c1bdcda5d60a21b6044820152606401610543565b6105fa6120e5565b61060f6001600160a01b03831633308461218e565b806001600061061e33866121f9565b8152602080820192909252604090810160009081208054909401909355338352600482528083206001600160a01b038616845290915281205415610663576000610666565b60015b60ff1690506106758382612269565b60405182815233906001600160a01b038516907f5548c837ab068cf56a2c2479df0882a4922fd203edb7517321831d95078c5f62906020015b60405180910390a3506106c16001600055565b5050565b6106cd61208c565b6001600160a01b038216158015906106ee57506001600160a01b0382163314155b61070a5760405162461bcd60e51b815260040161054390612fba565b60006107173360006121f9565b905060006107268460006121f9565b6000838152600160205260409020549091508311156107575760405162461bcd60e51b815260040161054390612fe5565b61075f6120e5565b6000828152600160205260408082208054869003905582825281208054850190556107899061238d565b610794846000612555565b6040518381526001600160a01b0385169033906000907f77178bcf8f3c991d39734824771477a42787fe19b60d5a29c0ec72de167699b39060200160405180910390a450506106c16001600055565b6107eb61208c565b6107f784848484612646565b6107ff61280d565b6108076120e5565b60005b838110156108d257600085858381811061082657610826612f7d565b905060200201602081019061083b9190613013565b9050600084848481811061085157610851612f7d565b905060200201359050600061086633846121f9565b6000818152600160205260409020549091508211156108c75760405162461bcd60e51b815260206004820152601e60248201527f496e73756666696369656e742062616c616e636520666f7220746f6b656e00006044820152606401610543565b50505060010161080a565b5060005b83811015610a535760008585838181106108f2576108f2612f7d565b90506020020160208101906109079190613013565b9050600084848481811061091d5761091d612f7d565b905060200201359050600061093233846121f9565b60008181526001602052604090208054849003905590506109528361238d565b6001600160a01b0383166109f457604051600090339084908381818185875af1925050503d80600081146109a2576040519150601f19603f3d011682016040523d82523d6000602084013e6109a7565b606091505b50509050806109ee5760405162461bcd60e51b8152602060048201526013602482015272115512081d1c985b9cd9995c8819985a5b1959606a1b6044820152606401610543565b50610a08565b610a086001600160a01b038416338461290e565b60405182815233906001600160a01b038516907f9b1bfa7fa9ee420a16e124f794c35ac9f90472acc99140eb2f6447c714cad8eb9060200160405180910390a35050506001016108d6565b50610a5e6001600055565b50505050565b6000610580610e104261304b565b610a7a61208c565b610a8261280d565b6000838152600760205260409020546001600160401b031615610ae75760405162461bcd60e51b815260206004820152601d60248201527f706f6f6c3a20636f6d6d69746d656e7420616c726561647920757365640000006044820152606401610543565b6000610af383836104dc565b90506000610aff611c40565b90506001600160a01b038416610b8757610b19818361306d565b3414610b825760405162461bcd60e51b815260206004820152603260248201527f706f6f6c3a206e6174697665206d73672e76616c7565206d75737420657175616044820152716c206275636b657453697a65202b2066656560701b6064820152608401610543565b610bf7565b803414610be25760405162461bcd60e51b8152602060048201526024808201527f706f6f6c3a206572633230206d73672e76616c7565206d75737420657175616c6044820152632066656560e01b6064820152608401610543565b610bf76001600160a01b03851633308561218e565b8060026000610c277f000000000000000000000000000000000000000000000000000000000000000060006121f9565b81526020019081526020016000206000828254610c44919061306d565b9091555060009050610c54610a64565b6040805180820182526001600160401b038084168252600060208084018281528c83526007909152908490209251835491511515600160401b0268ffffffffffffffffff19909216921691909117179055519091506001600160a01b0386169087907fe4640926e02eec922b9d4d369fe5074fc72daf4d6e83f9ef3031a674e23e0fa490610cf3908890869060ff929092168252602082015260400190565b60405180910390a3505050610d086001600055565b505050565b610d1561208c565b6001600160a01b03831615801590610d3657506001600160a01b0383163314155b610d525760405162461bcd60e51b815260040161054390612fba565b610d5e85858484612646565b610d6661280d565b610d6e6120e5565b60005b84811015610e39576000868683818110610d8d57610d8d612f7d565b9050602002016020810190610da29190613013565b90506000848484818110610db857610db8612f7d565b9050602002013590506000610dcd33846121f9565b600081815260016020526040902054909150821115610e2e5760405162461bcd60e51b815260206004820152601e60248201527f496e73756666696369656e742062616c616e636520666f7220746f6b656e00006044820152606401610543565b505050600101610d71565b5060005b84811015610f44576000868683818110610e5957610e59612f7d565b9050602002016020810190610e6e9190613013565b90506000848484818110610e8457610e84612f7d565b9050602002013590506000610e9933846121f9565b90506000610ea788856121f9565b6000838152600160205260408082208054879003905582825290208054850190559050610ed38461238d565b610edd8885612555565b876001600160a01b0316336001600160a01b0316856001600160a01b03167f77178bcf8f3c991d39734824771477a42787fe19b60d5a29c0ec72de167699b386604051610f2c91815260200190565b60405180910390a4505060019092019150610e3d9050565b50610f4f6001600055565b5050505050565b336000908152600360205260408120606091829190805b8254811015610fd557600060016000610fac33878681548110610f9257610f92612f7d565b6000918252602090912001546001600160a01b03166121f9565b8152602001908152602001600020541115610fcd57610fca82613080565b91505b600101610f6d565b50806001600160401b03811115610fee57610fee613099565b604051908082528060200260200182016040528015611017578160200160208202803683370190505b509350806001600160401b0381111561103257611032613099565b60405190808252806020026020018201604052801561105b578160200160208202803683370190505b5092506000805b835481101561113b5760006001600061108733888681548110610f9257610f92612f7d565b8152602001908152602001600020549050806000036110a65750611133565b8482815481106110b8576110b8612f7d565b9060005260206000200160009054906101000a90046001600160a01b03168784815181106110e8576110e8612f7d565b60200260200101906001600160a01b031690816001600160a01b0316815250508086848151811061111b5761111b612f7d565b602090810291909101015261112f83613080565b9250505b600101611062565b505050509091565b61114b61208c565b6001600160a01b0382166111715760405162461bcd60e51b815260040161054390612f93565b600061117d33846121f9565b6000818152600160205260409020549091508211156111ae5760405162461bcd60e51b815260040161054390612fe5565b6111b66120e5565b6000818152600160205260409020805483900390556111d48361238d565b6111e86001600160a01b038416338461290e565b60405182815233906001600160a01b038516907f9b1bfa7fa9ee420a16e124f794c35ac9f90472acc99140eb2f6447c714cad8eb906020016106ae565b61122d61208c565b6001600160a01b0383166112535760405162461bcd60e51b815260040161054390612f93565b6001600160a01b0382161580159061127457506001600160a01b0382163314155b6112905760405162461bcd60e51b815260040161054390612fba565b600061129c33856121f9565b905060006112aa84866121f9565b6000838152600160205260409020549091508311156112db5760405162461bcd60e51b815260040161054390612fe5565b6112e36120e5565b60008281526001602052604080822080548690039055828252902080548401905561130d8561238d565b6113178486612555565b836001600160a01b0316336001600160a01b0316866001600160a01b03167f77178bcf8f3c991d39734824771477a42787fe19b60d5a29c0ec72de167699b38660405161136691815260200190565b60405180910390a45050610d086001600055565b61138261208c565b7f00000000000000000000000000000000000000000000000000000000000000006001600160a01b03161561140c5760405162461bcd60e51b815260206004820152602a60248201527f706f6f6c3a20763120636f6e74726163743b207a6b2072657665616c206e6f74604482015269081cdd5c1c1bdc9d195960b21b6064820152608401610543565b6001600160a01b0385166114625760405162461bcd60e51b815260206004820181905260248201527f706f6f6c3a207769746864726177546f206973207a65726f20616464726573736044820152606401610543565b61146a61280d565b60408051602081018990529081018790526001600160a01b0380871660608301528516608082015260ff841660a08201523060c08201524660e08201526000906101000160408051601f1981840301815291815281516020928301206000818152600790935291208054919250906001600160401b031661152d5760405162461bcd60e51b815260206004820152601860248201527f706f6f6c3a20756e6b6e6f776e20636f6d6d69746d656e7400000000000000006044820152606401610543565b8054600160401b900460ff16156115865760405162461bcd60e51b815260206004820152601e60248201527f706f6f6c3a20636f6d6d69746d656e7420616c7265616479207370656e7400006044820152606401610543565b80546001600160401b0316611599610a64565b116115fc5760405162461bcd60e51b815260206004820152602d60248201527f706f6f6c3a206d7573742077616974206174206c6561737420312065706f636860448201526c0818599d195c8818dbdb5b5a5d609a1b6064820152608401610543565b805468ff00000000000000001916600160401b178155600061161e87876104dc565b90506001600160a01b0387166116d7576000886001600160a01b03168260405160006040518083038185875af1925050503d806000811461167b576040519150601f19603f3d011682016040523d82523d6000602084013e611680565b606091505b50509050806116d15760405162461bcd60e51b815260206004820152601c60248201527f706f6f6c3a206e6174697665207472616e73666572206661696c6564000000006044820152606401610543565b506116eb565b6116eb6001600160a01b038816898361290e565b60405160ff871681526001600160a01b03808a16919089169085907fb4290be3e0c1fed6e2f6fd4fdd5ba3d037376470a99020cfca8591c5ba8816ca9060200160405180910390a45050506117406001600055565b50505050505050565b61175161208c565b61175d84848484612646565b61176561280d565b61176d6120e5565b6000805b848110156119ef57600086868381811061178d5761178d612f7d565b90506020020160208101906117a29190613013565b905060008585848181106117b8576117b8612f7d565b60200291909101359150506001600160a01b03821661192a5760006117db611c40565b9050803410156118255760405162461bcd60e51b8152602060048201526015602482015274125b9cdd59999a58da595b9d08199959481cd95b9d605a1b6044820152606401610543565b80821161186d5760405162461bcd60e51b8152602060048201526016602482015275416d6f756e74206d757374206578636565642066656560501b6044820152606401610543565b816001600061187d3360006121f9565b81526020019081526020016000206000828254019250508190555080600260006118c87f000000000000000000000000000000000000000000000000000000000000000060006121f9565b815260200190815260200160002060008282546118e5919061306d565b90915550503360009081526004602090815260408083208380529091528120549003611919578461191581613080565b9550505b611924600086612269565b506119a5565b61193f6001600160a01b03831633308461218e565b806001600061194e33866121f9565b8152602080820192909252604090810160009081208054909401909355338352600482528083206001600160a01b0386168452909152812054900361199b578361199781613080565b9450505b6119a58285612269565b60405181815233906001600160a01b038416907f5548c837ab068cf56a2c2479df0882a4922fd203edb7517321831d95078c5f629060200160405180910390a35050600101611771565b5050610a5e6001600055565b611a0361208c565b336001600160a01b037f00000000000000000000000000000000000000000000000000000000000000001614611a6c5760405162461bcd60e51b815260206004820152600e60248201526d139bdd08185d5d1a1bdc9a5e995960921b6044820152606401610543565b6000611a997f000000000000000000000000000000000000000000000000000000000000000060006121f9565b60008181526002602052604090205490915080611ae25760405162461bcd60e51b81526020600482015260076024820152664e6f206665657360c81b6044820152606401610543565b600082815260026020526040808220829055517f00000000000000000000000000000000000000000000000000000000000000006001600160a01b03169083908381818185875af1925050503d8060008114611b5a576040519150601f19603f3d011682016040523d82523d6000602084013e611b5f565b606091505b5050905080611ba65760405162461bcd60e51b8152602060048201526013602482015272119959481d1c985b9cd9995c8819985a5b1959606a1b6044820152606401610543565b6040518281527f860c0aa5520013080c2f65981705fcdea474d9f7c3daf954656ed5e65d692d1f9060200160405180910390a1505050611be66001600055565b565b60086020528160005260406000208181548110611c0457600080fd5b90600052602060002001600091509150505481565b600060016000611c2985856121f9565b815260200190815260200160002054905092915050565b6000807f00000000000000000000000000000000000000000000000000000000000000006001600160a01b031663feaf968c6040518163ffffffff1660e01b815260040160a060405180830381865afa158015611ca1573d6000803e3d6000fd5b505050506040513d601f19601f82011682018060405250810190611cc591906130c9565b50505091505060008113611d0b5760405162461bcd60e51b815260206004820152600d60248201526c496e76616c696420707269636560981b6044820152606401610543565b60007f00000000000000000000000000000000000000000000000000000000000000006001600160a01b031663313ce5676040518163ffffffff1660e01b8152600401602060405180830381865afa158015611d6b573d6000803e3d6000fd5b505050506040513d601f19601f82011682018060405250810190611d8f919061311b565b905060006002611da0836012613138565b611daa9190613151565b611db590600a613251565b611dc090600a613260565b9050611dcc838261304b565b935050505090565b611ddc61208c565b6000611de93360006121f9565b600081815260016020526040902054909150821115611e1a5760405162461bcd60e51b815260040161054390612fe5565b611e226120e5565b600081815260016020526040812080548490039055611e409061238d565b604051600090339084908381818185875af1925050503d8060008114611e82576040519150601f19603f3d011682016040523d82523d6000602084013e611e87565b606091505b5050905080611ece5760405162461bcd60e51b8152602060048201526013602482015272115512081d1c985b9cd9995c8819985a5b1959606a1b6044820152606401610543565b60405183815233906000907f9b1bfa7fa9ee420a16e124f794c35ac9f90472acc99140eb2f6447c714cad8eb9060200160405180910390a35050611f126001600055565b50565b611f1d61208c565b60003411611f5c5760405162461bcd60e51b815260206004820152600c60248201526b16995c9bc819195c1bdcda5d60a21b6044820152606401610543565b6000611f66611c40565b9050803411611fb05760405162461bcd60e51b8152602060048201526016602482015275416d6f756e74206d757374206578636565642066656560501b6044820152606401610543565b6000611fbc8234613277565b90508060016000611fce3360006121f9565b81526020019081526020016000206000828254019250508190555081600260006120197f000000000000000000000000000000000000000000000000000000000000000060006121f9565b81526020019081526020016000206000828254612036919061306d565b90915550612048905060006001612269565b60405181815233906000907f5548c837ab068cf56a2c2479df0882a4922fd203edb7517321831d95078c5f629060200160405180910390a35050611be66001600055565b6002600054036120de5760405162461bcd60e51b815260206004820152601f60248201527f5265656e7472616e637947756172643a207265656e7472616e742063616c6c006044820152606401610543565b6002600055565b60006120ef611c40565b9050803410156121395760405162461bcd60e51b8152602060048201526015602482015274125b9cdd59999a58da595b9d08199959481cd95b9d605a1b6044820152606401610543565b80600260006121697f000000000000000000000000000000000000000000000000000000000000000060006121f9565b81526020019081526020016000206000828254612186919061306d565b909155505050565b6040516001600160a01b0380851660248301528316604482015260648101829052610a5e9085906323b872dd60e01b906084015b60408051601f198184030181529190526020810180516001600160e01b03166001600160e01b03199093169290921790915261293e565b6040516bffffffffffffffffffffffff19606084811b8216602084015283901b1660348201527f0000000000000000000000000000000000000000000000000000000000000000604882015260009060680160405160208183030381529060405280519060200120905092915050565b3360009081526004602090815260408083206001600160a01b038616845290915290205415612296575050565b60058111156122e75760405162461bcd60e51b815260206004820152601960248201527f546f6f206d616e79206e657720746f6b656e7320696e207478000000000000006044820152606401610543565b3360009081526003602052604090205460c8116123385760405162461bcd60e51b815260206004820152600f60248201526e151bdad95b881b1a5cdd08199d5b1b608a1b6044820152606401610543565b5033600081815260036020908152604080832080546001810182558185528385200180546001600160a01b0319166001600160a01b039790971696871790559383529254600482528383209483529390522055565b600061239933836121f9565b600081815260016020526040902054909150156123b4575050565b6000818152600160209081526040808320839055338352600482528083206001600160a01b0386168452909152812054908190036123f157505050565b60006123fe600183613277565b33600090815260036020526040812080549293509161241f90600190613277565b90508083146124cc57600082828154811061243c5761243c612f7d565b9060005260206000200160009054906101000a90046001600160a01b031690508083858154811061246f5761246f612f7d565b600091825260209091200180546001600160a01b0319166001600160a01b03929092169190911790556124a384600161306d565b3360009081526004602090815260408083206001600160a01b0395909516835293905291909120555b818054806124dc576124dc61328a565b60008281526020808220830160001990810180546001600160a01b0319169055909201909255338083526004825260408084206001600160a01b038b16808652935280842084905551919290917fc22c253b62e9da4c0305122d8496f21c2563c5a88882c1f4b0ac0ce41e1fc3c39190a3505050505050565b6001600160a01b0380831660009081526004602090815260408083209385168352929052205415612584575050565b6001600160a01b03821660009081526003602052604090205460c8116125ec5760405162461bcd60e51b815260206004820152601960248201527f526563697069656e7420746f6b656e206c6973742066756c6c000000000000006044820152606401610543565b6001600160a01b03918216600081815260036020908152604080832080546001810182558185528385200180546001600160a01b031916969097169586179096559282529354600485528282209382529290935290912055565b8215801590612656575060198311155b6126985760405162461bcd60e51b8152602060048201526013602482015272125b9d985b1a59081d1bdad95b8818dbdd5b9d606a1b6044820152606401610543565b8281146126df5760405162461bcd60e51b8152602060048201526015602482015274082e4e4c2f240d8cadccee8d040dad2e6dac2e8c6d605b1b6044820152606401610543565b60005b818110156127d15760008383838181106126fe576126fe612f7d565b90506020020135116127525760405162461bcd60e51b815260206004820152601760248201527f5a65726f20616d6f756e74206e6f7420616c6c6f7765640000000000000000006044820152606401610543565b600085858381811061276657612766612f7d565b905060200201602081019061277b9190613013565b6001600160a01b0316036127c95760405162461bcd60e51b8152602060048201526015602482015274496e76616c696420746f6b656e206164647265737360581b6044820152606401610543565b6001016126e2565b5060405183815233907fc4df2a04c73f2781174ba40c1f910e682e25b95ce168688240cb7eb984b790149060200160405180910390a250505050565b33600090815260066020526040902054429061282b90603c9061306d565b811061285157336000908152600560209081526040808320839055600690915290208190555b336000908152600560205260409020546103e8116128eb57336000818152600560209081526040918290205491519182527fa7382e9b0f37a34b8c7659176b27a0e82d2fb18f6eb6472b63d78ec4b498c4e5910160405180910390a260405162461bcd60e51b815260206004820152601360248201527214985d19481b1a5b5a5d08195e18d959591959606a1b6044820152606401610543565b33600090815260056020526040812080549161290683613080565b919050555050565b6040516001600160a01b038316602482015260448101829052610d0890849063a9059cbb60e01b906064016121c2565b6000612993826040518060400160405280602081526020017f5361666545524332303a206c6f772d6c6576656c2063616c6c206661696c6564815250856001600160a01b0316612a139092919063ffffffff16565b90508051600014806129b45750808060200190518101906129b491906132a0565b610d085760405162461bcd60e51b815260206004820152602a60248201527f5361666545524332303a204552433230206f7065726174696f6e20646964206e6044820152691bdd081cdd58d8d9595960b21b6064820152608401610543565b6060612a228484600085612a2a565b949350505050565b606082471015612a8b5760405162461bcd60e51b815260206004820152602660248201527f416464726573733a20696e73756666696369656e742062616c616e636520666f6044820152651c8818d85b1b60d21b6064820152608401610543565b600080866001600160a01b03168587604051612aa791906132e6565b60006040518083038185875af1925050503d8060008114612ae4576040519150601f19603f3d011682016040523d82523d6000602084013e612ae9565b606091505b5091509150612afa87838387612b05565b979650505050505050565b60608315612b74578251600003612b6d576001600160a01b0385163b612b6d5760405162461bcd60e51b815260206004820152601d60248201527f416464726573733a2063616c6c20746f206e6f6e2d636f6e74726163740000006044820152606401610543565b5081612a22565b612a228383815115612b895781518083602001fd5b8060405162461bcd60e51b81526004016105439190613302565b80356001600160a01b0381168114612bba57600080fd5b919050565b60ff81168114611f1257600080fd5b60008060408385031215612be157600080fd5b612bea83612ba3565b91506020830135612bfa81612bbf565b809150509250929050565b60008060408385031215612c1857600080fd5b612c2183612ba3565b946020939093013593505050565b60008083601f840112612c4157600080fd5b5081356001600160401b03811115612c5857600080fd5b6020830191508360208260051b8501011115612c7357600080fd5b9250929050565b60008060008060408587031215612c9057600080fd5b84356001600160401b03811115612ca657600080fd5b612cb287828801612c2f565b90955093505060208501356001600160401b03811115612cd157600080fd5b612cdd87828801612c2f565b95989497509550505050565b600060208284031215612cfb57600080fd5b5035919050565b600080600060608486031215612d1757600080fd5b83359250612d2760208501612ba3565b91506040840135612d3781612bbf565b809150509250925092565b600080600080600060608688031215612d5a57600080fd5b85356001600160401b03811115612d7057600080fd5b612d7c88828901612c2f565b9096509450612d8f905060208701612ba3565b925060408601356001600160401b03811115612daa57600080fd5b612db688828901612c2f565b969995985093965092949392505050565b6040808252835190820181905260009060208501906060840190835b81811015612e0a5783516001600160a01b0316835260209384019390920191600101612de3565b50508381036020808601919091528551808352918101925085019060005b81811015612e46578251845260209384019390920191600101612e28565b50919695505050505050565b600080600060608486031215612e6757600080fd5b612e7084612ba3565b9250612e7e60208501612ba3565b929592945050506040919091013590565b600080600080600080600060c0888a031215612eaa57600080fd5b8735965060208801359550612ec160408901612ba3565b9450612ecf60608901612ba3565b93506080880135612edf81612bbf565b925060a08801356001600160401b03811115612efa57600080fd5b8801601f81018a13612f0b57600080fd5b80356001600160401b03811115612f2157600080fd5b8a6020828401011115612f3357600080fd5b602082019350809250505092959891949750929550565b60008060408385031215612f5d57600080fd5b612f6683612ba3565b9150612f7460208401612ba3565b90509250929050565b634e487b7160e01b600052603260045260246000fd5b6020808252600d908201526c24b73b30b634b2103a37b5b2b760991b604082015260600190565b602080825260119082015270125b9d985b1a59081c9958da5c1a595b9d607a1b604082015260600190565b602080825260149082015273496e73756666696369656e742062616c616e636560601b604082015260600190565b60006020828403121561302557600080fd5b61302e82612ba3565b9392505050565b634e487b7160e01b600052601160045260246000fd5b60008261306857634e487b7160e01b600052601260045260246000fd5b500490565b8082018082111561057057610570613035565b60006001820161309257613092613035565b5060010190565b634e487b7160e01b600052604160045260246000fd5b805169ffffffffffffffffffff81168114612bba57600080fd5b600080600080600060a086880312156130e157600080fd5b6130ea866130af565b6020870151604088015160608901519297509095509350915061310f608087016130af565b90509295509295909350565b60006020828403121561312d57600080fd5b815161302e81612bbf565b60ff818116838216019081111561057057610570613035565b60ff828116828216039081111561057057610570613035565b6001815b60018411156131a55780850481111561318957613189613035565b600184161561319757908102905b60019390931c92800261316e565b935093915050565b6000826131bc57506001610570565b816131c957506000610570565b81600181146131df57600281146131e957613205565b6001915050610570565b60ff8411156131fa576131fa613035565b50506001821b610570565b5060208310610133831016604e8410600b8410161715613228575081810a610570565b613235600019848461316a565b806000190482111561324957613249613035565b029392505050565b600061302e60ff8416836131ad565b808202811582820484141761057057610570613035565b8181038181111561057057610570613035565b634e487b7160e01b600052603160045260246000fd5b6000602082840312156132b257600080fd5b8151801515811461302e57600080fd5b60005b838110156132dd5781810151838201526020016132c5565b50506000910152565b600082516132f88184602087016132c2565b9190910192915050565b60208152600082518060208401526133218160408501602087016132c2565b601f01601f1916919091016040019291505056fea26469706673582212207fa315952af9b2dd5b752c9856f77302b1dac83cd828567d029b40d0aff5321c64736f6c634300081b0033",
  "linkReferences": {},
  "deployedLinkReferences": {}
}