{
  "_format": "hh-sol-artifact-1",
  "contractName": "CrossChainBank5",
  "sourceName": "contracts/CrossChainBank5.sol",
  "abi": [
    {
      "inputs": [
        {
          "internalType": "address",
          "name": "_feeCollector",
          "type": "address"
        },
        {
          "internalType": "bytes32",
          "name": "_salt",
          "type": "bytes32"
        },
        {
          "internalType": "address",
          "name": "_priceFeed",
          "type": "address"
        }
      ],
      "stateMutability": "nonpayable",
      "type": "constructor"
    },
    {
      "anonymous": false,
      "inputs": [
        {
          "indexed": true,
          "internalType": "address",
          "name": "token",
          "type": "address"
        },
        {
          "indexed": true,
          "internalType": "address",
          "name": "user",
          "type": "address"
        },
        {
          "indexed": false,
          "internalType": "uint256",
          "name": "amount",
          "type": "uint256"
        }
      ],
      "name": "Deposit",
      "type": "event"
    },
    {
      "anonymous": false,
      "inputs": [
        {
          "indexed": false,
          "internalType": "uint256",
          "name": "amount",
          "type": "uint256"
        }
      ],
      "name": "FeesCollected",
      "type": "event"
    },
    {
      "anonymous": false,
      "inputs": [
        {
          "indexed": true,
          "internalType": "address",
          "name": "token",
          "type": "address"
        },
        {
          "indexed": true,
          "internalType": "address",
          "name": "from",
          "type": "address"
        },
        {
          "indexed": true,
          "internalType": "address",
          "name": "to",
          "type": "address"
        },
        {
          "indexed": false,
          "internalType": "uint256",
          "name": "amount",
          "type": "uint256"
        }
      ],
      "name": "InternalTransfer",
      "type": "event"
    },
    {
      "anonymous": false,
      "inputs": [
        {
          "indexed": true,
          "internalType": "address",
          "name": "user",
          "type": "address"
        },
        {
          "indexed": true,
          "internalType": "address",
          "name": "token",
          "type": "address"
        }
      ],
      "name": "TokenPruned",
      "type": "event"
    },
    {
      "anonymous": false,
      "inputs": [
        {
          "indexed": true,
          "internalType": "address",
          "name": "token",
          "type": "address"
        },
        {
          "indexed": true,
          "internalType": "address",
          "name": "user",
          "type": "address"
        },
        {
          "indexed": false,
          "internalType": "uint256",
          "name": "amount",
          "type": "uint256"
        }
      ],
      "name": "Withdraw",
      "type": "event"
    },
    {
      "inputs": [],
      "name": "MAX_NEW_TOKENS_PER_TX",
      "outputs": [
        {
          "internalType": "uint256",
          "name": "",
          "type": "uint256"
        }
      ],
      "stateMutability": "view",
      "type": "function"
    },
    {
      "inputs": [],
      "name": "MAX_TOKENS_PER_USER",
      "outputs": [
        {
          "internalType": "uint256",
          "name": "",
          "type": "uint256"
        }
      ],
      "stateMutability": "view",
      "type": "function"
    },
    {
      "inputs": [],
      "name": "_getDynamicFeeInWei",
      "outputs": [
        {
          "internalType": "uint256",
          "name": "",
          "type": "uint256"
        }
      ],
      "stateMutability": "view",
      "type": "function"
    },
    {
      "inputs": [],
      "name": "collectFees",
      "outputs": [],
      "stateMutability": "nonpayable",
      "type": "function"
    },
    {
      "inputs": [],
      "name": "depositETH",
      "outputs": [],
      "stateMutability": "payable",
      "type": "function"
    },
    {
      "inputs": [
        {
          "internalType": "address",
          "name": "token",
          "type": "address"
        },
        {
          "internalType": "uint256",
          "name": "amount",
          "type": "uint256"
        }
      ],
      "name": "depositToken",
      "outputs": [],
      "stateMutability": "payable",
      "type": "function"
    },
    {
      "inputs": [
        {
          "internalType": "address",
          "name": "user",
          "type": "address"
        },
        {
          "internalType": "address",
          "name": "token",
          "type": "address"
        }
      ],
      "name": "getBalance",
      "outputs": [
        {
          "internalType": "uint256",
          "name": "",
          "type": "uint256"
        }
      ],
      "stateMutability": "view",
      "type": "function"
    },
    {
      "inputs": [],
      "name": "getCurrentFeeInWei",
      "outputs": [
        {
          "internalType": "uint256",
          "name": "",
          "type": "uint256"
        }
      ],
      "stateMutability": "view",
      "type": "function"
    },
    {
      "inputs": [],
      "name": "getMyVaultedTokens",
      "outputs": [
        {
          "internalType": "address[]",
          "name": "tokens",
          "type": "address[]"
        },
        {
          "internalType": "uint256[]",
          "name": "balances",
          "type": "uint256[]"
        }
      ],
      "stateMutability": "view",
      "type": "function"
    },
    {
      "inputs": [],
      "name": "priceFeed",
      "outputs": [
        {
          "internalType": "contract AggregatorV3Interface",
          "name": "",
          "type": "address"
        }
      ],
      "stateMutability": "view",
      "type": "function"
    },
    {
      "inputs": [
        {
          "internalType": "address",
          "name": "to",
          "type": "address"
        },
        {
          "internalType": "uint256",
          "name": "amount",
          "type": "uint256"
        }
      ],
      "name": "transferInternalETH",
      "outputs": [],
      "stateMutability": "payable",
      "type": "function"
    },
    {
      "inputs": [
        {
          "internalType": "address",
          "name": "token",
          "type": "address"
        },
        {
          "internalType": "address",
          "name": "to",
          "type": "address"
        },
        {
          "internalType": "uint256",
          "name": "amount",
          "type": "uint256"
        }
      ],
      "name": "transferInternalToken",
      "outputs": [],
      "stateMutability": "payable",
      "type": "function"
    },
    {
      "inputs": [
        {
          "internalType": "uint256",
          "name": "amount",
          "type": "uint256"
        }
      ],
      "name": "withdrawETH",
      "outputs": [],
      "stateMutability": "payable",
      "type": "function"
    },
    {
      "inputs": [
        {
          "internalType": "address",
          "name": "token",
          "type": "address"
        },
        {
          "internalType": "uint256",
          "name": "amount",
          "type": "uint256"
        }
      ],
      "name": "withdrawToken",
      "outputs": [],
      "stateMutability": "payable",
      "type": "function"
    }
  ],
  "bytecode": "0x60e06040523480156200001157600080fd5b5060405162003b9038038062003b90833981810160405281019062000037919062000241565b6001600081905550600073ffffffffffffffffffffffffffffffffffffffff168373ffffffffffffffffffffffffffffffffffffffff1603620000b1576040517f08c379a0000000000000000000000000000000000000000000000000000000008152600401620000a890620002fe565b60405180910390fd5b600073ffffffffffffffffffffffffffffffffffffffff168173ffffffffffffffffffffffffffffffffffffffff160362000123576040517f08c379a00000000000000000000000000000000000000000000000000000000081526004016200011a9062000370565b60405180910390fd5b8273ffffffffffffffffffffffffffffffffffffffff1660808173ffffffffffffffffffffffffffffffffffffffff16815250508160a081815250508073ffffffffffffffffffffffffffffffffffffffff1660c08173ffffffffffffffffffffffffffffffffffffffff168152505050505062000392565b600080fd5b600073ffffffffffffffffffffffffffffffffffffffff82169050919050565b6000620001ce82620001a1565b9050919050565b620001e081620001c1565b8114620001ec57600080fd5b50565b6000815190506200020081620001d5565b92915050565b6000819050919050565b6200021b8162000206565b81146200022757600080fd5b50565b6000815190506200023b8162000210565b92915050565b6000806000606084860312156200025d576200025c6200019c565b5b60006200026d86828701620001ef565b935050602062000280868287016200022a565b92505060406200029386828701620001ef565b9150509250925092565b600082825260208201905092915050565b7f496e76616c69642066656520636f6c6c6563746f720000000000000000000000600082015250565b6000620002e66015836200029d565b9150620002f382620002ae565b602082019050919050565b600060208201905081810360008301526200031981620002d7565b9050919050565b7f496e76616c696420707269636520666565640000000000000000000000000000600082015250565b6000620003586012836200029d565b9150620003658262000320565b602082019050919050565b600060208201905081810360008301526200038b8162000349565b9050919050565b60805160a05160c0516137a4620003ec6000396000818161072101528181611096015261117001526000611731015260008181610e2b01528181610ebe01528181610f5e015281816114e5015261165501526137a46000f3fe6080604052600436106100dd5760003560e01c80639e281a981161007f578063d4fac45d11610059578063d4fac45d14610241578063db46a7901461027e578063f14210a6146102a9578063f6326fb3146102c5576100dd565b80639e281a98146101f2578063a0501e121461020e578063c87965721461022a576100dd565b806369c5dfd8116100bb57806369c5dfd8146101455780636df233ff14610170578063741bef1a1461019b578063942b1364146101c6576100dd565b8063308bc441146100e2578063338b5dea1461010d57806335f3407514610129575b600080fd5b3480156100ee57600080fd5b506100f76102cf565b6040516101049190612380565b60405180910390f35b6101276004803603810190610122919061242a565b6102de565b005b610143600480360381019061013e919061242a565b610507565b005b34801561015157600080fd5b5061015a610715565b6040516101679190612380565b60405180910390f35b34801561017c57600080fd5b5061018561071a565b6040516101929190612380565b60405180910390f35b3480156101a757600080fd5b506101b061071f565b6040516101bd91906124c9565b60405180910390f35b3480156101d257600080fd5b506101db610743565b6040516101e9929190612660565b60405180910390f35b61020c6004803603810190610207919061242a565b6109fe565b005b61022860048036038101906102239190612697565b610ba8565b005b34801561023657600080fd5b5061023f610e21565b005b34801561024d57600080fd5b50610268600480360381019061026391906126ea565b61106a565b6040516102759190612380565b60405180910390f35b34801561028a57600080fd5b50610293611091565b6040516102a09190612380565b60405180910390f35b6102c360048036038101906102be919061272a565b611248565b005b6102cd611407565b005b60006102d9611091565b905090565b6102e66115ad565b600073ffffffffffffffffffffffffffffffffffffffff168273ffffffffffffffffffffffffffffffffffffffff1603610355576040517f08c379a000000000000000000000000000000000000000000000000000000000815260040161034c906127b4565b60405180910390fd5b60008111610398576040517f08c379a000000000000000000000000000000000000000000000000000000000815260040161038f90612820565b60405180910390fd5b6103a06115fc565b6103cd3330838573ffffffffffffffffffffffffffffffffffffffff166116a2909392919063ffffffff16565b80600160006103dc338661172b565b815260200190815260200160002060008282540192505081905550600080600460003373ffffffffffffffffffffffffffffffffffffffff1673ffffffffffffffffffffffffffffffffffffffff16815260200190815260200160002060008573ffffffffffffffffffffffffffffffffffffffff1673ffffffffffffffffffffffffffffffffffffffff1681526020019081526020016000205414610483576000610486565b60015b60ff1690506104958382611780565b3373ffffffffffffffffffffffffffffffffffffffff168373ffffffffffffffffffffffffffffffffffffffff167f5548c837ab068cf56a2c2479df0882a4922fd203edb7517321831d95078c5f62846040516104f29190612380565b60405180910390a350610503611a35565b5050565b61050f6115ad565b600073ffffffffffffffffffffffffffffffffffffffff168273ffffffffffffffffffffffffffffffffffffffff161415801561057857503373ffffffffffffffffffffffffffffffffffffffff168273ffffffffffffffffffffffffffffffffffffffff1614155b6105b7576040517f08c379a00000000000000000000000000000000000000000000000000000000081526004016105ae9061288c565b60405180910390fd5b60006105c433600061172b565b905060006105d384600061172b565b9050826001600084815260200190815260200160002054101561062b576040517f08c379a0000000000000000000000000000000000000000000000000000000008152600401610622906128f8565b60405180910390fd5b6106336115fc565b82600160008481526020019081526020016000206000828254039250508190555082600160008381526020019081526020016000206000828254019250508190555061067f6000611a3f565b61068a846000611ddb565b8373ffffffffffffffffffffffffffffffffffffffff163373ffffffffffffffffffffffffffffffffffffffff16600073ffffffffffffffffffffffffffffffffffffffff167f77178bcf8f3c991d39734824771477a42787fe19b60d5a29c0ec72de167699b3866040516106ff9190612380565b60405180910390a45050610711611a35565b5050565b60c881565b600581565b7f000000000000000000000000000000000000000000000000000000000000000081565b6060806000600360003373ffffffffffffffffffffffffffffffffffffffff1673ffffffffffffffffffffffffffffffffffffffff16815260200190815260200160002090506000805b8280549050811015610819576000600160006107e6338786815481106107b6576107b5612918565b5b9060005260206000200160009054906101000a900473ffffffffffffffffffffffffffffffffffffffff1661172b565b8152602001908152602001600020541115610808578161080590612976565b91505b8061081290612976565b905061078d565b508067ffffffffffffffff811115610834576108336129be565b5b6040519080825280602002602001820160405280156108625781602001602082028036833780820191505090505b5093508067ffffffffffffffff81111561087f5761087e6129be565b5b6040519080825280602002602001820160405280156108ad5781602001602082028036833780820191505090505b5092506000805b83805490508110156109f65760006001600061090d338886815481106108dd576108dc612918565b5b9060005260206000200160009054906101000a900473ffffffffffffffffffffffffffffffffffffffff1661172b565b81526020019081526020016000205490506000810361092c57506109e5565b84828154811061093f5761093e612918565b5b9060005260206000200160009054906101000a900473ffffffffffffffffffffffffffffffffffffffff1687848151811061097d5761097c612918565b5b602002602001019073ffffffffffffffffffffffffffffffffffffffff16908173ffffffffffffffffffffffffffffffffffffffff1681525050808684815181106109cb576109ca612918565b5b602002602001018181525050826109e190612976565b9250505b806109ef90612976565b90506108b4565b505050509091565b610a066115ad565b600073ffffffffffffffffffffffffffffffffffffffff168273ffffffffffffffffffffffffffffffffffffffff1603610a75576040517f08c379a0000000000000000000000000000000000000000000000000000000008152600401610a6c906127b4565b60405180910390fd5b6000610a81338461172b565b90508160016000838152602001908152602001600020541015610ad9576040517f08c379a0000000000000000000000000000000000000000000000000000000008152600401610ad0906128f8565b60405180910390fd5b610ae16115fc565b816001600083815260200190815260200160002060008282540392505081905550610b0b83611a3f565b610b3633838573ffffffffffffffffffffffffffffffffffffffff1661204c9092919063ffffffff16565b3373ffffffffffffffffffffffffffffffffffffffff168373ffffffffffffffffffffffffffffffffffffffff167f9b1bfa7fa9ee420a16e124f794c35ac9f90472acc99140eb2f6447c714cad8eb84604051610b939190612380565b60405180910390a350610ba4611a35565b5050565b610bb06115ad565b600073ffffffffffffffffffffffffffffffffffffffff168373ffffffffffffffffffffffffffffffffffffffff1603610c1f576040517f08c379a0000000000000000000000000000000000000000000000000000000008152600401610c16906127b4565b60405180910390fd5b600073ffffffffffffffffffffffffffffffffffffffff168273ffffffffffffffffffffffffffffffffffffffff1614158015610c8857503373ffffffffffffffffffffffffffffffffffffffff168273ffffffffffffffffffffffffffffffffffffffff1614155b610cc7576040517f08c379a0000000000000000000000000000000000000000000000000000000008152600401610cbe9061288c565b60405180910390fd5b6000610cd3338561172b565b90506000610ce1848661172b565b90508260016000848152602001908152602001600020541015610d39576040517f08c379a0000000000000000000000000000000000000000000000000000000008152600401610d30906128f8565b60405180910390fd5b610d416115fc565b826001600084815260200190815260200160002060008282540392505081905550826001600083815260200190815260200160002060008282540192505081905550610d8c85611a3f565b610d968486611ddb565b8373ffffffffffffffffffffffffffffffffffffffff163373ffffffffffffffffffffffffffffffffffffffff168673ffffffffffffffffffffffffffffffffffffffff167f77178bcf8f3c991d39734824771477a42787fe19b60d5a29c0ec72de167699b386604051610e0a9190612380565b60405180910390a45050610e1c611a35565b505050565b610e296115ad565b7f000000000000000000000000000000000000000000000000000000000000000073ffffffffffffffffffffffffffffffffffffffff163373ffffffffffffffffffffffffffffffffffffffff1614610eb7576040517f08c379a0000000000000000000000000000000000000000000000000000000008152600401610eae90612a39565b60405180910390fd5b6000610ee47f0000000000000000000000000000000000000000000000000000000000000000600061172b565b905060006002600083815260200190815260200160002054905060008111610f41576040517f08c379a0000000000000000000000000000000000000000000000000000000008152600401610f3890612aa5565b60405180910390fd5b6000600260008481526020019081526020016000208190555060007f000000000000000000000000000000000000000000000000000000000000000073ffffffffffffffffffffffffffffffffffffffff1682604051610fa090612af6565b60006040518083038185875af1925050503d8060008114610fdd576040519150601f19603f3d011682016040523d82523d6000602084013e610fe2565b606091505b5050905080611026576040517f08c379a000000000000000000000000000000000000000000000000000000000815260040161101d90612b57565b60405180910390fd5b7f860c0aa5520013080c2f65981705fcdea474d9f7c3daf954656ed5e65d692d1f826040516110559190612380565b60405180910390a1505050611068611a35565b565b60006001600061107a858561172b565b815260200190815260200160002054905092915050565b6000807f000000000000000000000000000000000000000000000000000000000000000073ffffffffffffffffffffffffffffffffffffffff1663feaf968c6040518163ffffffff1660e01b815260040160a060405180830381865afa1580156110ff573d6000803e3d6000fd5b505050506040513d601f19601f820116820180604052508101906111239190612c04565b5050509150506000811361116c576040517f08c379a000000000000000000000000000000000000000000000000000000000815260040161116390612ccb565b60405180910390fd5b60007f000000000000000000000000000000000000000000000000000000000000000073ffffffffffffffffffffffffffffffffffffffff1663313ce5676040518163ffffffff1660e01b8152600401602060405180830381865afa1580156111d9573d6000803e3d6000fd5b505050506040513d601f19601f820116820180604052508101906111fd9190612d24565b9050600060028260126112109190612d51565b61121a9190612d86565b600a6112269190612eee565b600a6112329190612f39565b905082816112409190612faa565b935050505090565b6112506115ad565b600061125d33600061172b565b905081600160008381526020019081526020016000205410156112b5576040517f08c379a00000000000000000000000000000000000000000000000000000000081526004016112ac906128f8565b60405180910390fd5b6112bd6115fc565b8160016000838152602001908152602001600020600082825403925050819055506112e86000611a3f565b60003373ffffffffffffffffffffffffffffffffffffffff168360405161130e90612af6565b60006040518083038185875af1925050503d806000811461134b576040519150601f19603f3d011682016040523d82523d6000602084013e611350565b606091505b5050905080611394576040517f08c379a000000000000000000000000000000000000000000000000000000000815260040161138b90613027565b60405180910390fd5b3373ffffffffffffffffffffffffffffffffffffffff16600073ffffffffffffffffffffffffffffffffffffffff167f9b1bfa7fa9ee420a16e124f794c35ac9f90472acc99140eb2f6447c714cad8eb856040516113f29190612380565b60405180910390a35050611404611a35565b50565b61140f6115ad565b60003411611452576040517f08c379a000000000000000000000000000000000000000000000000000000000815260040161144990612820565b60405180910390fd5b600061145c611091565b90508034116114a0576040517f08c379a000000000000000000000000000000000000000000000000000000000815260040161149790613093565b60405180910390fd5b600081346114ae91906130b3565b905080600160006114c033600061172b565b815260200190815260200160002060008282540192505081905550816002600061150b7f0000000000000000000000000000000000000000000000000000000000000000600061172b565b8152602001908152602001600020600082825461152891906130e7565b9250508190555061153b60006001611780565b3373ffffffffffffffffffffffffffffffffffffffff16600073ffffffffffffffffffffffffffffffffffffffff167f5548c837ab068cf56a2c2479df0882a4922fd203edb7517321831d95078c5f62836040516115999190612380565b60405180910390a350506115ab611a35565b565b6002600054036115f2576040517f08c379a00000000000000000000000000000000000000000000000000000000081526004016115e990613167565b60405180910390fd5b6002600081905550565b6000611606611091565b90508034101561164b576040517f08c379a0000000000000000000000000000000000000000000000000000000008152600401611642906131d3565b60405180910390fd5b806002600061167b7f0000000000000000000000000000000000000000000000000000000000000000600061172b565b8152602001908152602001600020600082825461169891906130e7565b9250508190555050565b611725846323b872dd60e01b8585856040516024016116c393929190613202565b604051602081830303815290604052907bffffffffffffffffffffffffffffffffffffffffffffffffffffffff19166020820180517bffffffffffffffffffffffffffffffffffffffffffffffffffffffff83818316178352505050506120d2565b50505050565b600082827f0000000000000000000000000000000000000000000000000000000000000000604051602001611762939291906132ac565b60405160208183030381529060405280519060200120905092915050565b6000600460003373ffffffffffffffffffffffffffffffffffffffff1673ffffffffffffffffffffffffffffffffffffffff16815260200190815260200160002060008473ffffffffffffffffffffffffffffffffffffffff1673ffffffffffffffffffffffffffffffffffffffff1681526020019081526020016000205403611a31576005811115611848576040517f08c379a000000000000000000000000000000000000000000000000000000000815260040161183f90613335565b60405180910390fd5b60c8600360003373ffffffffffffffffffffffffffffffffffffffff1673ffffffffffffffffffffffffffffffffffffffff16815260200190815260200160002080549050106118cd576040517f08c379a00000000000000000000000000000000000000000000000000000000081526004016118c4906133a1565b60405180910390fd5b600360003373ffffffffffffffffffffffffffffffffffffffff1673ffffffffffffffffffffffffffffffffffffffff168152602001908152602001600020829080600181540180825580915050600190039060005260206000200160009091909190916101000a81548173ffffffffffffffffffffffffffffffffffffffff021916908373ffffffffffffffffffffffffffffffffffffffff160217905550600360003373ffffffffffffffffffffffffffffffffffffffff1673ffffffffffffffffffffffffffffffffffffffff16815260200190815260200160002080549050600460003373ffffffffffffffffffffffffffffffffffffffff1673ffffffffffffffffffffffffffffffffffffffff16815260200190815260200160002060008473ffffffffffffffffffffffffffffffffffffffff1673ffffffffffffffffffffffffffffffffffffffff168152602001908152602001600020819055505b5050565b6001600081905550565b6000611a4b338361172b565b90506000600160008381526020019081526020016000205414611a6e5750611dd8565b60016000828152602001908152602001600020600090556000600460003373ffffffffffffffffffffffffffffffffffffffff1673ffffffffffffffffffffffffffffffffffffffff16815260200190815260200160002060008473ffffffffffffffffffffffffffffffffffffffff1673ffffffffffffffffffffffffffffffffffffffff16815260200190815260200160002054905060008103611b15575050611dd8565b6000600182611b2491906130b3565b90506000600360003373ffffffffffffffffffffffffffffffffffffffff1673ffffffffffffffffffffffffffffffffffffffff1681526020019081526020016000209050600060018280549050611b7c91906130b3565b9050808314611cb2576000828281548110611b9a57611b99612918565b5b9060005260206000200160009054906101000a900473ffffffffffffffffffffffffffffffffffffffff16905080838581548110611bdb57611bda612918565b5b9060005260206000200160006101000a81548173ffffffffffffffffffffffffffffffffffffffff021916908373ffffffffffffffffffffffffffffffffffffffff160217905550600184611c3091906130e7565b600460003373ffffffffffffffffffffffffffffffffffffffff1673ffffffffffffffffffffffffffffffffffffffff16815260200190815260200160002060008373ffffffffffffffffffffffffffffffffffffffff1673ffffffffffffffffffffffffffffffffffffffff16815260200190815260200160002081905550505b81805480611cc357611cc26133c1565b5b6001900381819060005260206000200160006101000a81549073ffffffffffffffffffffffffffffffffffffffff02191690559055600460003373ffffffffffffffffffffffffffffffffffffffff1673ffffffffffffffffffffffffffffffffffffffff16815260200190815260200160002060008773ffffffffffffffffffffffffffffffffffffffff1673ffffffffffffffffffffffffffffffffffffffff168152602001908152602001600020600090558573ffffffffffffffffffffffffffffffffffffffff163373ffffffffffffffffffffffffffffffffffffffff167fc22c253b62e9da4c0305122d8496f21c2563c5a88882c1f4b0ac0ce41e1fc3c360405160405180910390a350505050505b50565b6000600460008473ffffffffffffffffffffffffffffffffffffffff1673ffffffffffffffffffffffffffffffffffffffff16815260200190815260200160002060008373ffffffffffffffffffffffffffffffffffffffff1673ffffffffffffffffffffffffffffffffffffffff16815260200190815260200160002054036120485760c8600360008473ffffffffffffffffffffffffffffffffffffffff1673ffffffffffffffffffffffffffffffffffffffff1681526020019081526020016000208054905010611ee4576040517f08c379a0000000000000000000000000000000000000000000000000000000008152600401611edb9061343c565b60405180910390fd5b600360008373ffffffffffffffffffffffffffffffffffffffff1673ffffffffffffffffffffffffffffffffffffffff168152602001908152602001600020819080600181540180825580915050600190039060005260206000200160009091909190916101000a81548173ffffffffffffffffffffffffffffffffffffffff021916908373ffffffffffffffffffffffffffffffffffffffff160217905550600360008373ffffffffffffffffffffffffffffffffffffffff1673ffffffffffffffffffffffffffffffffffffffff16815260200190815260200160002080549050600460008473ffffffffffffffffffffffffffffffffffffffff1673ffffffffffffffffffffffffffffffffffffffff16815260200190815260200160002060008373ffffffffffffffffffffffffffffffffffffffff1673ffffffffffffffffffffffffffffffffffffffff168152602001908152602001600020819055505b5050565b6120cd8363a9059cbb60e01b848460405160240161206b92919061345c565b604051602081830303815290604052907bffffffffffffffffffffffffffffffffffffffffffffffffffffffff19166020820180517bffffffffffffffffffffffffffffffffffffffffffffffffffffffff83818316178352505050506120d2565b505050565b6000612134826040518060400160405280602081526020017f5361666545524332303a206c6f772d6c6576656c2063616c6c206661696c65648152508573ffffffffffffffffffffffffffffffffffffffff1661219a9092919063ffffffff16565b905060008151148061215657508080602001905181019061215591906134bd565b5b612195576040517f08c379a000000000000000000000000000000000000000000000000000000000815260040161218c9061355c565b60405180910390fd5b505050565b60606121a984846000856121b2565b90509392505050565b6060824710156121f7576040517f08c379a00000000000000000000000000000000000000000000000000000000081526004016121ee906135ee565b60405180910390fd5b6000808673ffffffffffffffffffffffffffffffffffffffff1685876040516122209190613674565b60006040518083038185875af1925050503d806000811461225d576040519150601f19603f3d011682016040523d82523d6000602084013e612262565b606091505b50915091506122738783838761227f565b92505050949350505050565b606083156122e15760008351036122d957612299856122f4565b6122d8576040517f08c379a00000000000000000000000000000000000000000000000000000000081526004016122cf906136d7565b60405180910390fd5b5b8290506122ec565b6122eb8383612317565b5b949350505050565b6000808273ffffffffffffffffffffffffffffffffffffffff163b119050919050565b60008251111561232a5781518083602001fd5b806040517f08c379a000000000000000000000000000000000000000000000000000000000815260040161235e919061374c565b60405180910390fd5b6000819050919050565b61237a81612367565b82525050565b60006020820190506123956000830184612371565b92915050565b600080fd5b600073ffffffffffffffffffffffffffffffffffffffff82169050919050565b60006123cb826123a0565b9050919050565b6123db816123c0565b81146123e657600080fd5b50565b6000813590506123f8816123d2565b92915050565b61240781612367565b811461241257600080fd5b50565b600081359050612424816123fe565b92915050565b600080604083850312156124415761244061239b565b5b600061244f858286016123e9565b925050602061246085828601612415565b9150509250929050565b6000819050919050565b600061248f61248a612485846123a0565b61246a565b6123a0565b9050919050565b60006124a182612474565b9050919050565b60006124b382612496565b9050919050565b6124c3816124a8565b82525050565b60006020820190506124de60008301846124ba565b92915050565b600081519050919050565b600082825260208201905092915050565b6000819050602082019050919050565b612519816123c0565b82525050565b600061252b8383612510565b60208301905092915050565b6000602082019050919050565b600061254f826124e4565b61255981856124ef565b935061256483612500565b8060005b8381101561259557815161257c888261251f565b975061258783612537565b925050600181019050612568565b5085935050505092915050565b600081519050919050565b600082825260208201905092915050565b6000819050602082019050919050565b6125d781612367565b82525050565b60006125e983836125ce565b60208301905092915050565b6000602082019050919050565b600061260d826125a2565b61261781856125ad565b9350612622836125be565b8060005b8381101561265357815161263a88826125dd565b9750612645836125f5565b925050600181019050612626565b5085935050505092915050565b6000604082019050818103600083015261267a8185612544565b9050818103602083015261268e8184612602565b90509392505050565b6000806000606084860312156126b0576126af61239b565b5b60006126be868287016123e9565b93505060206126cf868287016123e9565b92505060406126e086828701612415565b9150509250925092565b600080604083850312156127015761270061239b565b5b600061270f858286016123e9565b9250506020612720858286016123e9565b9150509250929050565b6000602082840312156127405761273f61239b565b5b600061274e84828501612415565b91505092915050565b600082825260208201905092915050565b7f496e76616c696420746f6b656e00000000000000000000000000000000000000600082015250565b600061279e600d83612757565b91506127a982612768565b602082019050919050565b600060208201905081810360008301526127cd81612791565b9050919050565b7f5a65726f206465706f7369740000000000000000000000000000000000000000600082015250565b600061280a600c83612757565b9150612815826127d4565b602082019050919050565b60006020820190508181036000830152612839816127fd565b9050919050565b7f496e76616c696420726563697069656e74000000000000000000000000000000600082015250565b6000612876601183612757565b915061288182612840565b602082019050919050565b600060208201905081810360008301526128a581612869565b9050919050565b7f496e73756666696369656e742062616c616e6365000000000000000000000000600082015250565b60006128e2601483612757565b91506128ed826128ac565b602082019050919050565b60006020820190508181036000830152612911816128d5565b9050919050565b7f4e487b7100000000000000000000000000000000000000000000000000000000600052603260045260246000fd5b7f4e487b7100000000000000000000000000000000000000000000000000000000600052601160045260246000fd5b600061298182612367565b91507fffffffffffffffffffffffffffffffffffffffffffffffffffffffffffffffff82036129b3576129b2612947565b5b600182019050919050565b7f4e487b7100000000000000000000000000000000000000000000000000000000600052604160045260246000fd5b7f4e6f7420617574686f72697a6564000000000000000000000000000000000000600082015250565b6000612a23600e83612757565b9150612a2e826129ed565b602082019050919050565b60006020820190508181036000830152612a5281612a16565b9050919050565b7f4e6f206665657300000000000000000000000000000000000000000000000000600082015250565b6000612a8f600783612757565b9150612a9a82612a59565b602082019050919050565b60006020820190508181036000830152612abe81612a82565b9050919050565b600081905092915050565b50565b6000612ae0600083612ac5565b9150612aeb82612ad0565b600082019050919050565b6000612b0182612ad3565b9150819050919050565b7f466565207472616e73666572206661696c656400000000000000000000000000600082015250565b6000612b41601383612757565b9150612b4c82612b0b565b602082019050919050565b60006020820190508181036000830152612b7081612b34565b9050919050565b600069ffffffffffffffffffff82169050919050565b612b9681612b77565b8114612ba157600080fd5b50565b600081519050612bb381612b8d565b92915050565b6000819050919050565b612bcc81612bb9565b8114612bd757600080fd5b50565b600081519050612be981612bc3565b92915050565b600081519050612bfe816123fe565b92915050565b600080600080600060a08688031215612c2057612c1f61239b565b5b6000612c2e88828901612ba4565b9550506020612c3f88828901612bda565b9450506040612c5088828901612bef565b9350506060612c6188828901612bef565b9250506080612c7288828901612ba4565b9150509295509295909350565b7f496e76616c696420707269636500000000000000000000000000000000000000600082015250565b6000612cb5600d83612757565b9150612cc082612c7f565b602082019050919050565b60006020820190508181036000830152612ce481612ca8565b9050919050565b600060ff82169050919050565b612d0181612ceb565b8114612d0c57600080fd5b50565b600081519050612d1e81612cf8565b92915050565b600060208284031215612d3a57612d3961239b565b5b6000612d4884828501612d0f565b91505092915050565b6000612d5c82612ceb565b9150612d6783612ceb565b9250828201905060ff811115612d8057612d7f612947565b5b92915050565b6000612d9182612ceb565b9150612d9c83612ceb565b9250828203905060ff811115612db557612db4612947565b5b92915050565b60008160011c9050919050565b6000808291508390505b6001851115612e1257808604811115612dee57612ded612947565b5b6001851615612dfd5780820291505b8081029050612e0b85612dbb565b9450612dd2565b94509492505050565b600082612e2b5760019050612ee7565b81612e395760009050612ee7565b8160018114612e4f5760028114612e5957612e88565b6001915050612ee7565b60ff841115612e6b57612e6a612947565b5b8360020a915084821115612e8257612e81612947565b5b50612ee7565b5060208310610133831016604e8410600b8410161715612ebd5782820a905083811115612eb857612eb7612947565b5b612ee7565b612eca8484846001612dc8565b92509050818404811115612ee157612ee0612947565b5b81810290505b9392505050565b6000612ef982612367565b9150612f0483612ceb565b9250612f317fffffffffffffffffffffffffffffffffffffffffffffffffffffffffffffffff8484612e1b565b905092915050565b6000612f4482612367565b9150612f4f83612367565b9250828202612f5d81612367565b91508282048414831517612f7457612f73612947565b5b5092915050565b7f4e487b7100000000000000000000000000000000000000000000000000000000600052601260045260246000fd5b6000612fb582612367565b9150612fc083612367565b925082612fd057612fcf612f7b565b5b828204905092915050565b7f455448207472616e73666572206661696c656400000000000000000000000000600082015250565b6000613011601383612757565b915061301c82612fdb565b602082019050919050565b6000602082019050818103600083015261304081613004565b9050919050565b7f416d6f756e74206d757374206578636565642066656500000000000000000000600082015250565b600061307d601683612757565b915061308882613047565b602082019050919050565b600060208201905081810360008301526130ac81613070565b9050919050565b60006130be82612367565b91506130c983612367565b92508282039050818111156130e1576130e0612947565b5b92915050565b60006130f282612367565b91506130fd83612367565b925082820190508082111561311557613114612947565b5b92915050565b7f5265656e7472616e637947756172643a207265656e7472616e742063616c6c00600082015250565b6000613151601f83612757565b915061315c8261311b565b602082019050919050565b6000602082019050818103600083015261318081613144565b9050919050565b7f496e73756666696369656e74206665652073656e740000000000000000000000600082015250565b60006131bd601583612757565b91506131c882613187565b602082019050919050565b600060208201905081810360008301526131ec816131b0565b9050919050565b6131fc816123c0565b82525050565b600060608201905061321760008301866131f3565b61322460208301856131f3565b6132316040830184612371565b949350505050565b60008160601b9050919050565b600061325182613239565b9050919050565b600061326382613246565b9050919050565b61327b613276826123c0565b613258565b82525050565b6000819050919050565b6000819050919050565b6132a66132a182613281565b61328b565b82525050565b60006132b8828661326a565b6014820191506132c8828561326a565b6014820191506132d88284613295565b602082019150819050949350505050565b7f546f6f206d616e79206e657720746f6b656e7320696e20747800000000000000600082015250565b600061331f601983612757565b915061332a826132e9565b602082019050919050565b6000602082019050818103600083015261334e81613312565b9050919050565b7f546f6b656e206c6973742066756c6c0000000000000000000000000000000000600082015250565b600061338b600f83612757565b915061339682613355565b602082019050919050565b600060208201905081810360008301526133ba8161337e565b9050919050565b7f4e487b7100000000000000000000000000000000000000000000000000000000600052603160045260246000fd5b7f526563697069656e7420746f6b656e206c6973742066756c6c00000000000000600082015250565b6000613426601983612757565b9150613431826133f0565b602082019050919050565b6000602082019050818103600083015261345581613419565b9050919050565b600060408201905061347160008301856131f3565b61347e6020830184612371565b9392505050565b60008115159050919050565b61349a81613485565b81146134a557600080fd5b50565b6000815190506134b781613491565b92915050565b6000602082840312156134d3576134d261239b565b5b60006134e1848285016134a8565b91505092915050565b7f5361666545524332303a204552433230206f7065726174696f6e20646964206e60008201527f6f74207375636365656400000000000000000000000000000000000000000000602082015250565b6000613546602a83612757565b9150613551826134ea565b604082019050919050565b6000602082019050818103600083015261357581613539565b9050919050565b7f416464726573733a20696e73756666696369656e742062616c616e636520666f60008201527f722063616c6c0000000000000000000000000000000000000000000000000000602082015250565b60006135d8602683612757565b91506135e38261357c565b604082019050919050565b60006020820190508181036000830152613607816135cb565b9050919050565b600081519050919050565b60005b8381101561363757808201518184015260208101905061361c565b60008484015250505050565b600061364e8261360e565b6136588185612ac5565b9350613668818560208601613619565b80840191505092915050565b60006136808284613643565b915081905092915050565b7f416464726573733a2063616c6c20746f206e6f6e2d636f6e7472616374000000600082015250565b60006136c1601d83612757565b91506136cc8261368b565b602082019050919050565b600060208201905081810360008301526136f0816136b4565b9050919050565b600081519050919050565b6000601f19601f8301169050919050565b600061371e826136f7565b6137288185612757565b9350613738818560208601613619565b61374181613702565b840191505092915050565b600060208201905081810360008301526137668184613713565b90509291505056fea2646970667358221220033b6bee01dbf2fad2f108f52315d34c4ad847b880958c5e889236b625c8f29c64736f6c63430008140033",
  "linkReferences": {},
  "deployedLinkReferences": {}
}